{"contracts/ResumeCraftAgent.sol":{"ResumeCraftAgent":{"abi":[{"inputs":[{"internalType":"address","name":"initialOracleAddress","type":"address"},{"internalType":"string","name":"systemPrompt","type":"string"}],"stateMutability":"nonpayable","type":"constructor"},{"anonymous":false,"inputs":[{"indexed":true,"internalType":"address","name":"owner","type":"address"},{"indexed":true,"internalType":"uint256","name":"runId","type":"uint256"}],"name":"AgentRunCreated","type":"event"},{"anonymous":false,"inputs":[{"indexed":true,"internalType":"string","name":"newKnowledgeBaseCID","type":"string"}],"name":"KnowledgeBaseUpdated","type":"event"},{"anonymous":false,"inputs":[{"indexed":true,"internalType":"address","name":"newOracleAddress","type":"address"}],"name":"OracleAddressUpdated","type":"event"},{"inputs":[{"internalType":"uint256","name":"","type":"uint256"}],"name":"agentRuns","outputs":[{"internalType":"address","name":"owner","type":"address"},{"internalType":"uint256","name":"responsesCount","type":"uint256"},{"internalType":"uint8","name":"max_iterations","type":"uint8"},{"internalType":"bool","name":"is_finished","type":"bool"},{"internalType":"uint256","name":"messagesCount","type":"uint256"}],"stateMutability":"view","type":"function"},{"inputs":[{"internalType":"uint256","name":"agentId","type":"uint256"}],"name":"getMessageHistoryContents","outputs":[{"internalType":"string[]","name":"","type":"string[]"}],"stateMutability":"view","type":"function"},{"inputs":[{"internalType":"uint256","name":"agentId","type":"uint256"}],"name":"getMessageHistoryRoles","outputs":[{"internalType":"string[]","name":"","type":"string[]"}],"stateMutability":"view","type":"function"},{"inputs":[{"internalType":"uint256","name":"runId","type":"uint256"}],"name":"isRunFinished","outputs":[{"internalType":"bool","name":"","type":"bool"}],"stateMutability":"view","type":"function"},{"inputs":[],"name":"knowledgeBase","outputs":[{"internalType":"string","name":"","type":"string"}],"stateMutability":"view","type":"function"},{"inputs":[{"internalType":"uint256","name":"runId","type":"uint256"},{"internalType":"string","name":"response","type":"string"},{"internalType":"string","name":"errorMessage","type":"string"}],"name":"onOracleFunctionResponse","outputs":[],"stateMutability":"nonpayable","type":"function"},{"inputs":[{"internalType":"uint256","name":"runId","type":"uint256"},{"internalType":"string[]","name":"documents","type":"string[]"},{"internalType":"string","name":"","type":"string"}],"name":"onOracleKnowledgeBaseQueryResponse","outputs":[],"stateMutability":"nonpayable","type":"function"},{"inputs":[{"internalType":"uint256","name":"runId","type":"uint256"},{"components":[{"internalType":"string","name":"id","type":"string"},{"internalType":"string","name":"content","type":"string"},{"internalType":"string","name":"functionName","type":"string"},{"internalType":"string","name":"functionArguments","type":"string"},{"internalType":"uint64","name":"created","type":"uint64"},{"internalType":"string","name":"model","type":"string"},{"internalType":"string","name":"systemFingerprint","type":"string"},{"internalType":"string","name":"object","type":"string"},{"internalType":"uint32","name":"completionTokens","type":"uint32"},{"internalType":"uint32","name":"promptTokens","type":"uint32"},{"internalType":"uint32","name":"totalTokens","type":"uint32"}],"internalType":"struct IOracle.OpenAiResponse","name":"response","type":"tuple"},{"internalType":"string","name":"errorMessage","type":"string"}],"name":"onOracleOpenAiLlmResponse","outputs":[],"stateMutability":"nonpayable","type":"function"},{"inputs":[],"name":"oracleAddress","outputs":[{"internalType":"address","name":"","type":"address"}],"stateMutability":"view","type":"function"},{"inputs":[],"name":"prompt","outputs":[{"internalType":"string","name":"","type":"string"}],"stateMutability":"view","type":"function"},{"inputs":[{"internalType":"string","name":"query","type":"string"},{"internalType":"uint8","name":"max_iterations","type":"uint8"}],"name":"runAgent","outputs":[{"internalType":"uint256","name":"i","type":"uint256"}],"stateMutability":"nonpayable","type":"function"},{"inputs":[{"internalType":"string","name":"cid","type":"string"}],"name":"setKnowledgeBaseCid","outputs":[],"stateMutability":"nonpayable","type":"function"},{"inputs":[{"internalType":"address","name":"newOracleAddress","type":"address"}],"name":"setOracleAddress","outputs":[],"stateMutability":"nonpayable","type":"function"}],"evm":{"bytecode":{"linkReferences":{},"object":"60806040523480156200001157600080fd5b5060405162002a1938038062002a198339810160408190526200003491620002c5565b60048054336001600160a01b031991821617909155600580549091166001600160a01b03841617905560006200006b82826200044c565b50604051806101a001604052806040518060400160405280601381526020017f6770742d342d747572626f2d70726576696577000000000000000000000000008152508152602001601560000b81526020016040518060200160405280600081525081526020016103e863ffffffff168152602001601560000b81526020016040518060400160405280600f81526020016e7b2274797065223a2274657874227d60881b815250815260200160008152602001604051806020016040528060008152508152602001600a8152602001606581526020016040518061020001604052806101d38152602001620028466101d39139815260408051808201825260048152636175746f60e01b60208281019190915280840191909152815190810182526000815291015280516006908190620001a690826200044c565b50602082015160018201805460ff191660ff90921691909117905560408201516002820190620001d790826200044c565b506060820151600382018054608085015160ff166401000000000264ffffffffff1990911663ffffffff9093169290921791909117905560a082015160048201906200022490826200044c565b5060c0820151600582015560e082015160068201906200024590826200044c565b506101008201516007820155610120820151600882015561014082015160098201906200027390826200044c565b50610160820151600a8201906200028b90826200044c565b50610180820151600b820190620002a390826200044c565b50905050505062000518565b634e487b7160e01b600052604160045260246000fd5b60008060408385031215620002d957600080fd5b82516001600160a01b0381168114620002f157600080fd5b602084810151919350906001600160401b03808211156200031157600080fd5b818601915086601f8301126200032657600080fd5b8151818111156200033b576200033b620002af565b604051601f8201601f19908116603f01168101908382118183101715620003665762000366620002af565b8160405282815289868487010111156200037f57600080fd5b600093505b82841015620003a3578484018601518185018701529285019262000384565b60008684830101528096505050505050509250929050565b600181811c90821680620003d057607f821691505b602082108103620003f157634e487b7160e01b600052602260045260246000fd5b50919050565b601f82111562000447576000816000526020600020601f850160051c81016020861015620004225750805b601f850160051c820191505b8181101562000443578281556001016200042e565b5050505b505050565b81516001600160401b03811115620004685762000468620002af565b6200048081620004798454620003bb565b84620003f7565b602080601f831160018114620004b857600084156200049f5750858301515b600019600386901b1c1916600185901b17855562000443565b600085815260208120601f198616915b82811015620004e957888601518255948401946001909101908401620004c8565b5085821015620005085787850151600019600388901b60f8161c191681555b5050505050600190811b01905550565b61231e80620005286000396000f3fe608060405234801561001057600080fd5b50600436106100cf5760003560e01c8063a89ae4ba1161008c578063daec051f11610066578063daec051f1461023e578063eb17429a1461025f578063ed6e39e51461027f578063f997cc251461029257600080fd5b8063a89ae4ba14610177578063c63b0295146101a2578063ccac7a911461022b57600080fd5b80632843d135146100d45780632eab9c81146100e95780634c69c00f146101295780634cecd88e1461013c5780637397454d1461014f5780637c65d71114610162575b600080fd5b6100e76100e23660046115a1565b61029a565b005b6101146100f7366004611692565b600090815260026020526040902060030154610100900460ff1690565b60405190151581526020015b60405180910390f35b6100e76101373660046116ab565b6105c2565b6100e761014a36600461170c565b6106b6565b6100e761015d3660046118bd565b610b1f565b61016a610c8e565b6040516101209190611963565b60055461018a906001600160a01b031681565b6040516001600160a01b039091168152602001610120565b6101f16101b0366004611692565b600260208190526000918252604090912080549181015460038201546004909201546001600160a01b0390931692909160ff80821692610100909204169085565b604080516001600160a01b039096168652602086019490945260ff909216928401929092529015156060830152608082015260a001610120565b6100e7610239366004611976565b610d1c565b61025161024c3660046119b3565b610e01565b604051908152602001610120565b61027261026d366004611692565b61118f565b6040516101209190611a0b565b61027261028d366004611692565b6112f8565b61016a61145a565b6005546001600160a01b031633146102cd5760405162461bcd60e51b81526004016102c490611a6f565b60405180910390fd5b60008381526002602090815260409182902091516102f69101633ab9b2b960e11b815260040190565b6040516020818303038152906040528051906020012081600101600183600401546103219190611ab3565b8154811061033157610331611ac6565b90600052602060002090600202016000016040516020016103529190611b16565b60405160208183030381529060405280519060200120146103b55760405162461bcd60e51b815260206004820152601c60248201527f4e6f206d65737361676520746f2061646420636f6e7465787420746f0000000060448201526064016102c4565b600081600101600183600401546103cc9190611ab3565b815481106103dc576103dc611ac6565b9060005260206000209060020201905060008160010180546103fd90611adc565b80601f016020809104026020016040519081016040528092919081815260200182805461042990611adc565b80156104765780601f1061044b57610100808354040283529160200191610476565b820191906000526020600020905b81548152906001019060200180831161045957829003601f168201915b505050505090506000855111156104aa57806040516020016104989190611b8c565b60405160208183030381529060405290505b60005b85518110156104fc57818682815181106104c9576104c9611ac6565b60200260200101516040516020016104e2929190611bc4565b60408051601f1981840301815291905291506001016104ad565b506001820161050b8282611c4f565b50600554604051633c38a5f560e01b81526001600160a01b0390911690633c38a5f59061053f908990600690600401611d8c565b6020604051808303816000875af115801561055e573d6000803e3d6000fd5b505050506040513d601f19601f820116820180604052508101906105829190611e9d565b50825460405187916001600160a01b0316907f9697c88a6be3b3ed5062f2dcbd719a10914832320686f14e24f7756210a6685e90600090a3505050505050565b6004546001600160a01b031633146106125760405162461bcd60e51b815260206004820152601360248201527221b0b63632b91034b9903737ba1037bbb732b960691b60448201526064016102c4565b6004546001600160a01b0316331461066c5760405162461bcd60e51b815260206004820152601760248201527f43616c6c6572206973206e6f7420746865206f776e657200000000000000000060448201526064016102c4565b600580546001600160a01b0319166001600160a01b0383169081179091556040517f107a9fafffb7ac890f780879e423760c9ffea8dcee8045681f40f542aede2cb890600090a250565b6005546001600160a01b031633146106e05760405162461bcd60e51b81526004016102c490611a6f565b60008381526002602090815260408083208151928301909152918152610707908390611467565b6107b9576040805180820182526060808252602080830191825283518085019094526009845268185cdcda5cdd185b9d60ba1b8482015292825284905260018381018054918201815560009081529290922081519192839260029091029091019081906107749082611c4f565b50602082015160018201906107899082611c4f565b50505060028201805490600061079e83611eb6565b909155505050600301805461ff001916610100179055505050565b6003810154600282015460ff909116116107e257600301805461ff001916610100179055505050565b6107ff836020015160405180602001604052806000815250611467565b610a6157604080518082019091526060808252602082015260208085015182820152604080518082019091526009815268185cdcda5cdd185b9d60ba1b8183015282526001808401805491820181556000908152919091208251839260020290910190819061086e9082611c4f565b50602082015160018201906108839082611c4f565b50505060028201805490600061089883611eb6565b919050555081600201546001036109c15760408051808201909152606080825260208201526040518061020001604052806101c48152602001611f776101c491396020808301919091526040805180820190915260048152633ab9b2b960e11b8183015282526001808501805491820181556000908152919091208251839260020290910190819061092a9082611c4f565b506020820151600182019061093f9082611c4f565b5050600554604051633c38a5f560e01b81526001600160a01b039091169150633c38a5f590610975908990600690600401611d8c565b6020604051808303816000875af1158015610994573d6000803e3d6000fd5b505050506040513d601f19601f820116820180604052508101906109b89190611e9d565b50505050505050565b8160020154600203610a4e576040805180820190915260608082526020820152604051806101e001604052806101ae815260200161213b6101ae91396020808301919091526040805180820190915260048152633ab9b2b960e11b8183015282526001808501805491820181556000908152919091208251839260020290910190819061092a9082611c4f565b5060038101805461ff0019166101001790555b610a7e836040015160405180602001604052806000815250611467565b610b095760055460408085015160608601519151634b04236b60e01b81526001600160a01b0390931692634b04236b92610abf928992909190600401611ecf565b6020604051808303816000875af1158015610ade573d6000803e3d6000fd5b505050506040513d601f19601f82011682018060405250810190610b029190611e9d565b5050505050565b600301805461ff0019166101001790555b505050565b6005546001600160a01b03163314610b495760405162461bcd60e51b81526004016102c490611a6f565b60008381526002602052604090206003810154610100900460ff1615610ba35760405162461bcd60e51b815260206004820152600f60248201526e149d5b881a5cc8199a5b9a5cda1959608a1b60448201526064016102c4565b6000839050610bc18360405180602001604052806000815250611467565b610bc85750815b60408051808201825260608082526020808301918252835180850190945260048452633ab9b2b960e11b848201529282528390526001848101805491820181556000908152929092208151919283926002909102909101908190610c2c9082611c4f565b5060208201516001820190610c419082611c4f565b505050600283018054906000610c5683611eb6565b9091555050600554604051633c38a5f560e01b81526001600160a01b0390911690633c38a5f590610975908990600690600401611d8c565b60008054610c9b90611adc565b80601f0160208091040260200160405190810160405280929190818152602001828054610cc790611adc565b8015610d145780601f10610ce957610100808354040283529160200191610d14565b820191906000526020600020905b815481529060010190602001808311610cf757829003601f168201915b505050505081565b6004546001600160a01b03163314610d6c5760405162461bcd60e51b815260206004820152601360248201527221b0b63632b91034b9903737ba1037bbb732b960691b60448201526064016102c4565b6000815111610db35760405162461bcd60e51b81526020600482015260136024820152724349442063616e6e6f7420626520656d70747960681b60448201526064016102c4565b6001610dbf8282611c4f565b5080604051610dce9190611f04565b604051908190038120907f25f99356a5ff3d29e95df0906ba17b40b7bb5c86a372ca12d27fcf3ce537f1ab90600090a250565b6003805460009081526002602081815260408084208054336001600160a01b0319909116178155948501805493860185905561ffff1990931660ff871617909255815180830190925260608083529082015290919060008054610e6390611adc565b80601f0160208091040260200160405190810160405280929190818152602001828054610e8f90611adc565b8015610edc5780601f10610eb157610100808354040283529160200191610edc565b820191906000526020600020905b815481529060010190602001808311610ebf57829003601f168201915b505050506020808401929092525060408051808201909152600681526573797374656d60d01b81830152825260018084018054918201815560009081529190912082518392600202909101908190610f349082611c4f565b5060208201516001820190610f499082611c4f565b505050600482018054906000610f5e83611eb6565b9091555050604080518082018252606081526020808201889052825180840190935260048352633ab9b2b960e11b838201529181526001848101805491820181556000908152929092208151919283926002909102909101908190610fc39082611c4f565b5060208201516001820190610fd89082611c4f565b505050600483018054906000610fed83611eb6565b9091555050600354611000816001611f20565b600355600180546000919061101490611adc565b905011156110d45760055460405163a252a95160e01b81526001600160a01b039091169063a252a951906110549084906001908c90600290600401611f33565b6020604051808303816000875af1158015611073573d6000803e3d6000fd5b505050506040513d601f19601f820116820180604052508101906110979190611e9d565b50835460405182916001600160a01b0316907f9697c88a6be3b3ed5062f2dcbd719a10914832320686f14e24f7756210a6685e90600090a3611183565b600554604051633c38a5f560e01b81526001600160a01b0390911690633c38a5f590611107908490600690600401611d8c565b6020604051808303816000875af1158015611126573d6000803e3d6000fd5b505050506040513d601f19601f8201168201806040525081019061114a9190611e9d565b50835460405182916001600160a01b0316907f9697c88a6be3b3ed5062f2dcbd719a10914832320686f14e24f7756210a6685e90600090a35b93505050505b92915050565b6000818152600260205260408120600101546060919067ffffffffffffffff8111156111bd576111bd6114c0565b6040519080825280602002602001820160405280156111f057816020015b60608152602001906001900390816111db5790505b50905060005b6000848152600260205260409020600101548110156112f157600084815260026020526040902060010180548290811061123257611232611ac6565b9060005260206000209060020201600101805461124e90611adc565b80601f016020809104026020016040519081016040528092919081815260200182805461127a90611adc565b80156112c75780601f1061129c576101008083540402835291602001916112c7565b820191906000526020600020905b8154815290600101906020018083116112aa57829003601f168201915b50505050508282815181106112de576112de611ac6565b60209081029190910101526001016111f6565b5092915050565b6000818152600260205260408120600101546060919067ffffffffffffffff811115611326576113266114c0565b60405190808252806020026020018201604052801561135957816020015b60608152602001906001900390816113445790505b50905060005b6000848152600260205260409020600101548110156112f157600084815260026020526040902060010180548290811061139b5761139b611ac6565b906000526020600020906002020160000180546113b790611adc565b80601f01602080910402602001604051908101604052809291908181526020018280546113e390611adc565b80156114305780601f1061140557610100808354040283529160200191611430565b820191906000526020600020905b81548152906001019060200180831161141357829003601f168201915b505050505082828151811061144757611447611ac6565b602090810291909101015260010161135f565b60018054610c9b90611adc565b60008160405160200161147a9190611f04565b60405160208183030381529060405280519060200120836040516020016114a19190611f04565b6040516020818303038152906040528051906020012014905092915050565b634e487b7160e01b600052604160045260246000fd5b604051610160810167ffffffffffffffff811182821017156114fa576114fa6114c0565b60405290565b604051601f8201601f1916810167ffffffffffffffff81118282101715611529576115296114c0565b604052919050565b600082601f83011261154257600080fd5b813567ffffffffffffffff81111561155c5761155c6114c0565b61156f601f8201601f1916602001611500565b81815284602083860101111561158457600080fd5b816020850160208301376000918101602001919091529392505050565b6000806000606084860312156115b657600080fd5b8335925060208085013567ffffffffffffffff808211156115d657600080fd5b818701915087601f8301126115ea57600080fd5b8135818111156115fc576115fc6114c0565b8060051b61160b858201611500565b918252838101850191858101908b84111561162557600080fd5b86860192505b83831015611661578235858111156116435760008081fd5b6116518d89838a0101611531565b835250918601919086019061162b565b9750505050604087013592508083111561167a57600080fd5b505061168886828701611531565b9150509250925092565b6000602082840312156116a457600080fd5b5035919050565b6000602082840312156116bd57600080fd5b81356001600160a01b03811681146116d457600080fd5b9392505050565b803567ffffffffffffffff811681146116f357600080fd5b919050565b803563ffffffff811681146116f357600080fd5b60008060006060848603121561172157600080fd5b83359250602084013567ffffffffffffffff8082111561174057600080fd5b90850190610160828803121561175557600080fd5b61175d6114d6565b82358281111561176c57600080fd5b61177889828601611531565b82525060208301358281111561178d57600080fd5b61179989828601611531565b6020830152506040830135828111156117b157600080fd5b6117bd89828601611531565b6040830152506060830135828111156117d557600080fd5b6117e189828601611531565b6060830152506117f3608084016116db565b608082015260a08301358281111561180a57600080fd5b61181689828601611531565b60a08301525060c08301358281111561182e57600080fd5b61183a89828601611531565b60c08301525060e08301358281111561185257600080fd5b61185e89828601611531565b60e0830152506101006118728185016116f8565b908201526101206118848482016116f8565b908201526101406118968482016116f8565b90820152935060408601359150808211156118b057600080fd5b5061168886828701611531565b6000806000606084860312156118d257600080fd5b83359250602084013567ffffffffffffffff808211156118f157600080fd5b6118fd87838801611531565b935060408601359150808211156118b057600080fd5b60005b8381101561192e578181015183820152602001611916565b50506000910152565b6000815180845261194f816020860160208601611913565b601f01601f19169290920160200192915050565b6020815260006116d46020830184611937565b60006020828403121561198857600080fd5b813567ffffffffffffffff81111561199f57600080fd5b6119ab84828501611531565b949350505050565b600080604083850312156119c657600080fd5b823567ffffffffffffffff8111156119dd57600080fd5b6119e985828601611531565b925050602083013560ff81168114611a0057600080fd5b809150509250929050565b600060208083016020845280855180835260408601915060408160051b87010192506020870160005b82811015611a6257603f19888603018452611a50858351611937565b94509285019290850190600101611a34565b5092979650505050505050565b60208082526014908201527343616c6c6572206973206e6f74206f7261636c6560601b604082015260600190565b634e487b7160e01b600052601160045260246000fd5b8181038181111561118957611189611a9d565b634e487b7160e01b600052603260045260246000fd5b600181811c90821680611af057607f821691505b602082108103611b1057634e487b7160e01b600052602260045260246000fd5b50919050565b6000808354611b2481611adc565b60018281168015611b3c5760018114611b5157611b80565b60ff1984168752821515830287019450611b80565b8760005260208060002060005b85811015611b775781548a820152908401908201611b5e565b50505082870194505b50929695505050505050565b60008251611b9e818460208701611913565b7305052932b632bb30b73a1031b7b73a32bc3a1d0560611b920191825250601401919050565b60008351611bd6818460208801611913565b835190830190611bea818360208801611913565b600560f91b9101908152600101949350505050565b601f821115610b1a576000816000526020600020601f850160051c81016020861015611c285750805b601f850160051c820191505b81811015611c4757828155600101611c34565b505050505050565b815167ffffffffffffffff811115611c6957611c696114c0565b611c7d81611c778454611adc565b84611bff565b602080601f831160018114611cb25760008415611c9a5750858301515b600019600386901b1c1916600185901b178555611c47565b600085815260208120601f198616915b82811015611ce157888601518255948401946001909101908401611cc2565b5085821015611cff5787850151600019600388901b60f8161c191681555b5050505050600190811b01905550565b60008154611d1c81611adc565b808552602060018381168015611d395760018114611d5357611d81565b60ff1985168884015283151560051b880183019550611d81565b866000528260002060005b85811015611d795781548a8201860152908301908401611d5e565b890184019650505b505050505092915050565b8281526040602082015260006101a0806040840152611daf6101e0840185611d0f565b600185015460000b6060850152603f1984820381016080860152611dd68260028801611d0f565b600387015463ffffffff811660a088015260201c60000b60c0870152858103820160e08701529150611e0b8260048801611d0f565b915060058601546101008601528085830301610120860152611e308260068801611d0f565b9150600786015461014086015260088601546101608601528085830301610180860152611e608260098801611d0f565b9150808583030183860152611e7882600a8801611d0f565b925080858403016101c08601525050611e9481600b8601611d0f565b95945050505050565b600060208284031215611eaf57600080fd5b5051919050565b600060018201611ec857611ec8611a9d565b5060010190565b838152606060208201526000611ee86060830185611937565b8281036040840152611efa8185611937565b9695505050505050565b60008251611f16818460208701611913565b9190910192915050565b8082018082111561118957611189611a9d565b848152608060208201526000611f4c6080830186611d0f565b8281036040840152611f5e8186611937565b91505063ffffffff831660608301529594505050505056fe506c656173652067656e6572617465206120636f766572206c6574746572206261736564206f6e207468652070726f7669646564206a6f62206465736372697074696f6e2e2054686520636f766572206c65747465722073686f756c6420686967686c69676874206d7920737569746162696c69747920666f722074686520706f736974696f6e2c20656d70686173697a696e67206d792072656c6576616e7420736b696c6c7320616e6420657870657269656e6365732e20496e636c756465206120636f6d70656c6c696e6720696e74726f64756374696f6e2c2064657461696c656420626f64792070617261677261706873207468617420616c69676e206d79207175616c696669636174696f6e73207769746820746865206a6f6220726571756972656d656e74732c20616e642061207374726f6e6720636f6e636c7573696f6e2077697468206120636c6561722063616c6c20746f20616374696f6e2e2049742073686f756c6420696e636c756465206e6563657373617279207461677320746f206d616b652074686520646973706c61792061707065616c696e6720617320612070726f66657373696f6e616c20504446206f7220444f43582066696c652e506c6561736520616e616c797a652074686520646966666572656e636573206265747765656e2074686520696e697469616c20726573756d6520616e6420746865206e65776c792067656e657261746564207461696c6f72656420726573756d652e2050726f7669646520612070657263656e7461676520696e6469636174696e6720686f772077656c6c20746865206e657720726573756d65206d61746368657320746865206a6f62206465736372697074696f6e2c20686967686c69676874696e67207370656369666963206368616e67657320616e6420696d70726f76656d656e74732e20416c736f2c207772697465206f757420746865204154532d667269656e646c79207072616374696365732074686174207765726520666f6c6c6f77656420696e20746865206e657720726573756d652e20496e636c756465206e6563657373617279207461677320696e2061206c697374656420666f726d617420746f20656e7375726520746865206f7574707574206973207375697461626c6520666f722070726f66657373696f6e616c20504446206f7220444f43582070726573656e746174696f6e2ea2646970667358221220ba2960b18878c2a288b6c332ab48923177398c638c9fb9f0e85763b9b8610aaa64736f6c634300081800335b7b2274797065223a2266756e6374696f6e222c2266756e6374696f6e223a7b226e616d65223a227765625f736561726368222c226465736372697074696f6e223a225365617263682074686520696e7465726e6574222c22706172616d6574657273223a7b2274797065223a226f626a656374222c2270726f70657274696573223a7b227175657279223a7b2274797065223a22737472696e67222c226465736372697074696f6e223a22536561726368207175657279227d7d2c227265717569726564223a5b227175657279225d7d7d7d2c7b2274797065223a2266756e6374696f6e222c2266756e6374696f6e223a7b226e616d65223a22696d6167655f67656e65726174696f6e222c226465736372697074696f6e223a2247656e65726174657320616e20696d616765207573696e672044616c6c652d32222c22706172616d6574657273223a7b2274797065223a226f626a656374222c2270726f70657274696573223a7b2270726f6d7074223a7b2274797065223a22737472696e67222c226465736372697074696f6e223a2244616c6c652d322070726f6d707420746f2067656e657261746520616e20696d616765227d7d2c227265717569726564223a5b2270726f6d7074225d7d7d7d5d","opcodes":"PUSH1 0x80 PUSH1 0x40 MSTORE CALLVALUE DUP1 ISZERO PUSH3 0x11 JUMPI PUSH1 0x0 DUP1 REVERT JUMPDEST POP PUSH1 0x40 MLOAD PUSH3 0x2A19 CODESIZE SUB DUP1 PUSH3 0x2A19 DUP4 CODECOPY DUP2 ADD PUSH1 0x40 DUP2 SWAP1 MSTORE PUSH3 0x34 SWAP2 PUSH3 0x2C5 JUMP JUMPDEST PUSH1 0x4 DUP1 SLOAD CALLER PUSH1 0x1 PUSH1 0x1 PUSH1 0xA0 SHL SUB NOT SWAP2 DUP3 AND OR SWAP1 SWAP2 SSTORE PUSH1 0x5 DUP1 SLOAD SWAP1 SWAP2 AND PUSH1 0x1 PUSH1 0x1 PUSH1 0xA0 SHL SUB DUP5 AND OR SWAP1 SSTORE PUSH1 0x0 PUSH3 0x6B DUP3 DUP3 PUSH3 0x44C JUMP JUMPDEST POP PUSH1 0x40 MLOAD DUP1 PUSH2 0x1A0 ADD PUSH1 0x40 MSTORE DUP1 PUSH1 0x40 MLOAD DUP1 PUSH1 0x40 ADD PUSH1 0x40 MSTORE DUP1 PUSH1 0x13 DUP2 MSTORE PUSH1 0x20 ADD PUSH32 0x6770742D342D747572626F2D7072657669657700000000000000000000000000 DUP2 MSTORE POP DUP2 MSTORE PUSH1 0x20 ADD PUSH1 0x15 PUSH1 0x0 SIGNEXTEND DUP2 MSTORE PUSH1 0x20 ADD PUSH1 0x40 MLOAD DUP1 PUSH1 0x20 ADD PUSH1 0x40 MSTORE DUP1 PUSH1 0x0 DUP2 MSTORE POP DUP2 MSTORE PUSH1 0x20 ADD PUSH2 0x3E8 PUSH4 0xFFFFFFFF AND DUP2 MSTORE PUSH1 0x20 ADD PUSH1 0x15 PUSH1 0x0 SIGNEXTEND DUP2 MSTORE PUSH1 0x20 ADD PUSH1 0x40 MLOAD DUP1 PUSH1 0x40 ADD PUSH1 0x40 MSTORE DUP1 PUSH1 0xF DUP2 MSTORE PUSH1 0x20 ADD PUSH15 0x7B2274797065223A2274657874227D PUSH1 0x88 SHL DUP2 MSTORE POP DUP2 MSTORE PUSH1 0x20 ADD PUSH1 0x0 DUP2 MSTORE PUSH1 0x20 ADD PUSH1 0x40 MLOAD DUP1 PUSH1 0x20 ADD PUSH1 0x40 MSTORE DUP1 PUSH1 0x0 DUP2 MSTORE POP DUP2 MSTORE PUSH1 0x20 ADD PUSH1 0xA DUP2 MSTORE PUSH1 0x20 ADD PUSH1 0x65 DUP2 MSTORE PUSH1 0x20 ADD PUSH1 0x40 MLOAD DUP1 PUSH2 0x200 ADD PUSH1 0x40 MSTORE DUP1 PUSH2 0x1D3 DUP2 MSTORE PUSH1 0x20 ADD PUSH3 0x2846 PUSH2 0x1D3 SWAP2 CODECOPY DUP2 MSTORE PUSH1 0x40 DUP1 MLOAD DUP1 DUP3 ADD DUP3 MSTORE PUSH1 0x4 DUP2 MSTORE PUSH4 0x6175746F PUSH1 0xE0 SHL PUSH1 0x20 DUP3 DUP2 ADD SWAP2 SWAP1 SWAP2 MSTORE DUP1 DUP5 ADD SWAP2 SWAP1 SWAP2 MSTORE DUP2 MLOAD SWAP1 DUP2 ADD DUP3 MSTORE PUSH1 0x0 DUP2 MSTORE SWAP2 ADD MSTORE DUP1 MLOAD PUSH1 0x6 SWAP1 DUP2 SWAP1 PUSH3 0x1A6 SWAP1 DUP3 PUSH3 0x44C JUMP JUMPDEST POP PUSH1 0x20 DUP3 ADD MLOAD PUSH1 0x1 DUP3 ADD DUP1 SLOAD PUSH1 0xFF NOT AND PUSH1 0xFF SWAP1 SWAP3 AND SWAP2 SWAP1 SWAP2 OR SWAP1 SSTORE PUSH1 0x40 DUP3 ADD MLOAD PUSH1 0x2 DUP3 ADD SWAP1 PUSH3 0x1D7 SWAP1 DUP3 PUSH3 0x44C JUMP JUMPDEST POP PUSH1 0x60 DUP3 ADD MLOAD PUSH1 0x3 DUP3 ADD DUP1 SLOAD PUSH1 0x80 DUP6 ADD MLOAD PUSH1 0xFF AND PUSH5 0x100000000 MUL PUSH5 0xFFFFFFFFFF NOT SWAP1 SWAP2 AND PUSH4 0xFFFFFFFF SWAP1 SWAP4 AND SWAP3 SWAP1 SWAP3 OR SWAP2 SWAP1 SWAP2 OR SWAP1 SSTORE PUSH1 0xA0 DUP3 ADD MLOAD PUSH1 0x4 DUP3 ADD SWAP1 PUSH3 0x224 SWAP1 DUP3 PUSH3 0x44C JUMP JUMPDEST POP PUSH1 0xC0 DUP3 ADD MLOAD PUSH1 0x5 DUP3 ADD SSTORE PUSH1 0xE0 DUP3 ADD MLOAD PUSH1 0x6 DUP3 ADD SWAP1 PUSH3 0x245 SWAP1 DUP3 PUSH3 0x44C JUMP JUMPDEST POP PUSH2 0x100 DUP3 ADD MLOAD PUSH1 0x7 DUP3 ADD SSTORE PUSH2 0x120 DUP3 ADD MLOAD PUSH1 0x8 DUP3 ADD SSTORE PUSH2 0x140 DUP3 ADD MLOAD PUSH1 0x9 DUP3 ADD SWAP1 PUSH3 0x273 SWAP1 DUP3 PUSH3 0x44C JUMP JUMPDEST POP PUSH2 0x160 DUP3 ADD MLOAD PUSH1 0xA DUP3 ADD SWAP1 PUSH3 0x28B SWAP1 DUP3 PUSH3 0x44C JUMP JUMPDEST POP PUSH2 0x180 DUP3 ADD MLOAD PUSH1 0xB DUP3 ADD SWAP1 PUSH3 0x2A3 SWAP1 DUP3 PUSH3 0x44C JUMP JUMPDEST POP SWAP1 POP POP POP POP PUSH3 0x518 JUMP JUMPDEST PUSH4 0x4E487B71 PUSH1 0xE0 SHL PUSH1 0x0 MSTORE PUSH1 0x41 PUSH1 0x4 MSTORE PUSH1 0x24 PUSH1 0x0 REVERT JUMPDEST PUSH1 0x0 DUP1 PUSH1 0x40 DUP4 DUP6 SUB SLT ISZERO PUSH3 0x2D9 JUMPI PUSH1 0x0 DUP1 REVERT JUMPDEST DUP3 MLOAD PUSH1 0x1 PUSH1 0x1 PUSH1 0xA0 SHL SUB DUP2 AND DUP2 EQ PUSH3 0x2F1 JUMPI PUSH1 0x0 DUP1 REVERT JUMPDEST PUSH1 0x20 DUP5 DUP2 ADD MLOAD SWAP2 SWAP4 POP SWAP1 PUSH1 0x1 PUSH1 0x1 PUSH1 0x40 SHL SUB DUP1 DUP3 GT ISZERO PUSH3 0x311 JUMPI PUSH1 0x0 DUP1 REVERT JUMPDEST DUP2 DUP7 ADD SWAP2 POP DUP7 PUSH1 0x1F DUP4 ADD SLT PUSH3 0x326 JUMPI PUSH1 0x0 DUP1 REVERT JUMPDEST DUP2 MLOAD DUP2 DUP2 GT ISZERO PUSH3 0x33B JUMPI PUSH3 0x33B PUSH3 0x2AF JUMP JUMPDEST PUSH1 0x40 MLOAD PUSH1 0x1F DUP3 ADD PUSH1 0x1F NOT SWAP1 DUP2 AND PUSH1 0x3F ADD AND DUP2 ADD SWAP1 DUP4 DUP3 GT DUP2 DUP4 LT OR ISZERO PUSH3 0x366 JUMPI PUSH3 0x366 PUSH3 0x2AF JUMP JUMPDEST DUP2 PUSH1 0x40 MSTORE DUP3 DUP2 MSTORE DUP10 DUP7 DUP5 DUP8 ADD ADD GT ISZERO PUSH3 0x37F JUMPI PUSH1 0x0 DUP1 REVERT JUMPDEST PUSH1 0x0 SWAP4 POP JUMPDEST DUP3 DUP5 LT ISZERO PUSH3 0x3A3 JUMPI DUP5 DUP5 ADD DUP7 ADD MLOAD DUP2 DUP6 ADD DUP8 ADD MSTORE SWAP3 DUP6 ADD SWAP3 PUSH3 0x384 JUMP JUMPDEST PUSH1 0x0 DUP7 DUP5 DUP4 ADD ADD MSTORE DUP1 SWAP7 POP POP POP POP POP POP POP SWAP3 POP SWAP3 SWAP1 POP JUMP JUMPDEST PUSH1 0x1 DUP2 DUP2 SHR SWAP1 DUP3 AND DUP1 PUSH3 0x3D0 JUMPI PUSH1 0x7F DUP3 AND SWAP2 POP JUMPDEST PUSH1 0x20 DUP3 LT DUP2 SUB PUSH3 0x3F1 JUMPI PUSH4 0x4E487B71 PUSH1 0xE0 SHL PUSH1 0x0 MSTORE PUSH1 0x22 PUSH1 0x4 MSTORE PUSH1 0x24 PUSH1 0x0 REVERT JUMPDEST POP SWAP2 SWAP1 POP JUMP JUMPDEST PUSH1 0x1F DUP3 GT ISZERO PUSH3 0x447 JUMPI PUSH1 0x0 DUP2 PUSH1 0x0 MSTORE PUSH1 0x20 PUSH1 0x0 KECCAK256 PUSH1 0x1F DUP6 ADD PUSH1 0x5 SHR DUP2 ADD PUSH1 0x20 DUP7 LT ISZERO PUSH3 0x422 JUMPI POP DUP1 JUMPDEST PUSH1 0x1F DUP6 ADD PUSH1 0x5 SHR DUP3 ADD SWAP2 POP JUMPDEST DUP2 DUP2 LT ISZERO PUSH3 0x443 JUMPI DUP3 DUP2 SSTORE PUSH1 0x1 ADD PUSH3 0x42E JUMP JUMPDEST POP POP POP JUMPDEST POP POP POP JUMP JUMPDEST DUP2 MLOAD PUSH1 0x1 PUSH1 0x1 PUSH1 0x40 SHL SUB DUP2 GT ISZERO PUSH3 0x468 JUMPI PUSH3 0x468 PUSH3 0x2AF JUMP JUMPDEST PUSH3 0x480 DUP2 PUSH3 0x479 DUP5 SLOAD PUSH3 0x3BB JUMP JUMPDEST DUP5 PUSH3 0x3F7 JUMP JUMPDEST PUSH1 0x20 DUP1 PUSH1 0x1F DUP4 GT PUSH1 0x1 DUP2 EQ PUSH3 0x4B8 JUMPI PUSH1 0x0 DUP5 ISZERO PUSH3 0x49F JUMPI POP DUP6 DUP4 ADD MLOAD JUMPDEST PUSH1 0x0 NOT PUSH1 0x3 DUP7 SWAP1 SHL SHR NOT AND PUSH1 0x1 DUP6 SWAP1 SHL OR DUP6 SSTORE PUSH3 0x443 JUMP JUMPDEST PUSH1 0x0 DUP6 DUP2 MSTORE PUSH1 0x20 DUP2 KECCAK256 PUSH1 0x1F NOT DUP7 AND SWAP2 JUMPDEST DUP3 DUP2 LT ISZERO PUSH3 0x4E9 JUMPI DUP9 DUP7 ADD MLOAD DUP3 SSTORE SWAP5 DUP5 ADD SWAP5 PUSH1 0x1 SWAP1 SWAP2 ADD SWAP1 DUP5 ADD PUSH3 0x4C8 JUMP JUMPDEST POP DUP6 DUP3 LT ISZERO PUSH3 0x508 JUMPI DUP8 DUP6 ADD MLOAD PUSH1 0x0 NOT PUSH1 0x3 DUP9 SWAP1 SHL PUSH1 0xF8 AND SHR NOT AND DUP2 SSTORE JUMPDEST POP POP POP POP POP PUSH1 0x1 SWAP1 DUP2 SHL ADD SWAP1 SSTORE POP JUMP JUMPDEST PUSH2 0x231E DUP1 PUSH3 0x528 PUSH1 0x0 CODECOPY PUSH1 0x0 RETURN INVALID PUSH1 0x80 PUSH1 0x40 MSTORE CALLVALUE DUP1 ISZERO PUSH2 0x10 JUMPI PUSH1 0x0 DUP1 REVERT JUMPDEST POP PUSH1 0x4 CALLDATASIZE LT PUSH2 0xCF JUMPI PUSH1 0x0 CALLDATALOAD PUSH1 0xE0 SHR DUP1 PUSH4 0xA89AE4BA GT PUSH2 0x8C JUMPI DUP1 PUSH4 0xDAEC051F GT PUSH2 0x66 JUMPI DUP1 PUSH4 0xDAEC051F EQ PUSH2 0x23E JUMPI DUP1 PUSH4 0xEB17429A EQ PUSH2 0x25F JUMPI DUP1 PUSH4 0xED6E39E5 EQ PUSH2 0x27F JUMPI DUP1 PUSH4 0xF997CC25 EQ PUSH2 0x292 JUMPI PUSH1 0x0 DUP1 REVERT JUMPDEST DUP1 PUSH4 0xA89AE4BA EQ PUSH2 0x177 JUMPI DUP1 PUSH4 0xC63B0295 EQ PUSH2 0x1A2 JUMPI DUP1 PUSH4 0xCCAC7A91 EQ PUSH2 0x22B JUMPI PUSH1 0x0 DUP1 REVERT JUMPDEST DUP1 PUSH4 0x2843D135 EQ PUSH2 0xD4 JUMPI DUP1 PUSH4 0x2EAB9C81 EQ PUSH2 0xE9 JUMPI DUP1 PUSH4 0x4C69C00F EQ PUSH2 0x129 JUMPI DUP1 PUSH4 0x4CECD88E EQ PUSH2 0x13C JUMPI DUP1 PUSH4 0x7397454D EQ PUSH2 0x14F JUMPI DUP1 PUSH4 0x7C65D711 EQ PUSH2 0x162 JUMPI JUMPDEST PUSH1 0x0 DUP1 REVERT JUMPDEST PUSH2 0xE7 PUSH2 0xE2 CALLDATASIZE PUSH1 0x4 PUSH2 0x15A1 JUMP JUMPDEST PUSH2 0x29A JUMP JUMPDEST STOP JUMPDEST PUSH2 0x114 PUSH2 0xF7 CALLDATASIZE PUSH1 0x4 PUSH2 0x1692 JUMP JUMPDEST PUSH1 0x0 SWAP1 DUP2 MSTORE PUSH1 0x2 PUSH1 0x20 MSTORE PUSH1 0x40 SWAP1 KECCAK256 PUSH1 0x3 ADD SLOAD PUSH2 0x100 SWAP1 DIV PUSH1 0xFF AND SWAP1 JUMP JUMPDEST PUSH1 0x40 MLOAD SWAP1 ISZERO ISZERO DUP2 MSTORE PUSH1 0x20 ADD JUMPDEST PUSH1 0x40 MLOAD DUP1 SWAP2 SUB SWAP1 RETURN JUMPDEST PUSH2 0xE7 PUSH2 0x137 CALLDATASIZE PUSH1 0x4 PUSH2 0x16AB JUMP JUMPDEST PUSH2 0x5C2 JUMP JUMPDEST PUSH2 0xE7 PUSH2 0x14A CALLDATASIZE PUSH1 0x4 PUSH2 0x170C JUMP JUMPDEST PUSH2 0x6B6 JUMP JUMPDEST PUSH2 0xE7 PUSH2 0x15D CALLDATASIZE PUSH1 0x4 PUSH2 0x18BD JUMP JUMPDEST PUSH2 0xB1F JUMP JUMPDEST PUSH2 0x16A PUSH2 0xC8E JUMP JUMPDEST PUSH1 0x40 MLOAD PUSH2 0x120 SWAP2 SWAP1 PUSH2 0x1963 JUMP JUMPDEST PUSH1 0x5 SLOAD PUSH2 0x18A SWAP1 PUSH1 0x1 PUSH1 0x1 PUSH1 0xA0 SHL SUB AND DUP2 JUMP JUMPDEST PUSH1 0x40 MLOAD PUSH1 0x1 PUSH1 0x1 PUSH1 0xA0 SHL SUB SWAP1 SWAP2 AND DUP2 MSTORE PUSH1 0x20 ADD PUSH2 0x120 JUMP JUMPDEST PUSH2 0x1F1 PUSH2 0x1B0 CALLDATASIZE PUSH1 0x4 PUSH2 0x1692 JUMP JUMPDEST PUSH1 0x2 PUSH1 0x20 DUP2 SWAP1 MSTORE PUSH1 0x0 SWAP2 DUP3 MSTORE PUSH1 0x40 SWAP1 SWAP2 KECCAK256 DUP1 SLOAD SWAP2 DUP2 ADD SLOAD PUSH1 0x3 DUP3 ADD SLOAD PUSH1 0x4 SWAP1 SWAP3 ADD SLOAD PUSH1 0x1 PUSH1 0x1 PUSH1 0xA0 SHL SUB SWAP1 SWAP4 AND SWAP3 SWAP1 SWAP2 PUSH1 0xFF DUP1 DUP3 AND SWAP3 PUSH2 0x100 SWAP1 SWAP3 DIV AND SWAP1 DUP6 JUMP JUMPDEST PUSH1 0x40 DUP1 MLOAD PUSH1 0x1 PUSH1 0x1 PUSH1 0xA0 SHL SUB SWAP1 SWAP7 AND DUP7 MSTORE PUSH1 0x20 DUP7 ADD SWAP5 SWAP1 SWAP5 MSTORE PUSH1 0xFF SWAP1 SWAP3 AND SWAP3 DUP5 ADD SWAP3 SWAP1 SWAP3 MSTORE SWAP1 ISZERO ISZERO PUSH1 0x60 DUP4 ADD MSTORE PUSH1 0x80 DUP3 ADD MSTORE PUSH1 0xA0 ADD PUSH2 0x120 JUMP JUMPDEST PUSH2 0xE7 PUSH2 0x239 CALLDATASIZE PUSH1 0x4 PUSH2 0x1976 JUMP JUMPDEST PUSH2 0xD1C JUMP JUMPDEST PUSH2 0x251 PUSH2 0x24C CALLDATASIZE PUSH1 0x4 PUSH2 0x19B3 JUMP JUMPDEST PUSH2 0xE01 JUMP JUMPDEST PUSH1 0x40 MLOAD SWAP1 DUP2 MSTORE PUSH1 0x20 ADD PUSH2 0x120 JUMP JUMPDEST PUSH2 0x272 PUSH2 0x26D CALLDATASIZE PUSH1 0x4 PUSH2 0x1692 JUMP JUMPDEST PUSH2 0x118F JUMP JUMPDEST PUSH1 0x40 MLOAD PUSH2 0x120 SWAP2 SWAP1 PUSH2 0x1A0B JUMP JUMPDEST PUSH2 0x272 PUSH2 0x28D CALLDATASIZE PUSH1 0x4 PUSH2 0x1692 JUMP JUMPDEST PUSH2 0x12F8 JUMP JUMPDEST PUSH2 0x16A PUSH2 0x145A JUMP JUMPDEST PUSH1 0x5 SLOAD PUSH1 0x1 PUSH1 0x1 PUSH1 0xA0 SHL SUB AND CALLER EQ PUSH2 0x2CD JUMPI PUSH1 0x40 MLOAD PUSH3 0x461BCD PUSH1 0xE5 SHL DUP2 MSTORE PUSH1 0x4 ADD PUSH2 0x2C4 SWAP1 PUSH2 0x1A6F JUMP JUMPDEST PUSH1 0x40 MLOAD DUP1 SWAP2 SUB SWAP1 REVERT JUMPDEST PUSH1 0x0 DUP4 DUP2 MSTORE PUSH1 0x2 PUSH1 0x20 SWAP1 DUP2 MSTORE PUSH1 0x40 SWAP2 DUP3 SWAP1 KECCAK256 SWAP2 MLOAD PUSH2 0x2F6 SWAP2 ADD PUSH4 0x3AB9B2B9 PUSH1 0xE1 SHL DUP2 MSTORE PUSH1 0x4 ADD SWAP1 JUMP JUMPDEST PUSH1 0x40 MLOAD PUSH1 0x20 DUP2 DUP4 SUB SUB DUP2 MSTORE SWAP1 PUSH1 0x40 MSTORE DUP1 MLOAD SWAP1 PUSH1 0x20 ADD KECCAK256 DUP2 PUSH1 0x1 ADD PUSH1 0x1 DUP4 PUSH1 0x4 ADD SLOAD PUSH2 0x321 SWAP2 SWAP1 PUSH2 0x1AB3 JUMP JUMPDEST DUP2 SLOAD DUP2 LT PUSH2 0x331 JUMPI PUSH2 0x331 PUSH2 0x1AC6 JUMP JUMPDEST SWAP1 PUSH1 0x0 MSTORE PUSH1 0x20 PUSH1 0x0 KECCAK256 SWAP1 PUSH1 0x2 MUL ADD PUSH1 0x0 ADD PUSH1 0x40 MLOAD PUSH1 0x20 ADD PUSH2 0x352 SWAP2 SWAP1 PUSH2 0x1B16 JUMP JUMPDEST PUSH1 0x40 MLOAD PUSH1 0x20 DUP2 DUP4 SUB SUB DUP2 MSTORE SWAP1 PUSH1 0x40 MSTORE DUP1 MLOAD SWAP1 PUSH1 0x20 ADD KECCAK256 EQ PUSH2 0x3B5 JUMPI PUSH1 0x40 MLOAD PUSH3 0x461BCD PUSH1 0xE5 SHL DUP2 MSTORE PUSH1 0x20 PUSH1 0x4 DUP3 ADD MSTORE PUSH1 0x1C PUSH1 0x24 DUP3 ADD MSTORE PUSH32 0x4E6F206D65737361676520746F2061646420636F6E7465787420746F00000000 PUSH1 0x44 DUP3 ADD MSTORE PUSH1 0x64 ADD PUSH2 0x2C4 JUMP JUMPDEST PUSH1 0x0 DUP2 PUSH1 0x1 ADD PUSH1 0x1 DUP4 PUSH1 0x4 ADD SLOAD PUSH2 0x3CC SWAP2 SWAP1 PUSH2 0x1AB3 JUMP JUMPDEST DUP2 SLOAD DUP2 LT PUSH2 0x3DC JUMPI PUSH2 0x3DC PUSH2 0x1AC6 JUMP JUMPDEST SWAP1 PUSH1 0x0 MSTORE PUSH1 0x20 PUSH1 0x0 KECCAK256 SWAP1 PUSH1 0x2 MUL ADD SWAP1 POP PUSH1 0x0 DUP2 PUSH1 0x1 ADD DUP1 SLOAD PUSH2 0x3FD SWAP1 PUSH2 0x1ADC JUMP JUMPDEST DUP1 PUSH1 0x1F ADD PUSH1 0x20 DUP1 SWAP2 DIV MUL PUSH1 0x20 ADD PUSH1 0x40 MLOAD SWAP1 DUP2 ADD PUSH1 0x40 MSTORE DUP1 SWAP3 SWAP2 SWAP1 DUP2 DUP2 MSTORE PUSH1 0x20 ADD DUP3 DUP1 SLOAD PUSH2 0x429 SWAP1 PUSH2 0x1ADC JUMP JUMPDEST DUP1 ISZERO PUSH2 0x476 JUMPI DUP1 PUSH1 0x1F LT PUSH2 0x44B JUMPI PUSH2 0x100 DUP1 DUP4 SLOAD DIV MUL DUP4 MSTORE SWAP2 PUSH1 0x20 ADD SWAP2 PUSH2 0x476 JUMP JUMPDEST DUP3 ADD SWAP2 SWAP1 PUSH1 0x0 MSTORE PUSH1 0x20 PUSH1 0x0 KECCAK256 SWAP1 JUMPDEST DUP2 SLOAD DUP2 MSTORE SWAP1 PUSH1 0x1 ADD SWAP1 PUSH1 0x20 ADD DUP1 DUP4 GT PUSH2 0x459 JUMPI DUP3 SWAP1 SUB PUSH1 0x1F AND DUP3 ADD SWAP2 JUMPDEST POP POP POP POP POP SWAP1 POP PUSH1 0x0 DUP6 MLOAD GT ISZERO PUSH2 0x4AA JUMPI DUP1 PUSH1 0x40 MLOAD PUSH1 0x20 ADD PUSH2 0x498 SWAP2 SWAP1 PUSH2 0x1B8C JUMP JUMPDEST PUSH1 0x40 MLOAD PUSH1 0x20 DUP2 DUP4 SUB SUB DUP2 MSTORE SWAP1 PUSH1 0x40 MSTORE SWAP1 POP JUMPDEST PUSH1 0x0 JUMPDEST DUP6 MLOAD DUP2 LT ISZERO PUSH2 0x4FC JUMPI DUP2 DUP7 DUP3 DUP2 MLOAD DUP2 LT PUSH2 0x4C9 JUMPI PUSH2 0x4C9 PUSH2 0x1AC6 JUMP JUMPDEST PUSH1 0x20 MUL PUSH1 0x20 ADD ADD MLOAD PUSH1 0x40 MLOAD PUSH1 0x20 ADD PUSH2 0x4E2 SWAP3 SWAP2 SWAP1 PUSH2 0x1BC4 JUMP JUMPDEST PUSH1 0x40 DUP1 MLOAD PUSH1 0x1F NOT DUP2 DUP5 SUB ADD DUP2 MSTORE SWAP2 SWAP1 MSTORE SWAP2 POP PUSH1 0x1 ADD PUSH2 0x4AD JUMP JUMPDEST POP PUSH1 0x1 DUP3 ADD PUSH2 0x50B DUP3 DUP3 PUSH2 0x1C4F JUMP JUMPDEST POP PUSH1 0x5 SLOAD PUSH1 0x40 MLOAD PUSH4 0x3C38A5F5 PUSH1 0xE0 SHL DUP2 MSTORE PUSH1 0x1 PUSH1 0x1 PUSH1 0xA0 SHL SUB SWAP1 SWAP2 AND SWAP1 PUSH4 0x3C38A5F5 SWAP1 PUSH2 0x53F SWAP1 DUP10 SWAP1 PUSH1 0x6 SWAP1 PUSH1 0x4 ADD PUSH2 0x1D8C JUMP JUMPDEST PUSH1 0x20 PUSH1 0x40 MLOAD DUP1 DUP4 SUB DUP2 PUSH1 0x0 DUP8 GAS CALL ISZERO DUP1 ISZERO PUSH2 0x55E JUMPI RETURNDATASIZE PUSH1 0x0 DUP1 RETURNDATACOPY RETURNDATASIZE PUSH1 0x0 REVERT JUMPDEST POP POP POP POP PUSH1 0x40 MLOAD RETURNDATASIZE PUSH1 0x1F NOT PUSH1 0x1F DUP3 ADD AND DUP3 ADD DUP1 PUSH1 0x40 MSTORE POP DUP2 ADD SWAP1 PUSH2 0x582 SWAP2 SWAP1 PUSH2 0x1E9D JUMP JUMPDEST POP DUP3 SLOAD PUSH1 0x40 MLOAD DUP8 SWAP2 PUSH1 0x1 PUSH1 0x1 PUSH1 0xA0 SHL SUB AND SWAP1 PUSH32 0x9697C88A6BE3B3ED5062F2DCBD719A10914832320686F14E24F7756210A6685E SWAP1 PUSH1 0x0 SWAP1 LOG3 POP POP POP POP POP POP JUMP JUMPDEST PUSH1 0x4 SLOAD PUSH1 0x1 PUSH1 0x1 PUSH1 0xA0 SHL SUB AND CALLER EQ PUSH2 0x612 JUMPI PUSH1 0x40 MLOAD PUSH3 0x461BCD PUSH1 0xE5 SHL DUP2 MSTORE PUSH1 0x20 PUSH1 0x4 DUP3 ADD MSTORE PUSH1 0x13 PUSH1 0x24 DUP3 ADD MSTORE PUSH19 0x21B0B63632B91034B9903737BA1037BBB732B9 PUSH1 0x69 SHL PUSH1 0x44 DUP3 ADD MSTORE PUSH1 0x64 ADD PUSH2 0x2C4 JUMP JUMPDEST PUSH1 0x4 SLOAD PUSH1 0x1 PUSH1 0x1 PUSH1 0xA0 SHL SUB AND CALLER EQ PUSH2 0x66C JUMPI PUSH1 0x40 MLOAD PUSH3 0x461BCD PUSH1 0xE5 SHL DUP2 MSTORE PUSH1 0x20 PUSH1 0x4 DUP3 ADD MSTORE PUSH1 0x17 PUSH1 0x24 DUP3 ADD MSTORE PUSH32 0x43616C6C6572206973206E6F7420746865206F776E6572000000000000000000 PUSH1 0x44 DUP3 ADD MSTORE PUSH1 0x64 ADD PUSH2 0x2C4 JUMP JUMPDEST PUSH1 0x5 DUP1 SLOAD PUSH1 0x1 PUSH1 0x1 PUSH1 0xA0 SHL SUB NOT AND PUSH1 0x1 PUSH1 0x1 PUSH1 0xA0 SHL SUB DUP4 AND SWAP1 DUP2 OR SWAP1 SWAP2 SSTORE PUSH1 0x40 MLOAD PUSH32 0x107A9FAFFFB7AC890F780879E423760C9FFEA8DCEE8045681F40F542AEDE2CB8 SWAP1 PUSH1 0x0 SWAP1 LOG2 POP JUMP JUMPDEST PUSH1 0x5 SLOAD PUSH1 0x1 PUSH1 0x1 PUSH1 0xA0 SHL SUB AND CALLER EQ PUSH2 0x6E0 JUMPI PUSH1 0x40 MLOAD PUSH3 0x461BCD PUSH1 0xE5 SHL DUP2 MSTORE PUSH1 0x4 ADD PUSH2 0x2C4 SWAP1 PUSH2 0x1A6F JUMP JUMPDEST PUSH1 0x0 DUP4 DUP2 MSTORE PUSH1 0x2 PUSH1 0x20 SWAP1 DUP2 MSTORE PUSH1 0x40 DUP1 DUP4 KECCAK256 DUP2 MLOAD SWAP3 DUP4 ADD SWAP1 SWAP2 MSTORE SWAP2 DUP2 MSTORE PUSH2 0x707 SWAP1 DUP4 SWAP1 PUSH2 0x1467 JUMP JUMPDEST PUSH2 0x7B9 JUMPI PUSH1 0x40 DUP1 MLOAD DUP1 DUP3 ADD DUP3 MSTORE PUSH1 0x60 DUP1 DUP3 MSTORE PUSH1 0x20 DUP1 DUP4 ADD SWAP2 DUP3 MSTORE DUP4 MLOAD DUP1 DUP6 ADD SWAP1 SWAP5 MSTORE PUSH1 0x9 DUP5 MSTORE PUSH9 0x185CDCDA5CDD185B9D PUSH1 0xBA SHL DUP5 DUP3 ADD MSTORE SWAP3 DUP3 MSTORE DUP5 SWAP1 MSTORE PUSH1 0x1 DUP4 DUP2 ADD DUP1 SLOAD SWAP2 DUP3 ADD DUP2 SSTORE PUSH1 0x0 SWAP1 DUP2 MSTORE SWAP3 SWAP1 SWAP3 KECCAK256 DUP2 MLOAD SWAP2 SWAP3 DUP4 SWAP3 PUSH1 0x2 SWAP1 SWAP2 MUL SWAP1 SWAP2 ADD SWAP1 DUP2 SWAP1 PUSH2 0x774 SWAP1 DUP3 PUSH2 0x1C4F JUMP JUMPDEST POP PUSH1 0x20 DUP3 ADD MLOAD PUSH1 0x1 DUP3 ADD SWAP1 PUSH2 0x789 SWAP1 DUP3 PUSH2 0x1C4F JUMP JUMPDEST POP POP POP PUSH1 0x2 DUP3 ADD DUP1 SLOAD SWAP1 PUSH1 0x0 PUSH2 0x79E DUP4 PUSH2 0x1EB6 JUMP JUMPDEST SWAP1 SWAP2 SSTORE POP POP POP PUSH1 0x3 ADD DUP1 SLOAD PUSH2 0xFF00 NOT AND PUSH2 0x100 OR SWAP1 SSTORE POP POP POP JUMP JUMPDEST PUSH1 0x3 DUP2 ADD SLOAD PUSH1 0x2 DUP3 ADD SLOAD PUSH1 0xFF SWAP1 SWAP2 AND GT PUSH2 0x7E2 JUMPI PUSH1 0x3 ADD DUP1 SLOAD PUSH2 0xFF00 NOT AND PUSH2 0x100 OR SWAP1 SSTORE POP POP POP JUMP JUMPDEST PUSH2 0x7FF DUP4 PUSH1 0x20 ADD MLOAD PUSH1 0x40 MLOAD DUP1 PUSH1 0x20 ADD PUSH1 0x40 MSTORE DUP1 PUSH1 0x0 DUP2 MSTORE POP PUSH2 0x1467 JUMP JUMPDEST PUSH2 0xA61 JUMPI PUSH1 0x40 DUP1 MLOAD DUP1 DUP3 ADD SWAP1 SWAP2 MSTORE PUSH1 0x60 DUP1 DUP3 MSTORE PUSH1 0x20 DUP3 ADD MSTORE PUSH1 0x20 DUP1 DUP6 ADD MLOAD DUP3 DUP3 ADD MSTORE PUSH1 0x40 DUP1 MLOAD DUP1 DUP3 ADD SWAP1 SWAP2 MSTORE PUSH1 0x9 DUP2 MSTORE PUSH9 0x185CDCDA5CDD185B9D PUSH1 0xBA SHL DUP2 DUP4 ADD MSTORE DUP3 MSTORE PUSH1 0x1 DUP1 DUP5 ADD DUP1 SLOAD SWAP2 DUP3 ADD DUP2 SSTORE PUSH1 0x0 SWAP1 DUP2 MSTORE SWAP2 SWAP1 SWAP2 KECCAK256 DUP3 MLOAD DUP4 SWAP3 PUSH1 0x2 MUL SWAP1 SWAP2 ADD SWAP1 DUP2 SWAP1 PUSH2 0x86E SWAP1 DUP3 PUSH2 0x1C4F JUMP JUMPDEST POP PUSH1 0x20 DUP3 ADD MLOAD PUSH1 0x1 DUP3 ADD SWAP1 PUSH2 0x883 SWAP1 DUP3 PUSH2 0x1C4F JUMP JUMPDEST POP POP POP PUSH1 0x2 DUP3 ADD DUP1 SLOAD SWAP1 PUSH1 0x0 PUSH2 0x898 DUP4 PUSH2 0x1EB6 JUMP JUMPDEST SWAP2 SWAP1 POP SSTORE POP DUP2 PUSH1 0x2 ADD SLOAD PUSH1 0x1 SUB PUSH2 0x9C1 JUMPI PUSH1 0x40 DUP1 MLOAD DUP1 DUP3 ADD SWAP1 SWAP2 MSTORE PUSH1 0x60 DUP1 DUP3 MSTORE PUSH1 0x20 DUP3 ADD MSTORE PUSH1 0x40 MLOAD DUP1 PUSH2 0x200 ADD PUSH1 0x40 MSTORE DUP1 PUSH2 0x1C4 DUP2 MSTORE PUSH1 0x20 ADD PUSH2 0x1F77 PUSH2 0x1C4 SWAP2 CODECOPY PUSH1 0x20 DUP1 DUP4 ADD SWAP2 SWAP1 SWAP2 MSTORE PUSH1 0x40 DUP1 MLOAD DUP1 DUP3 ADD SWAP1 SWAP2 MSTORE PUSH1 0x4 DUP2 MSTORE PUSH4 0x3AB9B2B9 PUSH1 0xE1 SHL DUP2 DUP4 ADD MSTORE DUP3 MSTORE PUSH1 0x1 DUP1 DUP6 ADD DUP1 SLOAD SWAP2 DUP3 ADD DUP2 SSTORE PUSH1 0x0 SWAP1 DUP2 MSTORE SWAP2 SWAP1 SWAP2 KECCAK256 DUP3 MLOAD DUP4 SWAP3 PUSH1 0x2 MUL SWAP1 SWAP2 ADD SWAP1 DUP2 SWAP1 PUSH2 0x92A SWAP1 DUP3 PUSH2 0x1C4F JUMP JUMPDEST POP PUSH1 0x20 DUP3 ADD MLOAD PUSH1 0x1 DUP3 ADD SWAP1 PUSH2 0x93F SWAP1 DUP3 PUSH2 0x1C4F JUMP JUMPDEST POP POP PUSH1 0x5 SLOAD PUSH1 0x40 MLOAD PUSH4 0x3C38A5F5 PUSH1 0xE0 SHL DUP2 MSTORE PUSH1 0x1 PUSH1 0x1 PUSH1 0xA0 SHL SUB SWAP1 SWAP2 AND SWAP2 POP PUSH4 0x3C38A5F5 SWAP1 PUSH2 0x975 SWAP1 DUP10 SWAP1 PUSH1 0x6 SWAP1 PUSH1 0x4 ADD PUSH2 0x1D8C JUMP JUMPDEST PUSH1 0x20 PUSH1 0x40 MLOAD DUP1 DUP4 SUB DUP2 PUSH1 0x0 DUP8 GAS CALL ISZERO DUP1 ISZERO PUSH2 0x994 JUMPI RETURNDATASIZE PUSH1 0x0 DUP1 RETURNDATACOPY RETURNDATASIZE PUSH1 0x0 REVERT JUMPDEST POP POP POP POP PUSH1 0x40 MLOAD RETURNDATASIZE PUSH1 0x1F NOT PUSH1 0x1F DUP3 ADD AND DUP3 ADD DUP1 PUSH1 0x40 MSTORE POP DUP2 ADD SWAP1 PUSH2 0x9B8 SWAP2 SWAP1 PUSH2 0x1E9D JUMP JUMPDEST POP POP POP POP POP POP POP JUMP JUMPDEST DUP2 PUSH1 0x2 ADD SLOAD PUSH1 0x2 SUB PUSH2 0xA4E JUMPI PUSH1 0x40 DUP1 MLOAD DUP1 DUP3 ADD SWAP1 SWAP2 MSTORE PUSH1 0x60 DUP1 DUP3 MSTORE PUSH1 0x20 DUP3 ADD MSTORE PUSH1 0x40 MLOAD DUP1 PUSH2 0x1E0 ADD PUSH1 0x40 MSTORE DUP1 PUSH2 0x1AE DUP2 MSTORE PUSH1 0x20 ADD PUSH2 0x213B PUSH2 0x1AE SWAP2 CODECOPY PUSH1 0x20 DUP1 DUP4 ADD SWAP2 SWAP1 SWAP2 MSTORE PUSH1 0x40 DUP1 MLOAD DUP1 DUP3 ADD SWAP1 SWAP2 MSTORE PUSH1 0x4 DUP2 MSTORE PUSH4 0x3AB9B2B9 PUSH1 0xE1 SHL DUP2 DUP4 ADD MSTORE DUP3 MSTORE PUSH1 0x1 DUP1 DUP6 ADD DUP1 SLOAD SWAP2 DUP3 ADD DUP2 SSTORE PUSH1 0x0 SWAP1 DUP2 MSTORE SWAP2 SWAP1 SWAP2 KECCAK256 DUP3 MLOAD DUP4 SWAP3 PUSH1 0x2 MUL SWAP1 SWAP2 ADD SWAP1 DUP2 SWAP1 PUSH2 0x92A SWAP1 DUP3 PUSH2 0x1C4F JUMP JUMPDEST POP PUSH1 0x3 DUP2 ADD DUP1 SLOAD PUSH2 0xFF00 NOT AND PUSH2 0x100 OR SWAP1 SSTORE JUMPDEST PUSH2 0xA7E DUP4 PUSH1 0x40 ADD MLOAD PUSH1 0x40 MLOAD DUP1 PUSH1 0x20 ADD PUSH1 0x40 MSTORE DUP1 PUSH1 0x0 DUP2 MSTORE POP PUSH2 0x1467 JUMP JUMPDEST PUSH2 0xB09 JUMPI PUSH1 0x5 SLOAD PUSH1 0x40 DUP1 DUP6 ADD MLOAD PUSH1 0x60 DUP7 ADD MLOAD SWAP2 MLOAD PUSH4 0x4B04236B PUSH1 0xE0 SHL DUP2 MSTORE PUSH1 0x1 PUSH1 0x1 PUSH1 0xA0 SHL SUB SWAP1 SWAP4 AND SWAP3 PUSH4 0x4B04236B SWAP3 PUSH2 0xABF SWAP3 DUP10 SWAP3 SWAP1 SWAP2 SWAP1 PUSH1 0x4 ADD PUSH2 0x1ECF JUMP JUMPDEST PUSH1 0x20 PUSH1 0x40 MLOAD DUP1 DUP4 SUB DUP2 PUSH1 0x0 DUP8 GAS CALL ISZERO DUP1 ISZERO PUSH2 0xADE JUMPI RETURNDATASIZE PUSH1 0x0 DUP1 RETURNDATACOPY RETURNDATASIZE PUSH1 0x0 REVERT JUMPDEST POP POP POP POP PUSH1 0x40 MLOAD RETURNDATASIZE PUSH1 0x1F NOT PUSH1 0x1F DUP3 ADD AND DUP3 ADD DUP1 PUSH1 0x40 MSTORE POP DUP2 ADD SWAP1 PUSH2 0xB02 SWAP2 SWAP1 PUSH2 0x1E9D JUMP JUMPDEST POP POP POP POP POP JUMP JUMPDEST PUSH1 0x3 ADD DUP1 SLOAD PUSH2 0xFF00 NOT AND PUSH2 0x100 OR SWAP1 SSTORE JUMPDEST POP POP POP JUMP JUMPDEST PUSH1 0x5 SLOAD PUSH1 0x1 PUSH1 0x1 PUSH1 0xA0 SHL SUB AND CALLER EQ PUSH2 0xB49 JUMPI PUSH1 0x40 MLOAD PUSH3 0x461BCD PUSH1 0xE5 SHL DUP2 MSTORE PUSH1 0x4 ADD PUSH2 0x2C4 SWAP1 PUSH2 0x1A6F JUMP JUMPDEST PUSH1 0x0 DUP4 DUP2 MSTORE PUSH1 0x2 PUSH1 0x20 MSTORE PUSH1 0x40 SWAP1 KECCAK256 PUSH1 0x3 DUP2 ADD SLOAD PUSH2 0x100 SWAP1 DIV PUSH1 0xFF AND ISZERO PUSH2 0xBA3 JUMPI PUSH1 0x40 MLOAD PUSH3 0x461BCD PUSH1 0xE5 SHL DUP2 MSTORE PUSH1 0x20 PUSH1 0x4 DUP3 ADD MSTORE PUSH1 0xF PUSH1 0x24 DUP3 ADD MSTORE PUSH15 0x149D5B881A5CC8199A5B9A5CDA1959 PUSH1 0x8A SHL PUSH1 0x44 DUP3 ADD MSTORE PUSH1 0x64 ADD PUSH2 0x2C4 JUMP JUMPDEST PUSH1 0x0 DUP4 SWAP1 POP PUSH2 0xBC1 DUP4 PUSH1 0x40 MLOAD DUP1 PUSH1 0x20 ADD PUSH1 0x40 MSTORE DUP1 PUSH1 0x0 DUP2 MSTORE POP PUSH2 0x1467 JUMP JUMPDEST PUSH2 0xBC8 JUMPI POP DUP2 JUMPDEST PUSH1 0x40 DUP1 MLOAD DUP1 DUP3 ADD DUP3 MSTORE PUSH1 0x60 DUP1 DUP3 MSTORE PUSH1 0x20 DUP1 DUP4 ADD SWAP2 DUP3 MSTORE DUP4 MLOAD DUP1 DUP6 ADD SWAP1 SWAP5 MSTORE PUSH1 0x4 DUP5 MSTORE PUSH4 0x3AB9B2B9 PUSH1 0xE1 SHL DUP5 DUP3 ADD MSTORE SWAP3 DUP3 MSTORE DUP4 SWAP1 MSTORE PUSH1 0x1 DUP5 DUP2 ADD DUP1 SLOAD SWAP2 DUP3 ADD DUP2 SSTORE PUSH1 0x0 SWAP1 DUP2 MSTORE SWAP3 SWAP1 SWAP3 KECCAK256 DUP2 MLOAD SWAP2 SWAP3 DUP4 SWAP3 PUSH1 0x2 SWAP1 SWAP2 MUL SWAP1 SWAP2 ADD SWAP1 DUP2 SWAP1 PUSH2 0xC2C SWAP1 DUP3 PUSH2 0x1C4F JUMP JUMPDEST POP PUSH1 0x20 DUP3 ADD MLOAD PUSH1 0x1 DUP3 ADD SWAP1 PUSH2 0xC41 SWAP1 DUP3 PUSH2 0x1C4F JUMP JUMPDEST POP POP POP PUSH1 0x2 DUP4 ADD DUP1 SLOAD SWAP1 PUSH1 0x0 PUSH2 0xC56 DUP4 PUSH2 0x1EB6 JUMP JUMPDEST SWAP1 SWAP2 SSTORE POP POP PUSH1 0x5 SLOAD PUSH1 0x40 MLOAD PUSH4 0x3C38A5F5 PUSH1 0xE0 SHL DUP2 MSTORE PUSH1 0x1 PUSH1 0x1 PUSH1 0xA0 SHL SUB SWAP1 SWAP2 AND SWAP1 PUSH4 0x3C38A5F5 SWAP1 PUSH2 0x975 SWAP1 DUP10 SWAP1 PUSH1 0x6 SWAP1 PUSH1 0x4 ADD PUSH2 0x1D8C JUMP JUMPDEST PUSH1 0x0 DUP1 SLOAD PUSH2 0xC9B SWAP1 PUSH2 0x1ADC JUMP JUMPDEST DUP1 PUSH1 0x1F ADD PUSH1 0x20 DUP1 SWAP2 DIV MUL PUSH1 0x20 ADD PUSH1 0x40 MLOAD SWAP1 DUP2 ADD PUSH1 0x40 MSTORE DUP1 SWAP3 SWAP2 SWAP1 DUP2 DUP2 MSTORE PUSH1 0x20 ADD DUP3 DUP1 SLOAD PUSH2 0xCC7 SWAP1 PUSH2 0x1ADC JUMP JUMPDEST DUP1 ISZERO PUSH2 0xD14 JUMPI DUP1 PUSH1 0x1F LT PUSH2 0xCE9 JUMPI PUSH2 0x100 DUP1 DUP4 SLOAD DIV MUL DUP4 MSTORE SWAP2 PUSH1 0x20 ADD SWAP2 PUSH2 0xD14 JUMP JUMPDEST DUP3 ADD SWAP2 SWAP1 PUSH1 0x0 MSTORE PUSH1 0x20 PUSH1 0x0 KECCAK256 SWAP1 JUMPDEST DUP2 SLOAD DUP2 MSTORE SWAP1 PUSH1 0x1 ADD SWAP1 PUSH1 0x20 ADD DUP1 DUP4 GT PUSH2 0xCF7 JUMPI DUP3 SWAP1 SUB PUSH1 0x1F AND DUP3 ADD SWAP2 JUMPDEST POP POP POP POP POP DUP2 JUMP JUMPDEST PUSH1 0x4 SLOAD PUSH1 0x1 PUSH1 0x1 PUSH1 0xA0 SHL SUB AND CALLER EQ PUSH2 0xD6C JUMPI PUSH1 0x40 MLOAD PUSH3 0x461BCD PUSH1 0xE5 SHL DUP2 MSTORE PUSH1 0x20 PUSH1 0x4 DUP3 ADD MSTORE PUSH1 0x13 PUSH1 0x24 DUP3 ADD MSTORE PUSH19 0x21B0B63632B91034B9903737BA1037BBB732B9 PUSH1 0x69 SHL PUSH1 0x44 DUP3 ADD MSTORE PUSH1 0x64 ADD PUSH2 0x2C4 JUMP JUMPDEST PUSH1 0x0 DUP2 MLOAD GT PUSH2 0xDB3 JUMPI PUSH1 0x40 MLOAD PUSH3 0x461BCD PUSH1 0xE5 SHL DUP2 MSTORE PUSH1 0x20 PUSH1 0x4 DUP3 ADD MSTORE PUSH1 0x13 PUSH1 0x24 DUP3 ADD MSTORE PUSH19 0x4349442063616E6E6F7420626520656D707479 PUSH1 0x68 SHL PUSH1 0x44 DUP3 ADD MSTORE PUSH1 0x64 ADD PUSH2 0x2C4 JUMP JUMPDEST PUSH1 0x1 PUSH2 0xDBF DUP3 DUP3 PUSH2 0x1C4F JUMP JUMPDEST POP DUP1 PUSH1 0x40 MLOAD PUSH2 0xDCE SWAP2 SWAP1 PUSH2 0x1F04 JUMP JUMPDEST PUSH1 0x40 MLOAD SWAP1 DUP2 SWAP1 SUB DUP2 KECCAK256 SWAP1 PUSH32 0x25F99356A5FF3D29E95DF0906BA17B40B7BB5C86A372CA12D27FCF3CE537F1AB SWAP1 PUSH1 0x0 SWAP1 LOG2 POP JUMP JUMPDEST PUSH1 0x3 DUP1 SLOAD PUSH1 0x0 SWAP1 DUP2 MSTORE PUSH1 0x2 PUSH1 0x20 DUP2 DUP2 MSTORE PUSH1 0x40 DUP1 DUP5 KECCAK256 DUP1 SLOAD CALLER PUSH1 0x1 PUSH1 0x1 PUSH1 0xA0 SHL SUB NOT SWAP1 SWAP2 AND OR DUP2 SSTORE SWAP5 DUP6 ADD DUP1 SLOAD SWAP4 DUP7 ADD DUP6 SWAP1 SSTORE PUSH2 0xFFFF NOT SWAP1 SWAP4 AND PUSH1 0xFF DUP8 AND OR SWAP1 SWAP3 SSTORE DUP2 MLOAD DUP1 DUP4 ADD SWAP1 SWAP3 MSTORE PUSH1 0x60 DUP1 DUP4 MSTORE SWAP1 DUP3 ADD MSTORE SWAP1 SWAP2 SWAP1 PUSH1 0x0 DUP1 SLOAD PUSH2 0xE63 SWAP1 PUSH2 0x1ADC JUMP JUMPDEST DUP1 PUSH1 0x1F ADD PUSH1 0x20 DUP1 SWAP2 DIV MUL PUSH1 0x20 ADD PUSH1 0x40 MLOAD SWAP1 DUP2 ADD PUSH1 0x40 MSTORE DUP1 SWAP3 SWAP2 SWAP1 DUP2 DUP2 MSTORE PUSH1 0x20 ADD DUP3 DUP1 SLOAD PUSH2 0xE8F SWAP1 PUSH2 0x1ADC JUMP JUMPDEST DUP1 ISZERO PUSH2 0xEDC JUMPI DUP1 PUSH1 0x1F LT PUSH2 0xEB1 JUMPI PUSH2 0x100 DUP1 DUP4 SLOAD DIV MUL DUP4 MSTORE SWAP2 PUSH1 0x20 ADD SWAP2 PUSH2 0xEDC JUMP JUMPDEST DUP3 ADD SWAP2 SWAP1 PUSH1 0x0 MSTORE PUSH1 0x20 PUSH1 0x0 KECCAK256 SWAP1 JUMPDEST DUP2 SLOAD DUP2 MSTORE SWAP1 PUSH1 0x1 ADD SWAP1 PUSH1 0x20 ADD DUP1 DUP4 GT PUSH2 0xEBF JUMPI DUP3 SWAP1 SUB PUSH1 0x1F AND DUP3 ADD SWAP2 JUMPDEST POP POP POP POP PUSH1 0x20 DUP1 DUP5 ADD SWAP3 SWAP1 SWAP3 MSTORE POP PUSH1 0x40 DUP1 MLOAD DUP1 DUP3 ADD SWAP1 SWAP2 MSTORE PUSH1 0x6 DUP2 MSTORE PUSH6 0x73797374656D PUSH1 0xD0 SHL DUP2 DUP4 ADD MSTORE DUP3 MSTORE PUSH1 0x1 DUP1 DUP5 ADD DUP1 SLOAD SWAP2 DUP3 ADD DUP2 SSTORE PUSH1 0x0 SWAP1 DUP2 MSTORE SWAP2 SWAP1 SWAP2 KECCAK256 DUP3 MLOAD DUP4 SWAP3 PUSH1 0x2 MUL SWAP1 SWAP2 ADD SWAP1 DUP2 SWAP1 PUSH2 0xF34 SWAP1 DUP3 PUSH2 0x1C4F JUMP JUMPDEST POP PUSH1 0x20 DUP3 ADD MLOAD PUSH1 0x1 DUP3 ADD SWAP1 PUSH2 0xF49 SWAP1 DUP3 PUSH2 0x1C4F JUMP JUMPDEST POP POP POP PUSH1 0x4 DUP3 ADD DUP1 SLOAD SWAP1 PUSH1 0x0 PUSH2 0xF5E DUP4 PUSH2 0x1EB6 JUMP JUMPDEST SWAP1 SWAP2 SSTORE POP POP PUSH1 0x40 DUP1 MLOAD DUP1 DUP3 ADD DUP3 MSTORE PUSH1 0x60 DUP2 MSTORE PUSH1 0x20 DUP1 DUP3 ADD DUP9 SWAP1 MSTORE DUP3 MLOAD DUP1 DUP5 ADD SWAP1 SWAP4 MSTORE PUSH1 0x4 DUP4 MSTORE PUSH4 0x3AB9B2B9 PUSH1 0xE1 SHL DUP4 DUP3 ADD MSTORE SWAP2 DUP2 MSTORE PUSH1 0x1 DUP5 DUP2 ADD DUP1 SLOAD SWAP2 DUP3 ADD DUP2 SSTORE PUSH1 0x0 SWAP1 DUP2 MSTORE SWAP3 SWAP1 SWAP3 KECCAK256 DUP2 MLOAD SWAP2 SWAP3 DUP4 SWAP3 PUSH1 0x2 SWAP1 SWAP2 MUL SWAP1 SWAP2 ADD SWAP1 DUP2 SWAP1 PUSH2 0xFC3 SWAP1 DUP3 PUSH2 0x1C4F JUMP JUMPDEST POP PUSH1 0x20 DUP3 ADD MLOAD PUSH1 0x1 DUP3 ADD SWAP1 PUSH2 0xFD8 SWAP1 DUP3 PUSH2 0x1C4F JUMP JUMPDEST POP POP POP PUSH1 0x4 DUP4 ADD DUP1 SLOAD SWAP1 PUSH1 0x0 PUSH2 0xFED DUP4 PUSH2 0x1EB6 JUMP JUMPDEST SWAP1 SWAP2 SSTORE POP POP PUSH1 0x3 SLOAD PUSH2 0x1000 DUP2 PUSH1 0x1 PUSH2 0x1F20 JUMP JUMPDEST PUSH1 0x3 SSTORE PUSH1 0x1 DUP1 SLOAD PUSH1 0x0 SWAP2 SWAP1 PUSH2 0x1014 SWAP1 PUSH2 0x1ADC JUMP JUMPDEST SWAP1 POP GT ISZERO PUSH2 0x10D4 JUMPI PUSH1 0x5 SLOAD PUSH1 0x40 MLOAD PUSH4 0xA252A951 PUSH1 0xE0 SHL DUP2 MSTORE PUSH1 0x1 PUSH1 0x1 PUSH1 0xA0 SHL SUB SWAP1 SWAP2 AND SWAP1 PUSH4 0xA252A951 SWAP1 PUSH2 0x1054 SWAP1 DUP5 SWAP1 PUSH1 0x1 SWAP1 DUP13 SWAP1 PUSH1 0x2 SWAP1 PUSH1 0x4 ADD PUSH2 0x1F33 JUMP JUMPDEST PUSH1 0x20 PUSH1 0x40 MLOAD DUP1 DUP4 SUB DUP2 PUSH1 0x0 DUP8 GAS CALL ISZERO DUP1 ISZERO PUSH2 0x1073 JUMPI RETURNDATASIZE PUSH1 0x0 DUP1 RETURNDATACOPY RETURNDATASIZE PUSH1 0x0 REVERT JUMPDEST POP POP POP POP PUSH1 0x40 MLOAD RETURNDATASIZE PUSH1 0x1F NOT PUSH1 0x1F DUP3 ADD AND DUP3 ADD DUP1 PUSH1 0x40 MSTORE POP DUP2 ADD SWAP1 PUSH2 0x1097 SWAP2 SWAP1 PUSH2 0x1E9D JUMP JUMPDEST POP DUP4 SLOAD PUSH1 0x40 MLOAD DUP3 SWAP2 PUSH1 0x1 PUSH1 0x1 PUSH1 0xA0 SHL SUB AND SWAP1 PUSH32 0x9697C88A6BE3B3ED5062F2DCBD719A10914832320686F14E24F7756210A6685E SWAP1 PUSH1 0x0 SWAP1 LOG3 PUSH2 0x1183 JUMP JUMPDEST PUSH1 0x5 SLOAD PUSH1 0x40 MLOAD PUSH4 0x3C38A5F5 PUSH1 0xE0 SHL DUP2 MSTORE PUSH1 0x1 PUSH1 0x1 PUSH1 0xA0 SHL SUB SWAP1 SWAP2 AND SWAP1 PUSH4 0x3C38A5F5 SWAP1 PUSH2 0x1107 SWAP1 DUP5 SWAP1 PUSH1 0x6 SWAP1 PUSH1 0x4 ADD PUSH2 0x1D8C JUMP JUMPDEST PUSH1 0x20 PUSH1 0x40 MLOAD DUP1 DUP4 SUB DUP2 PUSH1 0x0 DUP8 GAS CALL ISZERO DUP1 ISZERO PUSH2 0x1126 JUMPI RETURNDATASIZE PUSH1 0x0 DUP1 RETURNDATACOPY RETURNDATASIZE PUSH1 0x0 REVERT JUMPDEST POP POP POP POP PUSH1 0x40 MLOAD RETURNDATASIZE PUSH1 0x1F NOT PUSH1 0x1F DUP3 ADD AND DUP3 ADD DUP1 PUSH1 0x40 MSTORE POP DUP2 ADD SWAP1 PUSH2 0x114A SWAP2 SWAP1 PUSH2 0x1E9D JUMP JUMPDEST POP DUP4 SLOAD PUSH1 0x40 MLOAD DUP3 SWAP2 PUSH1 0x1 PUSH1 0x1 PUSH1 0xA0 SHL SUB AND SWAP1 PUSH32 0x9697C88A6BE3B3ED5062F2DCBD719A10914832320686F14E24F7756210A6685E SWAP1 PUSH1 0x0 SWAP1 LOG3 JUMPDEST SWAP4 POP POP POP POP JUMPDEST SWAP3 SWAP2 POP POP JUMP JUMPDEST PUSH1 0x0 DUP2 DUP2 MSTORE PUSH1 0x2 PUSH1 0x20 MSTORE PUSH1 0x40 DUP2 KECCAK256 PUSH1 0x1 ADD SLOAD PUSH1 0x60 SWAP2 SWAP1 PUSH8 0xFFFFFFFFFFFFFFFF DUP2 GT ISZERO PUSH2 0x11BD JUMPI PUSH2 0x11BD PUSH2 0x14C0 JUMP JUMPDEST PUSH1 0x40 MLOAD SWAP1 DUP1 DUP3 MSTORE DUP1 PUSH1 0x20 MUL PUSH1 0x20 ADD DUP3 ADD PUSH1 0x40 MSTORE DUP1 ISZERO PUSH2 0x11F0 JUMPI DUP2 PUSH1 0x20 ADD JUMPDEST PUSH1 0x60 DUP2 MSTORE PUSH1 0x20 ADD SWAP1 PUSH1 0x1 SWAP1 SUB SWAP1 DUP2 PUSH2 0x11DB JUMPI SWAP1 POP JUMPDEST POP SWAP1 POP PUSH1 0x0 JUMPDEST PUSH1 0x0 DUP5 DUP2 MSTORE PUSH1 0x2 PUSH1 0x20 MSTORE PUSH1 0x40 SWAP1 KECCAK256 PUSH1 0x1 ADD SLOAD DUP2 LT ISZERO PUSH2 0x12F1 JUMPI PUSH1 0x0 DUP5 DUP2 MSTORE PUSH1 0x2 PUSH1 0x20 MSTORE PUSH1 0x40 SWAP1 KECCAK256 PUSH1 0x1 ADD DUP1 SLOAD DUP3 SWAP1 DUP2 LT PUSH2 0x1232 JUMPI PUSH2 0x1232 PUSH2 0x1AC6 JUMP JUMPDEST SWAP1 PUSH1 0x0 MSTORE PUSH1 0x20 PUSH1 0x0 KECCAK256 SWAP1 PUSH1 0x2 MUL ADD PUSH1 0x1 ADD DUP1 SLOAD PUSH2 0x124E SWAP1 PUSH2 0x1ADC JUMP JUMPDEST DUP1 PUSH1 0x1F ADD PUSH1 0x20 DUP1 SWAP2 DIV MUL PUSH1 0x20 ADD PUSH1 0x40 MLOAD SWAP1 DUP2 ADD PUSH1 0x40 MSTORE DUP1 SWAP3 SWAP2 SWAP1 DUP2 DUP2 MSTORE PUSH1 0x20 ADD DUP3 DUP1 SLOAD PUSH2 0x127A SWAP1 PUSH2 0x1ADC JUMP JUMPDEST DUP1 ISZERO PUSH2 0x12C7 JUMPI DUP1 PUSH1 0x1F LT PUSH2 0x129C JUMPI PUSH2 0x100 DUP1 DUP4 SLOAD DIV MUL DUP4 MSTORE SWAP2 PUSH1 0x20 ADD SWAP2 PUSH2 0x12C7 JUMP JUMPDEST DUP3 ADD SWAP2 SWAP1 PUSH1 0x0 MSTORE PUSH1 0x20 PUSH1 0x0 KECCAK256 SWAP1 JUMPDEST DUP2 SLOAD DUP2 MSTORE SWAP1 PUSH1 0x1 ADD SWAP1 PUSH1 0x20 ADD DUP1 DUP4 GT PUSH2 0x12AA JUMPI DUP3 SWAP1 SUB PUSH1 0x1F AND DUP3 ADD SWAP2 JUMPDEST POP POP POP POP POP DUP3 DUP3 DUP2 MLOAD DUP2 LT PUSH2 0x12DE JUMPI PUSH2 0x12DE PUSH2 0x1AC6 JUMP JUMPDEST PUSH1 0x20 SWAP1 DUP2 MUL SWAP2 SWAP1 SWAP2 ADD ADD MSTORE PUSH1 0x1 ADD PUSH2 0x11F6 JUMP JUMPDEST POP SWAP3 SWAP2 POP POP JUMP JUMPDEST PUSH1 0x0 DUP2 DUP2 MSTORE PUSH1 0x2 PUSH1 0x20 MSTORE PUSH1 0x40 DUP2 KECCAK256 PUSH1 0x1 ADD SLOAD PUSH1 0x60 SWAP2 SWAP1 PUSH8 0xFFFFFFFFFFFFFFFF DUP2 GT ISZERO PUSH2 0x1326 JUMPI PUSH2 0x1326 PUSH2 0x14C0 JUMP JUMPDEST PUSH1 0x40 MLOAD SWAP1 DUP1 DUP3 MSTORE DUP1 PUSH1 0x20 MUL PUSH1 0x20 ADD DUP3 ADD PUSH1 0x40 MSTORE DUP1 ISZERO PUSH2 0x1359 JUMPI DUP2 PUSH1 0x20 ADD JUMPDEST PUSH1 0x60 DUP2 MSTORE PUSH1 0x20 ADD SWAP1 PUSH1 0x1 SWAP1 SUB SWAP1 DUP2 PUSH2 0x1344 JUMPI SWAP1 POP JUMPDEST POP SWAP1 POP PUSH1 0x0 JUMPDEST PUSH1 0x0 DUP5 DUP2 MSTORE PUSH1 0x2 PUSH1 0x20 MSTORE PUSH1 0x40 SWAP1 KECCAK256 PUSH1 0x1 ADD SLOAD DUP2 LT ISZERO PUSH2 0x12F1 JUMPI PUSH1 0x0 DUP5 DUP2 MSTORE PUSH1 0x2 PUSH1 0x20 MSTORE PUSH1 0x40 SWAP1 KECCAK256 PUSH1 0x1 ADD DUP1 SLOAD DUP3 SWAP1 DUP2 LT PUSH2 0x139B JUMPI PUSH2 0x139B PUSH2 0x1AC6 JUMP JUMPDEST SWAP1 PUSH1 0x0 MSTORE PUSH1 0x20 PUSH1 0x0 KECCAK256 SWAP1 PUSH1 0x2 MUL ADD PUSH1 0x0 ADD DUP1 SLOAD PUSH2 0x13B7 SWAP1 PUSH2 0x1ADC JUMP JUMPDEST DUP1 PUSH1 0x1F ADD PUSH1 0x20 DUP1 SWAP2 DIV MUL PUSH1 0x20 ADD PUSH1 0x40 MLOAD SWAP1 DUP2 ADD PUSH1 0x40 MSTORE DUP1 SWAP3 SWAP2 SWAP1 DUP2 DUP2 MSTORE PUSH1 0x20 ADD DUP3 DUP1 SLOAD PUSH2 0x13E3 SWAP1 PUSH2 0x1ADC JUMP JUMPDEST DUP1 ISZERO PUSH2 0x1430 JUMPI DUP1 PUSH1 0x1F LT PUSH2 0x1405 JUMPI PUSH2 0x100 DUP1 DUP4 SLOAD DIV MUL DUP4 MSTORE SWAP2 PUSH1 0x20 ADD SWAP2 PUSH2 0x1430 JUMP JUMPDEST DUP3 ADD SWAP2 SWAP1 PUSH1 0x0 MSTORE PUSH1 0x20 PUSH1 0x0 KECCAK256 SWAP1 JUMPDEST DUP2 SLOAD DUP2 MSTORE SWAP1 PUSH1 0x1 ADD SWAP1 PUSH1 0x20 ADD DUP1 DUP4 GT PUSH2 0x1413 JUMPI DUP3 SWAP1 SUB PUSH1 0x1F AND DUP3 ADD SWAP2 JUMPDEST POP POP POP POP POP DUP3 DUP3 DUP2 MLOAD DUP2 LT PUSH2 0x1447 JUMPI PUSH2 0x1447 PUSH2 0x1AC6 JUMP JUMPDEST PUSH1 0x20 SWAP1 DUP2 MUL SWAP2 SWAP1 SWAP2 ADD ADD MSTORE PUSH1 0x1 ADD PUSH2 0x135F JUMP JUMPDEST PUSH1 0x1 DUP1 SLOAD PUSH2 0xC9B SWAP1 PUSH2 0x1ADC JUMP JUMPDEST PUSH1 0x0 DUP2 PUSH1 0x40 MLOAD PUSH1 0x20 ADD PUSH2 0x147A SWAP2 SWAP1 PUSH2 0x1F04 JUMP JUMPDEST PUSH1 0x40 MLOAD PUSH1 0x20 DUP2 DUP4 SUB SUB DUP2 MSTORE SWAP1 PUSH1 0x40 MSTORE DUP1 MLOAD SWAP1 PUSH1 0x20 ADD KECCAK256 DUP4 PUSH1 0x40 MLOAD PUSH1 0x20 ADD PUSH2 0x14A1 SWAP2 SWAP1 PUSH2 0x1F04 JUMP JUMPDEST PUSH1 0x40 MLOAD PUSH1 0x20 DUP2 DUP4 SUB SUB DUP2 MSTORE SWAP1 PUSH1 0x40 MSTORE DUP1 MLOAD SWAP1 PUSH1 0x20 ADD KECCAK256 EQ SWAP1 POP SWAP3 SWAP2 POP POP JUMP JUMPDEST PUSH4 0x4E487B71 PUSH1 0xE0 SHL PUSH1 0x0 MSTORE PUSH1 0x41 PUSH1 0x4 MSTORE PUSH1 0x24 PUSH1 0x0 REVERT JUMPDEST PUSH1 0x40 MLOAD PUSH2 0x160 DUP2 ADD PUSH8 0xFFFFFFFFFFFFFFFF DUP2 GT DUP3 DUP3 LT OR ISZERO PUSH2 0x14FA JUMPI PUSH2 0x14FA PUSH2 0x14C0 JUMP JUMPDEST PUSH1 0x40 MSTORE SWAP1 JUMP JUMPDEST PUSH1 0x40 MLOAD PUSH1 0x1F DUP3 ADD PUSH1 0x1F NOT AND DUP2 ADD PUSH8 0xFFFFFFFFFFFFFFFF DUP2 GT DUP3 DUP3 LT OR ISZERO PUSH2 0x1529 JUMPI PUSH2 0x1529 PUSH2 0x14C0 JUMP JUMPDEST PUSH1 0x40 MSTORE SWAP2 SWAP1 POP JUMP JUMPDEST PUSH1 0x0 DUP3 PUSH1 0x1F DUP4 ADD SLT PUSH2 0x1542 JUMPI PUSH1 0x0 DUP1 REVERT JUMPDEST DUP2 CALLDATALOAD PUSH8 0xFFFFFFFFFFFFFFFF DUP2 GT ISZERO PUSH2 0x155C JUMPI PUSH2 0x155C PUSH2 0x14C0 JUMP JUMPDEST PUSH2 0x156F PUSH1 0x1F DUP3 ADD PUSH1 0x1F NOT AND PUSH1 0x20 ADD PUSH2 0x1500 JUMP JUMPDEST DUP2 DUP2 MSTORE DUP5 PUSH1 0x20 DUP4 DUP7 ADD ADD GT ISZERO PUSH2 0x1584 JUMPI PUSH1 0x0 DUP1 REVERT JUMPDEST DUP2 PUSH1 0x20 DUP6 ADD PUSH1 0x20 DUP4 ADD CALLDATACOPY PUSH1 0x0 SWAP2 DUP2 ADD PUSH1 0x20 ADD SWAP2 SWAP1 SWAP2 MSTORE SWAP4 SWAP3 POP POP POP JUMP JUMPDEST PUSH1 0x0 DUP1 PUSH1 0x0 PUSH1 0x60 DUP5 DUP7 SUB SLT ISZERO PUSH2 0x15B6 JUMPI PUSH1 0x0 DUP1 REVERT JUMPDEST DUP4 CALLDATALOAD SWAP3 POP PUSH1 0x20 DUP1 DUP6 ADD CALLDATALOAD PUSH8 0xFFFFFFFFFFFFFFFF DUP1 DUP3 GT ISZERO PUSH2 0x15D6 JUMPI PUSH1 0x0 DUP1 REVERT JUMPDEST DUP2 DUP8 ADD SWAP2 POP DUP8 PUSH1 0x1F DUP4 ADD SLT PUSH2 0x15EA JUMPI PUSH1 0x0 DUP1 REVERT JUMPDEST DUP2 CALLDATALOAD DUP2 DUP2 GT ISZERO PUSH2 0x15FC JUMPI PUSH2 0x15FC PUSH2 0x14C0 JUMP JUMPDEST DUP1 PUSH1 0x5 SHL PUSH2 0x160B DUP6 DUP3 ADD PUSH2 0x1500 JUMP JUMPDEST SWAP2 DUP3 MSTORE DUP4 DUP2 ADD DUP6 ADD SWAP2 DUP6 DUP2 ADD SWAP1 DUP12 DUP5 GT ISZERO PUSH2 0x1625 JUMPI PUSH1 0x0 DUP1 REVERT JUMPDEST DUP7 DUP7 ADD SWAP3 POP JUMPDEST DUP4 DUP4 LT ISZERO PUSH2 0x1661 JUMPI DUP3 CALLDATALOAD DUP6 DUP2 GT ISZERO PUSH2 0x1643 JUMPI PUSH1 0x0 DUP1 DUP2 REVERT JUMPDEST PUSH2 0x1651 DUP14 DUP10 DUP4 DUP11 ADD ADD PUSH2 0x1531 JUMP JUMPDEST DUP4 MSTORE POP SWAP2 DUP7 ADD SWAP2 SWAP1 DUP7 ADD SWAP1 PUSH2 0x162B JUMP JUMPDEST SWAP8 POP POP POP POP PUSH1 0x40 DUP8 ADD CALLDATALOAD SWAP3 POP DUP1 DUP4 GT ISZERO PUSH2 0x167A JUMPI PUSH1 0x0 DUP1 REVERT JUMPDEST POP POP PUSH2 0x1688 DUP7 DUP3 DUP8 ADD PUSH2 0x1531 JUMP JUMPDEST SWAP2 POP POP SWAP3 POP SWAP3 POP SWAP3 JUMP JUMPDEST PUSH1 0x0 PUSH1 0x20 DUP3 DUP5 SUB SLT ISZERO PUSH2 0x16A4 JUMPI PUSH1 0x0 DUP1 REVERT JUMPDEST POP CALLDATALOAD SWAP2 SWAP1 POP JUMP JUMPDEST PUSH1 0x0 PUSH1 0x20 DUP3 DUP5 SUB SLT ISZERO PUSH2 0x16BD JUMPI PUSH1 0x0 DUP1 REVERT JUMPDEST DUP2 CALLDATALOAD PUSH1 0x1 PUSH1 0x1 PUSH1 0xA0 SHL SUB DUP2 AND DUP2 EQ PUSH2 0x16D4 JUMPI PUSH1 0x0 DUP1 REVERT JUMPDEST SWAP4 SWAP3 POP POP POP JUMP JUMPDEST DUP1 CALLDATALOAD PUSH8 0xFFFFFFFFFFFFFFFF DUP2 AND DUP2 EQ PUSH2 0x16F3 JUMPI PUSH1 0x0 DUP1 REVERT JUMPDEST SWAP2 SWAP1 POP JUMP JUMPDEST DUP1 CALLDATALOAD PUSH4 0xFFFFFFFF DUP2 AND DUP2 EQ PUSH2 0x16F3 JUMPI PUSH1 0x0 DUP1 REVERT JUMPDEST PUSH1 0x0 DUP1 PUSH1 0x0 PUSH1 0x60 DUP5 DUP7 SUB SLT ISZERO PUSH2 0x1721 JUMPI PUSH1 0x0 DUP1 REVERT JUMPDEST DUP4 CALLDATALOAD SWAP3 POP PUSH1 0x20 DUP5 ADD CALLDATALOAD PUSH8 0xFFFFFFFFFFFFFFFF DUP1 DUP3 GT ISZERO PUSH2 0x1740 JUMPI PUSH1 0x0 DUP1 REVERT JUMPDEST SWAP1 DUP6 ADD SWAP1 PUSH2 0x160 DUP3 DUP9 SUB SLT ISZERO PUSH2 0x1755 JUMPI PUSH1 0x0 DUP1 REVERT JUMPDEST PUSH2 0x175D PUSH2 0x14D6 JUMP JUMPDEST DUP3 CALLDATALOAD DUP3 DUP2 GT ISZERO PUSH2 0x176C JUMPI PUSH1 0x0 DUP1 REVERT JUMPDEST PUSH2 0x1778 DUP10 DUP3 DUP7 ADD PUSH2 0x1531 JUMP JUMPDEST DUP3 MSTORE POP PUSH1 0x20 DUP4 ADD CALLDATALOAD DUP3 DUP2 GT ISZERO PUSH2 0x178D JUMPI PUSH1 0x0 DUP1 REVERT JUMPDEST PUSH2 0x1799 DUP10 DUP3 DUP7 ADD PUSH2 0x1531 JUMP JUMPDEST PUSH1 0x20 DUP4 ADD MSTORE POP PUSH1 0x40 DUP4 ADD CALLDATALOAD DUP3 DUP2 GT ISZERO PUSH2 0x17B1 JUMPI PUSH1 0x0 DUP1 REVERT JUMPDEST PUSH2 0x17BD DUP10 DUP3 DUP7 ADD PUSH2 0x1531 JUMP JUMPDEST PUSH1 0x40 DUP4 ADD MSTORE POP PUSH1 0x60 DUP4 ADD CALLDATALOAD DUP3 DUP2 GT ISZERO PUSH2 0x17D5 JUMPI PUSH1 0x0 DUP1 REVERT JUMPDEST PUSH2 0x17E1 DUP10 DUP3 DUP7 ADD PUSH2 0x1531 JUMP JUMPDEST PUSH1 0x60 DUP4 ADD MSTORE POP PUSH2 0x17F3 PUSH1 0x80 DUP5 ADD PUSH2 0x16DB JUMP JUMPDEST PUSH1 0x80 DUP3 ADD MSTORE PUSH1 0xA0 DUP4 ADD CALLDATALOAD DUP3 DUP2 GT ISZERO PUSH2 0x180A JUMPI PUSH1 0x0 DUP1 REVERT JUMPDEST PUSH2 0x1816 DUP10 DUP3 DUP7 ADD PUSH2 0x1531 JUMP JUMPDEST PUSH1 0xA0 DUP4 ADD MSTORE POP PUSH1 0xC0 DUP4 ADD CALLDATALOAD DUP3 DUP2 GT ISZERO PUSH2 0x182E JUMPI PUSH1 0x0 DUP1 REVERT JUMPDEST PUSH2 0x183A DUP10 DUP3 DUP7 ADD PUSH2 0x1531 JUMP JUMPDEST PUSH1 0xC0 DUP4 ADD MSTORE POP PUSH1 0xE0 DUP4 ADD CALLDATALOAD DUP3 DUP2 GT ISZERO PUSH2 0x1852 JUMPI PUSH1 0x0 DUP1 REVERT JUMPDEST PUSH2 0x185E DUP10 DUP3 DUP7 ADD PUSH2 0x1531 JUMP JUMPDEST PUSH1 0xE0 DUP4 ADD MSTORE POP PUSH2 0x100 PUSH2 0x1872 DUP2 DUP6 ADD PUSH2 0x16F8 JUMP JUMPDEST SWAP1 DUP3 ADD MSTORE PUSH2 0x120 PUSH2 0x1884 DUP5 DUP3 ADD PUSH2 0x16F8 JUMP JUMPDEST SWAP1 DUP3 ADD MSTORE PUSH2 0x140 PUSH2 0x1896 DUP5 DUP3 ADD PUSH2 0x16F8 JUMP JUMPDEST SWAP1 DUP3 ADD MSTORE SWAP4 POP PUSH1 0x40 DUP7 ADD CALLDATALOAD SWAP2 POP DUP1 DUP3 GT ISZERO PUSH2 0x18B0 JUMPI PUSH1 0x0 DUP1 REVERT JUMPDEST POP PUSH2 0x1688 DUP7 DUP3 DUP8 ADD PUSH2 0x1531 JUMP JUMPDEST PUSH1 0x0 DUP1 PUSH1 0x0 PUSH1 0x60 DUP5 DUP7 SUB SLT ISZERO PUSH2 0x18D2 JUMPI PUSH1 0x0 DUP1 REVERT JUMPDEST DUP4 CALLDATALOAD SWAP3 POP PUSH1 0x20 DUP5 ADD CALLDATALOAD PUSH8 0xFFFFFFFFFFFFFFFF DUP1 DUP3 GT ISZERO PUSH2 0x18F1 JUMPI PUSH1 0x0 DUP1 REVERT JUMPDEST PUSH2 0x18FD DUP8 DUP4 DUP9 ADD PUSH2 0x1531 JUMP JUMPDEST SWAP4 POP PUSH1 0x40 DUP7 ADD CALLDATALOAD SWAP2 POP DUP1 DUP3 GT ISZERO PUSH2 0x18B0 JUMPI PUSH1 0x0 DUP1 REVERT JUMPDEST PUSH1 0x0 JUMPDEST DUP4 DUP2 LT ISZERO PUSH2 0x192E JUMPI DUP2 DUP2 ADD MLOAD DUP4 DUP3 ADD MSTORE PUSH1 0x20 ADD PUSH2 0x1916 JUMP JUMPDEST POP POP PUSH1 0x0 SWAP2 ADD MSTORE JUMP JUMPDEST PUSH1 0x0 DUP2 MLOAD DUP1 DUP5 MSTORE PUSH2 0x194F DUP2 PUSH1 0x20 DUP7 ADD PUSH1 0x20 DUP7 ADD PUSH2 0x1913 JUMP JUMPDEST PUSH1 0x1F ADD PUSH1 0x1F NOT AND SWAP3 SWAP1 SWAP3 ADD PUSH1 0x20 ADD SWAP3 SWAP2 POP POP JUMP JUMPDEST PUSH1 0x20 DUP2 MSTORE PUSH1 0x0 PUSH2 0x16D4 PUSH1 0x20 DUP4 ADD DUP5 PUSH2 0x1937 JUMP JUMPDEST PUSH1 0x0 PUSH1 0x20 DUP3 DUP5 SUB SLT ISZERO PUSH2 0x1988 JUMPI PUSH1 0x0 DUP1 REVERT JUMPDEST DUP2 CALLDATALOAD PUSH8 0xFFFFFFFFFFFFFFFF DUP2 GT ISZERO PUSH2 0x199F JUMPI PUSH1 0x0 DUP1 REVERT JUMPDEST PUSH2 0x19AB DUP5 DUP3 DUP6 ADD PUSH2 0x1531 JUMP JUMPDEST SWAP5 SWAP4 POP POP POP POP JUMP JUMPDEST PUSH1 0x0 DUP1 PUSH1 0x40 DUP4 DUP6 SUB SLT ISZERO PUSH2 0x19C6 JUMPI PUSH1 0x0 DUP1 REVERT JUMPDEST DUP3 CALLDATALOAD PUSH8 0xFFFFFFFFFFFFFFFF DUP2 GT ISZERO PUSH2 0x19DD JUMPI PUSH1 0x0 DUP1 REVERT JUMPDEST PUSH2 0x19E9 DUP6 DUP3 DUP7 ADD PUSH2 0x1531 JUMP JUMPDEST SWAP3 POP POP PUSH1 0x20 DUP4 ADD CALLDATALOAD PUSH1 0xFF DUP2 AND DUP2 EQ PUSH2 0x1A00 JUMPI PUSH1 0x0 DUP1 REVERT JUMPDEST DUP1 SWAP2 POP POP SWAP3 POP SWAP3 SWAP1 POP JUMP JUMPDEST PUSH1 0x0 PUSH1 0x20 DUP1 DUP4 ADD PUSH1 0x20 DUP5 MSTORE DUP1 DUP6 MLOAD DUP1 DUP4 MSTORE PUSH1 0x40 DUP7 ADD SWAP2 POP PUSH1 0x40 DUP2 PUSH1 0x5 SHL DUP8 ADD ADD SWAP3 POP PUSH1 0x20 DUP8 ADD PUSH1 0x0 JUMPDEST DUP3 DUP2 LT ISZERO PUSH2 0x1A62 JUMPI PUSH1 0x3F NOT DUP9 DUP7 SUB ADD DUP5 MSTORE PUSH2 0x1A50 DUP6 DUP4 MLOAD PUSH2 0x1937 JUMP JUMPDEST SWAP5 POP SWAP3 DUP6 ADD SWAP3 SWAP1 DUP6 ADD SWAP1 PUSH1 0x1 ADD PUSH2 0x1A34 JUMP JUMPDEST POP SWAP3 SWAP8 SWAP7 POP POP POP POP POP POP POP JUMP JUMPDEST PUSH1 0x20 DUP1 DUP3 MSTORE PUSH1 0x14 SWAP1 DUP3 ADD MSTORE PUSH20 0x43616C6C6572206973206E6F74206F7261636C65 PUSH1 0x60 SHL PUSH1 0x40 DUP3 ADD MSTORE PUSH1 0x60 ADD SWAP1 JUMP JUMPDEST PUSH4 0x4E487B71 PUSH1 0xE0 SHL PUSH1 0x0 MSTORE PUSH1 0x11 PUSH1 0x4 MSTORE PUSH1 0x24 PUSH1 0x0 REVERT JUMPDEST DUP2 DUP2 SUB DUP2 DUP2 GT ISZERO PUSH2 0x1189 JUMPI PUSH2 0x1189 PUSH2 0x1A9D JUMP JUMPDEST PUSH4 0x4E487B71 PUSH1 0xE0 SHL PUSH1 0x0 MSTORE PUSH1 0x32 PUSH1 0x4 MSTORE PUSH1 0x24 PUSH1 0x0 REVERT JUMPDEST PUSH1 0x1 DUP2 DUP2 SHR SWAP1 DUP3 AND DUP1 PUSH2 0x1AF0 JUMPI PUSH1 0x7F DUP3 AND SWAP2 POP JUMPDEST PUSH1 0x20 DUP3 LT DUP2 SUB PUSH2 0x1B10 JUMPI PUSH4 0x4E487B71 PUSH1 0xE0 SHL PUSH1 0x0 MSTORE PUSH1 0x22 PUSH1 0x4 MSTORE PUSH1 0x24 PUSH1 0x0 REVERT JUMPDEST POP SWAP2 SWAP1 POP JUMP JUMPDEST PUSH1 0x0 DUP1 DUP4 SLOAD PUSH2 0x1B24 DUP2 PUSH2 0x1ADC JUMP JUMPDEST PUSH1 0x1 DUP3 DUP2 AND DUP1 ISZERO PUSH2 0x1B3C JUMPI PUSH1 0x1 DUP2 EQ PUSH2 0x1B51 JUMPI PUSH2 0x1B80 JUMP JUMPDEST PUSH1 0xFF NOT DUP5 AND DUP8 MSTORE DUP3 ISZERO ISZERO DUP4 MUL DUP8 ADD SWAP5 POP PUSH2 0x1B80 JUMP JUMPDEST DUP8 PUSH1 0x0 MSTORE PUSH1 0x20 DUP1 PUSH1 0x0 KECCAK256 PUSH1 0x0 JUMPDEST DUP6 DUP2 LT ISZERO PUSH2 0x1B77 JUMPI DUP2 SLOAD DUP11 DUP3 ADD MSTORE SWAP1 DUP5 ADD SWAP1 DUP3 ADD PUSH2 0x1B5E JUMP JUMPDEST POP POP POP DUP3 DUP8 ADD SWAP5 POP JUMPDEST POP SWAP3 SWAP7 SWAP6 POP POP POP POP POP POP JUMP JUMPDEST PUSH1 0x0 DUP3 MLOAD PUSH2 0x1B9E DUP2 DUP5 PUSH1 0x20 DUP8 ADD PUSH2 0x1913 JUMP JUMPDEST PUSH20 0x5052932B632BB30B73A1031B7B73A32BC3A1D05 PUSH1 0x61 SHL SWAP3 ADD SWAP2 DUP3 MSTORE POP PUSH1 0x14 ADD SWAP2 SWAP1 POP JUMP JUMPDEST PUSH1 0x0 DUP4 MLOAD PUSH2 0x1BD6 DUP2 DUP5 PUSH1 0x20 DUP9 ADD PUSH2 0x1913 JUMP JUMPDEST DUP4 MLOAD SWAP1 DUP4 ADD SWAP1 PUSH2 0x1BEA DUP2 DUP4 PUSH1 0x20 DUP9 ADD PUSH2 0x1913 JUMP JUMPDEST PUSH1 0x5 PUSH1 0xF9 SHL SWAP2 ADD SWAP1 DUP2 MSTORE PUSH1 0x1 ADD SWAP5 SWAP4 POP POP POP POP JUMP JUMPDEST PUSH1 0x1F DUP3 GT ISZERO PUSH2 0xB1A JUMPI PUSH1 0x0 DUP2 PUSH1 0x0 MSTORE PUSH1 0x20 PUSH1 0x0 KECCAK256 PUSH1 0x1F DUP6 ADD PUSH1 0x5 SHR DUP2 ADD PUSH1 0x20 DUP7 LT ISZERO PUSH2 0x1C28 JUMPI POP DUP1 JUMPDEST PUSH1 0x1F DUP6 ADD PUSH1 0x5 SHR DUP3 ADD SWAP2 POP JUMPDEST DUP2 DUP2 LT ISZERO PUSH2 0x1C47 JUMPI DUP3 DUP2 SSTORE PUSH1 0x1 ADD PUSH2 0x1C34 JUMP JUMPDEST POP POP POP POP POP POP JUMP JUMPDEST DUP2 MLOAD PUSH8 0xFFFFFFFFFFFFFFFF DUP2 GT ISZERO PUSH2 0x1C69 JUMPI PUSH2 0x1C69 PUSH2 0x14C0 JUMP JUMPDEST PUSH2 0x1C7D DUP2 PUSH2 0x1C77 DUP5 SLOAD PUSH2 0x1ADC JUMP JUMPDEST DUP5 PUSH2 0x1BFF JUMP JUMPDEST PUSH1 0x20 DUP1 PUSH1 0x1F DUP4 GT PUSH1 0x1 DUP2 EQ PUSH2 0x1CB2 JUMPI PUSH1 0x0 DUP5 ISZERO PUSH2 0x1C9A JUMPI POP DUP6 DUP4 ADD MLOAD JUMPDEST PUSH1 0x0 NOT PUSH1 0x3 DUP7 SWAP1 SHL SHR NOT AND PUSH1 0x1 DUP6 SWAP1 SHL OR DUP6 SSTORE PUSH2 0x1C47 JUMP JUMPDEST PUSH1 0x0 DUP6 DUP2 MSTORE PUSH1 0x20 DUP2 KECCAK256 PUSH1 0x1F NOT DUP7 AND SWAP2 JUMPDEST DUP3 DUP2 LT ISZERO PUSH2 0x1CE1 JUMPI DUP9 DUP7 ADD MLOAD DUP3 SSTORE SWAP5 DUP5 ADD SWAP5 PUSH1 0x1 SWAP1 SWAP2 ADD SWAP1 DUP5 ADD PUSH2 0x1CC2 JUMP JUMPDEST POP DUP6 DUP3 LT ISZERO PUSH2 0x1CFF JUMPI DUP8 DUP6 ADD MLOAD PUSH1 0x0 NOT PUSH1 0x3 DUP9 SWAP1 SHL PUSH1 0xF8 AND SHR NOT AND DUP2 SSTORE JUMPDEST POP POP POP POP POP PUSH1 0x1 SWAP1 DUP2 SHL ADD SWAP1 SSTORE POP JUMP JUMPDEST PUSH1 0x0 DUP2 SLOAD PUSH2 0x1D1C DUP2 PUSH2 0x1ADC JUMP JUMPDEST DUP1 DUP6 MSTORE PUSH1 0x20 PUSH1 0x1 DUP4 DUP2 AND DUP1 ISZERO PUSH2 0x1D39 JUMPI PUSH1 0x1 DUP2 EQ PUSH2 0x1D53 JUMPI PUSH2 0x1D81 JUMP JUMPDEST PUSH1 0xFF NOT DUP6 AND DUP9 DUP5 ADD MSTORE DUP4 ISZERO ISZERO PUSH1 0x5 SHL DUP9 ADD DUP4 ADD SWAP6 POP PUSH2 0x1D81 JUMP JUMPDEST DUP7 PUSH1 0x0 MSTORE DUP3 PUSH1 0x0 KECCAK256 PUSH1 0x0 JUMPDEST DUP6 DUP2 LT ISZERO PUSH2 0x1D79 JUMPI DUP2 SLOAD DUP11 DUP3 ADD DUP7 ADD MSTORE SWAP1 DUP4 ADD SWAP1 DUP5 ADD PUSH2 0x1D5E JUMP JUMPDEST DUP10 ADD DUP5 ADD SWAP7 POP POP JUMPDEST POP POP POP POP POP SWAP3 SWAP2 POP POP JUMP JUMPDEST DUP3 DUP2 MSTORE PUSH1 0x40 PUSH1 0x20 DUP3 ADD MSTORE PUSH1 0x0 PUSH2 0x1A0 DUP1 PUSH1 0x40 DUP5 ADD MSTORE PUSH2 0x1DAF PUSH2 0x1E0 DUP5 ADD DUP6 PUSH2 0x1D0F JUMP JUMPDEST PUSH1 0x1 DUP6 ADD SLOAD PUSH1 0x0 SIGNEXTEND PUSH1 0x60 DUP6 ADD MSTORE PUSH1 0x3F NOT DUP5 DUP3 SUB DUP2 ADD PUSH1 0x80 DUP7 ADD MSTORE PUSH2 0x1DD6 DUP3 PUSH1 0x2 DUP9 ADD PUSH2 0x1D0F JUMP JUMPDEST PUSH1 0x3 DUP8 ADD SLOAD PUSH4 0xFFFFFFFF DUP2 AND PUSH1 0xA0 DUP9 ADD MSTORE PUSH1 0x20 SHR PUSH1 0x0 SIGNEXTEND PUSH1 0xC0 DUP8 ADD MSTORE DUP6 DUP2 SUB DUP3 ADD PUSH1 0xE0 DUP8 ADD MSTORE SWAP2 POP PUSH2 0x1E0B DUP3 PUSH1 0x4 DUP9 ADD PUSH2 0x1D0F JUMP JUMPDEST SWAP2 POP PUSH1 0x5 DUP7 ADD SLOAD PUSH2 0x100 DUP7 ADD MSTORE DUP1 DUP6 DUP4 SUB ADD PUSH2 0x120 DUP7 ADD MSTORE PUSH2 0x1E30 DUP3 PUSH1 0x6 DUP9 ADD PUSH2 0x1D0F JUMP JUMPDEST SWAP2 POP PUSH1 0x7 DUP7 ADD SLOAD PUSH2 0x140 DUP7 ADD MSTORE PUSH1 0x8 DUP7 ADD SLOAD PUSH2 0x160 DUP7 ADD MSTORE DUP1 DUP6 DUP4 SUB ADD PUSH2 0x180 DUP7 ADD MSTORE PUSH2 0x1E60 DUP3 PUSH1 0x9 DUP9 ADD PUSH2 0x1D0F JUMP JUMPDEST SWAP2 POP DUP1 DUP6 DUP4 SUB ADD DUP4 DUP7 ADD MSTORE PUSH2 0x1E78 DUP3 PUSH1 0xA DUP9 ADD PUSH2 0x1D0F JUMP JUMPDEST SWAP3 POP DUP1 DUP6 DUP5 SUB ADD PUSH2 0x1C0 DUP7 ADD MSTORE POP POP PUSH2 0x1E94 DUP2 PUSH1 0xB DUP7 ADD PUSH2 0x1D0F JUMP JUMPDEST SWAP6 SWAP5 POP POP POP POP POP JUMP JUMPDEST PUSH1 0x0 PUSH1 0x20 DUP3 DUP5 SUB SLT ISZERO PUSH2 0x1EAF JUMPI PUSH1 0x0 DUP1 REVERT JUMPDEST POP MLOAD SWAP2 SWAP1 POP JUMP JUMPDEST PUSH1 0x0 PUSH1 0x1 DUP3 ADD PUSH2 0x1EC8 JUMPI PUSH2 0x1EC8 PUSH2 0x1A9D JUMP JUMPDEST POP PUSH1 0x1 ADD SWAP1 JUMP JUMPDEST DUP4 DUP2 MSTORE PUSH1 0x60 PUSH1 0x20 DUP3 ADD MSTORE PUSH1 0x0 PUSH2 0x1EE8 PUSH1 0x60 DUP4 ADD DUP6 PUSH2 0x1937 JUMP JUMPDEST DUP3 DUP2 SUB PUSH1 0x40 DUP5 ADD MSTORE PUSH2 0x1EFA DUP2 DUP6 PUSH2 0x1937 JUMP JUMPDEST SWAP7 SWAP6 POP POP POP POP POP POP JUMP JUMPDEST PUSH1 0x0 DUP3 MLOAD PUSH2 0x1F16 DUP2 DUP5 PUSH1 0x20 DUP8 ADD PUSH2 0x1913 JUMP JUMPDEST SWAP2 SWAP1 SWAP2 ADD SWAP3 SWAP2 POP POP JUMP JUMPDEST DUP1 DUP3 ADD DUP1 DUP3 GT ISZERO PUSH2 0x1189 JUMPI PUSH2 0x1189 PUSH2 0x1A9D JUMP JUMPDEST DUP5 DUP2 MSTORE PUSH1 0x80 PUSH1 0x20 DUP3 ADD MSTORE PUSH1 0x0 PUSH2 0x1F4C PUSH1 0x80 DUP4 ADD DUP7 PUSH2 0x1D0F JUMP JUMPDEST DUP3 DUP2 SUB PUSH1 0x40 DUP5 ADD MSTORE PUSH2 0x1F5E DUP2 DUP7 PUSH2 0x1937 JUMP JUMPDEST SWAP2 POP POP PUSH4 0xFFFFFFFF DUP4 AND PUSH1 0x60 DUP4 ADD MSTORE SWAP6 SWAP5 POP POP POP POP POP JUMP INVALID POP PUSH13 0x656173652067656E6572617465 KECCAK256 PUSH2 0x2063 PUSH16 0x766572206C6574746572206261736564 KECCAK256 PUSH16 0x6E207468652070726F7669646564206A PUSH16 0x62206465736372697074696F6E2E2054 PUSH9 0x6520636F766572206C PUSH6 0x747465722073 PUSH9 0x6F756C642068696768 PUSH13 0x69676874206D79207375697461 PUSH3 0x696C69 PUSH21 0x7920666F722074686520706F736974696F6E2C2065 PUSH14 0x70686173697A696E67206D792072 PUSH6 0x6C6576616E74 KECCAK256 PUSH20 0x6B696C6C7320616E6420657870657269656E6365 PUSH20 0x2E20496E636C756465206120636F6D70656C6C69 PUSH15 0x6720696E74726F64756374696F6E2C KECCAK256 PUSH5 0x657461696C PUSH6 0x6420626F6479 KECCAK256 PUSH17 0x617261677261706873207468617420616C PUSH10 0x676E206D79207175616C PUSH10 0x6669636174696F6E7320 PUSH24 0x69746820746865206A6F6220726571756972656D656E7473 0x2C KECCAK256 PUSH2 0x6E64 KECCAK256 PUSH2 0x2073 PUSH21 0x726F6E6720636F6E636C7573696F6E207769746820 PUSH2 0x2063 PUSH13 0x6561722063616C6C20746F2061 PUSH4 0x74696F6E 0x2E KECCAK256 BLOBHASH PUSH21 0x2073686F756C6420696E636C756465206E65636573 PUSH20 0x617279207461677320746F206D616B6520746865 KECCAK256 PUSH5 0x6973706C61 PUSH26 0x2061707065616C696E6720617320612070726F66657373696F6E PUSH2 0x6C20 POP PREVRANDAO CHAINID KECCAK256 PUSH16 0x7220444F43582066696C652E506C6561 PUSH20 0x6520616E616C797A652074686520646966666572 PUSH6 0x6E6365732062 PUSH6 0x747765656E20 PUSH21 0x686520696E697469616C20726573756D6520616E64 KECCAK256 PUSH21 0x6865206E65776C792067656E657261746564207461 PUSH10 0x6C6F7265642072657375 PUSH14 0x652E2050726F7669646520612070 PUSH6 0x7263656E7461 PUSH8 0x6520696E64696361 PUSH21 0x696E6720686F772077656C6C20746865206E657720 PUSH19 0x6573756D65206D61746368657320746865206A PUSH16 0x62206465736372697074696F6E2C2068 PUSH10 0x67686C69676874696E67 KECCAK256 PUSH20 0x70656369666963206368616E67657320616E6420 PUSH10 0x6D70726F76656D656E74 PUSH20 0x2E20416C736F2C207772697465206F7574207468 PUSH6 0x204154532D66 PUSH19 0x69656E646C7920707261637469636573207468 PUSH2 0x7420 PUSH24 0x65726520666F6C6C6F77656420696E20746865206E657720 PUSH19 0x6573756D652E20496E636C756465206E656365 PUSH20 0x73617279207461677320696E2061206C69737465 PUSH5 0x20666F726D PUSH2 0x7420 PUSH21 0x6F20656E7375726520746865206F75747075742069 PUSH20 0x207375697461626C6520666F722070726F666573 PUSH20 0x696F6E616C20504446206F7220444F4358207072 PUSH6 0x73656E746174 PUSH10 0x6F6E2EA2646970667358 0x22 SLT KECCAK256 0xBA 0x29 PUSH1 0xB1 DUP9 PUSH25 0xC2A288B6C332AB48923177398C638C9FB9F0E85763B9B8610A 0xAA PUSH5 0x736F6C6343 STOP ADDMOD XOR STOP CALLER JUMPDEST PUSH28 0x2274797065223A2266756E6374696F6E222C2266756E6374696F6E22 GASPRICE PUSH28 0x226E616D65223A227765625F736561726368222C2264657363726970 PUSH21 0x696F6E223A225365617263682074686520696E7465 PUSH19 0x6E6574222C22706172616D6574657273223A7B 0x22 PUSH21 0x797065223A226F626A656374222C2270726F706572 PUSH21 0x696573223A7B227175657279223A7B227479706522 GASPRICE 0x22 PUSH20 0x7472696E67222C226465736372697074696F6E22 GASPRICE 0x22 MSTORE8 PUSH6 0x617263682071 PUSH22 0x657279227D7D2C227265717569726564223A5B227175 PUSH6 0x7279225D7D7D PUSH30 0x2C7B2274797065223A2266756E6374696F6E222C2266756E6374696F6E22 GASPRICE PUSH28 0x226E616D65223A22696D6167655F67656E65726174696F6E222C2264 PUSH6 0x736372697074 PUSH10 0x6F6E223A2247656E6572 PUSH2 0x7465 PUSH20 0x20616E20696D616765207573696E672044616C6C PUSH6 0x2D32222C2270 PUSH2 0x7261 PUSH14 0x6574657273223A7B227479706522 GASPRICE 0x22 PUSH16 0x626A656374222C2270726F7065727469 PUSH6 0x73223A7B2270 PUSH19 0x6F6D7074223A7B2274797065223A2273747269 PUSH15 0x67222C226465736372697074696F6E 0x22 GASPRICE 0x22 PREVRANDAO PUSH2 0x6C6C PUSH6 0x2D322070726F PUSH14 0x707420746F2067656E6572617465 KECCAK256 PUSH2 0x6E20 PUSH10 0x6D616765227D7D2C2272 PUSH6 0x717569726564 0x22 GASPRICE JUMPDEST 0x22 PUSH17 0x726F6D7074225D7D7D7D5D000000000000 "},"methodIdentifiers":{"agentRuns(uint256)":"c63b0295","getMessageHistoryContents(uint256)":"eb17429a","getMessageHistoryRoles(uint256)":"ed6e39e5","isRunFinished(uint256)":"2eab9c81","knowledgeBase()":"f997cc25","onOracleFunctionResponse(uint256,string,string)":"7397454d","onOracleKnowledgeBaseQueryResponse(uint256,string[],string)":"2843d135","onOracleOpenAiLlmResponse(uint256,(string,string,string,string,uint64,string,string,string,uint32,uint32,uint32),string)":"4cecd88e","oracleAddress()":"a89ae4ba","prompt()":"7c65d711","runAgent(string,uint8)":"daec051f","setKnowledgeBaseCid(string)":"ccac7a91","setOracleAddress(address)":"4c69c00f"}}}}}