{"contracts/ChatGpt.sol":{"ChatGpt":{"abi":[{"inputs":[{"internalType":"address","name":"initialOracleAddress","type":"address"}],"stateMutability":"nonpayable","type":"constructor"},{"anonymous":false,"inputs":[{"indexed":true,"internalType":"address","name":"owner","type":"address"},{"indexed":true,"internalType":"uint256","name":"chatId","type":"uint256"}],"name":"ChatCreated","type":"event"},{"anonymous":false,"inputs":[{"indexed":true,"internalType":"address","name":"newOracleAddress","type":"address"}],"name":"OracleAddressUpdated","type":"event"},{"anonymous":false,"inputs":[{"indexed":true,"internalType":"string","name":"knowledgeBase","type":"string"}],"name":"knowledgeBaseUpdated","type":"event"},{"inputs":[{"internalType":"string","name":"message","type":"string"},{"internalType":"uint256","name":"runId","type":"uint256"}],"name":"addMessage","outputs":[],"stateMutability":"nonpayable","type":"function"},{"inputs":[{"internalType":"uint256","name":"","type":"uint256"}],"name":"chatRuns","outputs":[{"internalType":"address","name":"owner","type":"address"},{"internalType":"uint256","name":"messagesCount","type":"uint256"}],"stateMutability":"view","type":"function"},{"inputs":[{"internalType":"uint256","name":"chatId","type":"uint256"}],"name":"getMessageHistoryContents","outputs":[{"internalType":"string[]","name":"","type":"string[]"}],"stateMutability":"view","type":"function"},{"inputs":[{"internalType":"uint256","name":"chatId","type":"uint256"}],"name":"getMessageHistoryRoles","outputs":[{"internalType":"string[]","name":"","type":"string[]"}],"stateMutability":"view","type":"function"},{"inputs":[],"name":"knowledgeBase","outputs":[{"internalType":"string","name":"","type":"string"}],"stateMutability":"view","type":"function"},{"inputs":[{"internalType":"uint256","name":"runId","type":"uint256"},{"internalType":"string[]","name":"documents","type":"string[]"},{"internalType":"string","name":"","type":"string"}],"name":"onOracleKnowledgeBaseQueryResponse","outputs":[],"stateMutability":"nonpayable","type":"function"},{"inputs":[{"internalType":"uint256","name":"runId","type":"uint256"},{"internalType":"string","name":"response","type":"string"},{"internalType":"string","name":"","type":"string"}],"name":"onOracleLlmResponse","outputs":[],"stateMutability":"nonpayable","type":"function"},{"inputs":[],"name":"oracleAddress","outputs":[{"internalType":"address","name":"","type":"address"}],"stateMutability":"view","type":"function"},{"inputs":[{"internalType":"string","name":"knowledgeBaseCID","type":"string"}],"name":"setKnowledgeCid","outputs":[],"stateMutability":"nonpayable","type":"function"},{"inputs":[{"internalType":"address","name":"newOracleAddress","type":"address"}],"name":"setOracleAddress","outputs":[],"stateMutability":"nonpayable","type":"function"},{"inputs":[{"internalType":"string","name":"message","type":"string"}],"name":"startChat","outputs":[{"internalType":"uint256","name":"i","type":"uint256"}],"stateMutability":"nonpayable","type":"function"}],"evm":{"bytecode":{"linkReferences":{},"object":"608060405234801561001057600080fd5b50604051611d57380380611d5783398101604081905261002f91610062565b60028054336001600160a01b031991821617909155600380549091166001600160a01b0392909216919091179055610092565b60006020828403121561007457600080fd5b81516001600160a01b038116811461008b57600080fd5b9392505050565b611cb6806100a16000396000f3fe608060405234801561001057600080fd5b50600436106100a95760003560e01c8063941fac3711610071578063941fac3714610161578063a1b67ed114610174578063a89ae4ba14610187578063eb17429a146101b2578063ed6e39e5146101d2578063f997cc25146101e557600080fd5b806314a74148146100ae5780632843d135146100c35780632d08d82a146100d65780634c69c00f146100fc578063632cc98b1461010f575b600080fd5b6100c16100bc36600461142d565b6101fa565b005b6100c16100d1366004611462565b61027c565b6100e96100e436600461142d565b61059f565b6040519081526020015b60405180910390f35b6100c161010a366004611553565b610897565b61014261011d366004611583565b600060208190529081526040902080546002909101546001600160a01b039091169082565b604080516001600160a01b0390931683526020830191909152016100f3565b6100c161016f36600461159c565b61090b565b6100c16101823660046115e1565b610cd0565b60035461019a906001600160a01b031681565b6040516001600160a01b0390911681526020016100f3565b6101c56101c0366004611583565b610edf565b6040516100f39190611694565b6101c56101e0366004611583565b611048565b6101ed6111aa565b6040516100f391906116f8565b6002546001600160a01b0316331461022d5760405162461bcd60e51b81526004016102249061170b565b60405180910390fd5b600461023982826117c3565b5060046040516102499190611883565b604051908190038120907fe773674c9afe9eb71c9dfebd839da85bc99f774588c1004dd646256a878b2f1790600090a250565b6002546001600160a01b031633146102a65760405162461bcd60e51b81526004016102249061170b565b6102c8604051806060016040528060348152602001611c116034913984611238565b6000838152602081815260409182902091516102ef9101633ab9b2b960e11b815260040190565b60405160208183030381529060405280519060200120816001016001836002015461031a919061190f565b8154811061032a5761032a611928565b906000526020600020906002020160000160405160200161034b9190611883565b60405160208183030381529060405280519060200120146103ae5760405162461bcd60e51b815260206004820152601c60248201527f4e6f206d65737361676520746f2061646420636f6e7465787420746f000000006044820152606401610224565b600081600101600183600201546103c5919061190f565b815481106103d5576103d5611928565b9060005260206000209060020201905060008160010180546103f690611738565b80601f016020809104026020016040519081016040528092919081815260200182805461042290611738565b801561046f5780601f106104445761010080835404028352916020019161046f565b820191906000526020600020905b81548152906001019060200180831161045257829003601f168201915b505050505090506000855111156104a35780604051602001610491919061193e565b60405160208183030381529060405290505b60005b85518110156104f557818682815181106104c2576104c2611928565b60200260200101516040516020016104db929190611976565b60408051601f1981840301815291905291506001016104a6565b506001820161050482826117c3565b506105276040518060600160405280602c8152602001611b90602c913987611238565b600354604051636c4e899160e11b8152600481018890526001600160a01b039091169063d89d1322906024016020604051808303816000875af1158015610572573d6000803e3d6000fd5b505050506040513d601f19601f8201168201806040525081019061059691906119b1565b50505050505050565b60006105e06040518060400160405280601e81526020017f7374617274436861742063616c6c65642077697468206d6573736167653a000081525083611281565b6001805460009081526020818152604080832080546001600160a01b031916331781558151808301835260608152808401889052825180840190935260048352633ab9b2b960e11b8385015291825280850180549586018155845291909220825191938392600290910290910190819061065a90826117c3565b506020820151600182019061066f90826117c3565b5050600160028401819055805491506106899082906119ca565b60015560408051808201909152601d81527f4e657720636861742072756e206372656174656420776974682049443a00000060208201526106ca9082611238565b6000600480546106d990611738565b9050111561079d5761071f6040518060400160405280601d81526020017f4372656174696e67206b6e6f776c6564676520626173652071756572790000008152506112c6565b6003805460405163a252a95160e01b81526001600160a01b039091169163a252a951916107549185916004918b9183016119dd565b6020604051808303816000875af1158015610773573d6000803e3d6000fd5b505050506040513d601f19601f8201168201806040525081019061079791906119b1565b50610840565b6107cf6040518060400160405280601181526020017010dc99585d1a5b99c81313134818d85b1b607a1b8152506112c6565b600354604051636c4e899160e11b8152600481018390526001600160a01b039091169063d89d1322906024016020604051808303816000875af115801561081a573d6000803e3d6000fd5b505050506040513d601f19601f8201168201806040525081019061083e91906119b1565b505b604051819033907fd1de2c4de50323207202f3df0bb1dec1a42e233aec245f25519d674c10bd72ca90600090a361088f604051806060016040528060268152602001611b486026913982611238565b949350505050565b6002546001600160a01b031633146108c15760405162461bcd60e51b81526004016102249061170b565b600380546001600160a01b0319166001600160a01b0383169081179091556040517f107a9fafffb7ac890f780879e423760c9ffea8dcee8045681f40f542aede2cb890600090a250565b61096e6040518060400160405280601f81526020017f6164644d6573736167652063616c6c65642077697468206d6573736167653a00815250836040518060400160405280600a8152602001693337b910393ab724b21d60b11b8152508461130c565b60008181526020818152604091829020915161099a910168185cdcda5cdd185b9d60ba1b815260090190565b6040516020818303038152906040528051906020012081600101600183600201546109c5919061190f565b815481106109d5576109d5611928565b90600052602060002090600202016000016040516020016109f69190611883565b6040516020818303038152906040528051906020012014610a595760405162461bcd60e51b815260206004820152601f60248201527f4e6f20726573706f6e736520746f2070726576696f7573206d657373616765006044820152606401610224565b80546001600160a01b03163314610ab25760405162461bcd60e51b815260206004820181905260248201527f4f6e6c792063686174206f776e65722063616e20616464206d657373616765736044820152606401610224565b604080518082018252606081526020808201869052825180840190935260048352633ab9b2b960e11b838201529181526001838101805491820181556000908152929092208151919283926002909102909101908190610b1290826117c3565b5060208201516001820190610b2790826117c3565b505050600282018054906000610b3c83611a9c565b9190505550610b806040518060400160405280602081526020017f4e65772075736572206d65737361676520616464656420746f2072756e49643a81525084611238565b600060048054610b8f90611738565b90501115610c3757610bb96040518060600160405280603c8152602001611c45603c913984611238565b6003805460405163a252a95160e01b81526001600160a01b039091169163a252a95191610bee9187916004918a9183016119dd565b6020604051808303816000875af1158015610c0d573d6000803e3d6000fd5b505050506040513d601f19601f82011682018060405250810190610c3191906119b1565b50610cca565b610c59604051806060016040528060308152602001611bbc6030913984611238565b600354604051636c4e899160e11b8152600481018590526001600160a01b039091169063d89d1322906024016020604051808303816000875af1158015610ca4573d6000803e3d6000fd5b505050506040513d601f19601f82011682018060405250810190610cc891906119b1565b505b50505050565b6003546001600160a01b03163314610d215760405162461bcd60e51b815260206004820152601460248201527343616c6c6572206973206e6f74206f7261636c6560601b6044820152606401610224565b610d43604051806060016040528060258152602001611bec6025913984611238565b600083815260208181526040918290209151610d6a9101633ab9b2b960e11b815260040190565b604051602081830303815290604052805190602001208160010160018360020154610d95919061190f565b81548110610da557610da5611928565b9060005260206000209060020201600001604051602001610dc69190611883565b6040516020818303038152906040528051906020012014610e295760405162461bcd60e51b815260206004820152601860248201527f4e6f206d65737361676520746f20726573706f6e6420746f00000000000000006044820152606401610224565b60408051808201825260608152602080820186905282518084019093526009835268185cdcda5cdd185b9d60ba1b838201529181526001838101805491820181556000908152929092208151919283926002909102909101908190610e8e90826117c3565b5060208201516001820190610ea390826117c3565b505050600282018054906000610eb883611a9c565b9190505550610cc8604051806060016040528060228152602001611b6e6022913986611238565b6000818152602081905260408120600101546060919067ffffffffffffffff811115610f0d57610f0d611376565b604051908082528060200260200182016040528015610f4057816020015b6060815260200190600190039081610f2b5790505b50905060005b600084815260208190526040902060010154811015611041576000848152602081905260409020600101805482908110610f8257610f82611928565b90600052602060002090600202016001018054610f9e90611738565b80601f0160208091040260200160405190810160405280929190818152602001828054610fca90611738565b80156110175780601f10610fec57610100808354040283529160200191611017565b820191906000526020600020905b815481529060010190602001808311610ffa57829003601f168201915b505050505082828151811061102e5761102e611928565b6020908102919091010152600101610f46565b5092915050565b6000818152602081905260408120600101546060919067ffffffffffffffff81111561107657611076611376565b6040519080825280602002602001820160405280156110a957816020015b60608152602001906001900390816110945790505b50905060005b6000848152602081905260409020600101548110156110415760008481526020819052604090206001018054829081106110eb576110eb611928565b9060005260206000209060020201600001805461110790611738565b80601f016020809104026020016040519081016040528092919081815260200182805461113390611738565b80156111805780601f1061115557610100808354040283529160200191611180565b820191906000526020600020905b81548152906001019060200180831161116357829003601f168201915b505050505082828151811061119757611197611928565b60209081029190910101526001016110af565b600480546111b790611738565b80601f01602080910402602001604051908101604052809291908181526020018280546111e390611738565b80156112305780601f1061120557610100808354040283529160200191611230565b820191906000526020600020905b81548152906001019060200180831161121357829003601f168201915b505050505081565b61127d828260405160240161124e929190611ab5565b60408051601f198184030181529190526020810180516001600160e01b0316632d839cb360e21b179052611351565b5050565b61127d8282604051602401611297929190611ad7565b60408051601f198184030181529190526020810180516001600160e01b0316634b5c427760e01b179052611351565b611309816040516024016112da91906116f8565b60408051601f198184030181529190526020810180516001600160e01b031663104c13eb60e21b179052611351565b50565b610cca848484846040516024016113269493929190611afc565b60408051601f198184030181529190526020810180516001600160e01b0316638eafb02b60e01b1790525b6113098160006a636f6e736f6c652e6c6f679050600080835160208501845afa505050565b634e487b7160e01b600052604160045260246000fd5b604051601f8201601f1916810167ffffffffffffffff811182821017156113b5576113b5611376565b604052919050565b600082601f8301126113ce57600080fd5b813567ffffffffffffffff8111156113e8576113e8611376565b6113fb601f8201601f191660200161138c565b81815284602083860101111561141057600080fd5b816020850160208301376000918101602001919091529392505050565b60006020828403121561143f57600080fd5b813567ffffffffffffffff81111561145657600080fd5b61088f848285016113bd565b60008060006060848603121561147757600080fd5b8335925060208085013567ffffffffffffffff8082111561149757600080fd5b818701915087601f8301126114ab57600080fd5b8135818111156114bd576114bd611376565b8060051b6114cc85820161138c565b918252838101850191858101908b8411156114e657600080fd5b86860192505b83831015611522578235858111156115045760008081fd5b6115128d89838a01016113bd565b83525091860191908601906114ec565b9750505050604087013592508083111561153b57600080fd5b5050611549868287016113bd565b9150509250925092565b60006020828403121561156557600080fd5b81356001600160a01b038116811461157c57600080fd5b9392505050565b60006020828403121561159557600080fd5b5035919050565b600080604083850312156115af57600080fd5b823567ffffffffffffffff8111156115c657600080fd5b6115d2858286016113bd565b95602094909401359450505050565b6000806000606084860312156115f657600080fd5b83359250602084013567ffffffffffffffff8082111561161557600080fd5b611621878388016113bd565b9350604086013591508082111561163757600080fd5b50611549868287016113bd565b60005b8381101561165f578181015183820152602001611647565b50506000910152565b60008151808452611680816020860160208601611644565b601f01601f19169290920160200192915050565b600060208083016020845280855180835260408601915060408160051b87010192506020870160005b828110156116eb57603f198886030184526116d9858351611668565b945092850192908501906001016116bd565b5092979650505050505050565b60208152600061157c6020830184611668565b60208082526013908201527221b0b63632b91034b9903737ba1037bbb732b960691b604082015260600190565b600181811c9082168061174c57607f821691505b60208210810361176c57634e487b7160e01b600052602260045260246000fd5b50919050565b601f8211156117be576000816000526020600020601f850160051c8101602086101561179b5750805b601f850160051c820191505b818110156117ba578281556001016117a7565b5050505b505050565b815167ffffffffffffffff8111156117dd576117dd611376565b6117f1816117eb8454611738565b84611772565b602080601f831160018114611826576000841561180e5750858301515b600019600386901b1c1916600185901b1785556117ba565b600085815260208120601f198616915b8281101561185557888601518255948401946001909101908401611836565b50858210156118735787850151600019600388901b60f8161c191681555b5050505050600190811b01905550565b600080835461189181611738565b600182811680156118a957600181146118be576118ed565b60ff19841687528215158302870194506118ed565b8760005260208060002060005b858110156118e45781548a8201529084019082016118cb565b50505082870194505b50929695505050505050565b634e487b7160e01b600052601160045260246000fd5b81810381811115611922576119226118f9565b92915050565b634e487b7160e01b600052603260045260246000fd5b60008251611950818460208701611644565b7305052932b632bb30b73a1031b7b73a32bc3a1d0560611b920191825250601401919050565b60008351611988818460208801611644565b83519083019061199c818360208801611644565b600560f91b9101908152600101949350505050565b6000602082840312156119c357600080fd5b5051919050565b80820180821115611922576119226118f9565b8481526000602060806020840152600086546119f881611738565b80608087015260a0600180841660008114611a1a5760018114611a3657611a66565b60ff19851660a08a015260a084151560051b8a01019550611a66565b8b600052602060002060005b85811015611a5d5781548b8201860152908301908801611a42565b8a0160a0019650505b50505050508381036040850152611a7d8187611668565b92505050611a93606083018463ffffffff169052565b95945050505050565b600060018201611aae57611aae6118f9565b5060010190565b604081526000611ac86040830185611668565b90508260208301529392505050565b604081526000611aea6040830185611668565b8281036020840152611a938185611668565b608081526000611b0f6080830187611668565b8281036020840152611b218187611668565b90508281036040840152611b358186611668565b9150508260608301529594505050505056fe4368617443726561746564206576656e7420656d697474656420666f7220636861742049443a417373697374616e7420726573706f6e736520616464656420746f2072756e49643a436f6e7465787420616464656420746f20746865206c617374206d65737361676520666f722072756e49643a4372656174696e67204c4c4d2063616c6c20666f72206e65772075736572206d65737361676520696e2072756e49643a6f6e4f7261636c654c6c6d526573706f6e73652063616c6c656420666f722072756e49643a6f6e4f7261636c654b6e6f776c65646765426173655175657279526573706f6e73652063616c6c656420666f722072756e49643a4372656174696e67206b6e6f776c65646765206261736520717565727920666f72206e65772075736572206d65737361676520696e2072756e49643aa2646970667358221220f7f1307d2609d71bfe9a327838e6ec9e364f41aeaf3b0e329620e8956bd0b6b864736f6c63430008180033","opcodes":"PUSH1 0x80 PUSH1 0x40 MSTORE CALLVALUE DUP1 ISZERO PUSH2 0x10 JUMPI PUSH1 0x0 DUP1 REVERT JUMPDEST POP PUSH1 0x40 MLOAD PUSH2 0x1D57 CODESIZE SUB DUP1 PUSH2 0x1D57 DUP4 CODECOPY DUP2 ADD PUSH1 0x40 DUP2 SWAP1 MSTORE PUSH2 0x2F SWAP2 PUSH2 0x62 JUMP JUMPDEST PUSH1 0x2 DUP1 SLOAD CALLER PUSH1 0x1 PUSH1 0x1 PUSH1 0xA0 SHL SUB NOT SWAP2 DUP3 AND OR SWAP1 SWAP2 SSTORE PUSH1 0x3 DUP1 SLOAD SWAP1 SWAP2 AND PUSH1 0x1 PUSH1 0x1 PUSH1 0xA0 SHL SUB SWAP3 SWAP1 SWAP3 AND SWAP2 SWAP1 SWAP2 OR SWAP1 SSTORE PUSH2 0x92 JUMP JUMPDEST PUSH1 0x0 PUSH1 0x20 DUP3 DUP5 SUB SLT ISZERO PUSH2 0x74 JUMPI PUSH1 0x0 DUP1 REVERT JUMPDEST DUP2 MLOAD PUSH1 0x1 PUSH1 0x1 PUSH1 0xA0 SHL SUB DUP2 AND DUP2 EQ PUSH2 0x8B JUMPI PUSH1 0x0 DUP1 REVERT JUMPDEST SWAP4 SWAP3 POP POP POP JUMP JUMPDEST PUSH2 0x1CB6 DUP1 PUSH2 0xA1 PUSH1 0x0 CODECOPY PUSH1 0x0 RETURN INVALID PUSH1 0x80 PUSH1 0x40 MSTORE CALLVALUE DUP1 ISZERO PUSH2 0x10 JUMPI PUSH1 0x0 DUP1 REVERT JUMPDEST POP PUSH1 0x4 CALLDATASIZE LT PUSH2 0xA9 JUMPI PUSH1 0x0 CALLDATALOAD PUSH1 0xE0 SHR DUP1 PUSH4 0x941FAC37 GT PUSH2 0x71 JUMPI DUP1 PUSH4 0x941FAC37 EQ PUSH2 0x161 JUMPI DUP1 PUSH4 0xA1B67ED1 EQ PUSH2 0x174 JUMPI DUP1 PUSH4 0xA89AE4BA EQ PUSH2 0x187 JUMPI DUP1 PUSH4 0xEB17429A EQ PUSH2 0x1B2 JUMPI DUP1 PUSH4 0xED6E39E5 EQ PUSH2 0x1D2 JUMPI DUP1 PUSH4 0xF997CC25 EQ PUSH2 0x1E5 JUMPI PUSH1 0x0 DUP1 REVERT JUMPDEST DUP1 PUSH4 0x14A74148 EQ PUSH2 0xAE JUMPI DUP1 PUSH4 0x2843D135 EQ PUSH2 0xC3 JUMPI DUP1 PUSH4 0x2D08D82A EQ PUSH2 0xD6 JUMPI DUP1 PUSH4 0x4C69C00F EQ PUSH2 0xFC JUMPI DUP1 PUSH4 0x632CC98B EQ PUSH2 0x10F JUMPI JUMPDEST PUSH1 0x0 DUP1 REVERT JUMPDEST PUSH2 0xC1 PUSH2 0xBC CALLDATASIZE PUSH1 0x4 PUSH2 0x142D JUMP JUMPDEST PUSH2 0x1FA JUMP JUMPDEST STOP JUMPDEST PUSH2 0xC1 PUSH2 0xD1 CALLDATASIZE PUSH1 0x4 PUSH2 0x1462 JUMP JUMPDEST PUSH2 0x27C JUMP JUMPDEST PUSH2 0xE9 PUSH2 0xE4 CALLDATASIZE PUSH1 0x4 PUSH2 0x142D JUMP JUMPDEST PUSH2 0x59F JUMP JUMPDEST PUSH1 0x40 MLOAD SWAP1 DUP2 MSTORE PUSH1 0x20 ADD JUMPDEST PUSH1 0x40 MLOAD DUP1 SWAP2 SUB SWAP1 RETURN JUMPDEST PUSH2 0xC1 PUSH2 0x10A CALLDATASIZE PUSH1 0x4 PUSH2 0x1553 JUMP JUMPDEST PUSH2 0x897 JUMP JUMPDEST PUSH2 0x142 PUSH2 0x11D CALLDATASIZE PUSH1 0x4 PUSH2 0x1583 JUMP JUMPDEST PUSH1 0x0 PUSH1 0x20 DUP2 SWAP1 MSTORE SWAP1 DUP2 MSTORE PUSH1 0x40 SWAP1 KECCAK256 DUP1 SLOAD PUSH1 0x2 SWAP1 SWAP2 ADD SLOAD PUSH1 0x1 PUSH1 0x1 PUSH1 0xA0 SHL SUB SWAP1 SWAP2 AND SWAP1 DUP3 JUMP JUMPDEST PUSH1 0x40 DUP1 MLOAD PUSH1 0x1 PUSH1 0x1 PUSH1 0xA0 SHL SUB SWAP1 SWAP4 AND DUP4 MSTORE PUSH1 0x20 DUP4 ADD SWAP2 SWAP1 SWAP2 MSTORE ADD PUSH2 0xF3 JUMP JUMPDEST PUSH2 0xC1 PUSH2 0x16F CALLDATASIZE PUSH1 0x4 PUSH2 0x159C JUMP JUMPDEST PUSH2 0x90B JUMP JUMPDEST PUSH2 0xC1 PUSH2 0x182 CALLDATASIZE PUSH1 0x4 PUSH2 0x15E1 JUMP JUMPDEST PUSH2 0xCD0 JUMP JUMPDEST PUSH1 0x3 SLOAD PUSH2 0x19A SWAP1 PUSH1 0x1 PUSH1 0x1 PUSH1 0xA0 SHL SUB AND DUP2 JUMP JUMPDEST PUSH1 0x40 MLOAD PUSH1 0x1 PUSH1 0x1 PUSH1 0xA0 SHL SUB SWAP1 SWAP2 AND DUP2 MSTORE PUSH1 0x20 ADD PUSH2 0xF3 JUMP JUMPDEST PUSH2 0x1C5 PUSH2 0x1C0 CALLDATASIZE PUSH1 0x4 PUSH2 0x1583 JUMP JUMPDEST PUSH2 0xEDF JUMP JUMPDEST PUSH1 0x40 MLOAD PUSH2 0xF3 SWAP2 SWAP1 PUSH2 0x1694 JUMP JUMPDEST PUSH2 0x1C5 PUSH2 0x1E0 CALLDATASIZE PUSH1 0x4 PUSH2 0x1583 JUMP JUMPDEST PUSH2 0x1048 JUMP JUMPDEST PUSH2 0x1ED PUSH2 0x11AA JUMP JUMPDEST PUSH1 0x40 MLOAD PUSH2 0xF3 SWAP2 SWAP1 PUSH2 0x16F8 JUMP JUMPDEST PUSH1 0x2 SLOAD PUSH1 0x1 PUSH1 0x1 PUSH1 0xA0 SHL SUB AND CALLER EQ PUSH2 0x22D JUMPI PUSH1 0x40 MLOAD PUSH3 0x461BCD PUSH1 0xE5 SHL DUP2 MSTORE PUSH1 0x4 ADD PUSH2 0x224 SWAP1 PUSH2 0x170B JUMP JUMPDEST PUSH1 0x40 MLOAD DUP1 SWAP2 SUB SWAP1 REVERT JUMPDEST PUSH1 0x4 PUSH2 0x239 DUP3 DUP3 PUSH2 0x17C3 JUMP JUMPDEST POP PUSH1 0x4 PUSH1 0x40 MLOAD PUSH2 0x249 SWAP2 SWAP1 PUSH2 0x1883 JUMP JUMPDEST PUSH1 0x40 MLOAD SWAP1 DUP2 SWAP1 SUB DUP2 KECCAK256 SWAP1 PUSH32 0xE773674C9AFE9EB71C9DFEBD839DA85BC99F774588C1004DD646256A878B2F17 SWAP1 PUSH1 0x0 SWAP1 LOG2 POP JUMP JUMPDEST PUSH1 0x2 SLOAD PUSH1 0x1 PUSH1 0x1 PUSH1 0xA0 SHL SUB AND CALLER EQ PUSH2 0x2A6 JUMPI PUSH1 0x40 MLOAD PUSH3 0x461BCD PUSH1 0xE5 SHL DUP2 MSTORE PUSH1 0x4 ADD PUSH2 0x224 SWAP1 PUSH2 0x170B JUMP JUMPDEST PUSH2 0x2C8 PUSH1 0x40 MLOAD DUP1 PUSH1 0x60 ADD PUSH1 0x40 MSTORE DUP1 PUSH1 0x34 DUP2 MSTORE PUSH1 0x20 ADD PUSH2 0x1C11 PUSH1 0x34 SWAP2 CODECOPY DUP5 PUSH2 0x1238 JUMP JUMPDEST PUSH1 0x0 DUP4 DUP2 MSTORE PUSH1 0x20 DUP2 DUP2 MSTORE PUSH1 0x40 SWAP2 DUP3 SWAP1 KECCAK256 SWAP2 MLOAD PUSH2 0x2EF SWAP2 ADD PUSH4 0x3AB9B2B9 PUSH1 0xE1 SHL DUP2 MSTORE PUSH1 0x4 ADD SWAP1 JUMP JUMPDEST PUSH1 0x40 MLOAD PUSH1 0x20 DUP2 DUP4 SUB SUB DUP2 MSTORE SWAP1 PUSH1 0x40 MSTORE DUP1 MLOAD SWAP1 PUSH1 0x20 ADD KECCAK256 DUP2 PUSH1 0x1 ADD PUSH1 0x1 DUP4 PUSH1 0x2 ADD SLOAD PUSH2 0x31A SWAP2 SWAP1 PUSH2 0x190F JUMP JUMPDEST DUP2 SLOAD DUP2 LT PUSH2 0x32A JUMPI PUSH2 0x32A PUSH2 0x1928 JUMP JUMPDEST SWAP1 PUSH1 0x0 MSTORE PUSH1 0x20 PUSH1 0x0 KECCAK256 SWAP1 PUSH1 0x2 MUL ADD PUSH1 0x0 ADD PUSH1 0x40 MLOAD PUSH1 0x20 ADD PUSH2 0x34B SWAP2 SWAP1 PUSH2 0x1883 JUMP JUMPDEST PUSH1 0x40 MLOAD PUSH1 0x20 DUP2 DUP4 SUB SUB DUP2 MSTORE SWAP1 PUSH1 0x40 MSTORE DUP1 MLOAD SWAP1 PUSH1 0x20 ADD KECCAK256 EQ PUSH2 0x3AE JUMPI PUSH1 0x40 MLOAD PUSH3 0x461BCD PUSH1 0xE5 SHL DUP2 MSTORE PUSH1 0x20 PUSH1 0x4 DUP3 ADD MSTORE PUSH1 0x1C PUSH1 0x24 DUP3 ADD MSTORE PUSH32 0x4E6F206D65737361676520746F2061646420636F6E7465787420746F00000000 PUSH1 0x44 DUP3 ADD MSTORE PUSH1 0x64 ADD PUSH2 0x224 JUMP JUMPDEST PUSH1 0x0 DUP2 PUSH1 0x1 ADD PUSH1 0x1 DUP4 PUSH1 0x2 ADD SLOAD PUSH2 0x3C5 SWAP2 SWAP1 PUSH2 0x190F JUMP JUMPDEST DUP2 SLOAD DUP2 LT PUSH2 0x3D5 JUMPI PUSH2 0x3D5 PUSH2 0x1928 JUMP JUMPDEST SWAP1 PUSH1 0x0 MSTORE PUSH1 0x20 PUSH1 0x0 KECCAK256 SWAP1 PUSH1 0x2 MUL ADD SWAP1 POP PUSH1 0x0 DUP2 PUSH1 0x1 ADD DUP1 SLOAD PUSH2 0x3F6 SWAP1 PUSH2 0x1738 JUMP JUMPDEST DUP1 PUSH1 0x1F ADD PUSH1 0x20 DUP1 SWAP2 DIV MUL PUSH1 0x20 ADD PUSH1 0x40 MLOAD SWAP1 DUP2 ADD PUSH1 0x40 MSTORE DUP1 SWAP3 SWAP2 SWAP1 DUP2 DUP2 MSTORE PUSH1 0x20 ADD DUP3 DUP1 SLOAD PUSH2 0x422 SWAP1 PUSH2 0x1738 JUMP JUMPDEST DUP1 ISZERO PUSH2 0x46F JUMPI DUP1 PUSH1 0x1F LT PUSH2 0x444 JUMPI PUSH2 0x100 DUP1 DUP4 SLOAD DIV MUL DUP4 MSTORE SWAP2 PUSH1 0x20 ADD SWAP2 PUSH2 0x46F JUMP JUMPDEST DUP3 ADD SWAP2 SWAP1 PUSH1 0x0 MSTORE PUSH1 0x20 PUSH1 0x0 KECCAK256 SWAP1 JUMPDEST DUP2 SLOAD DUP2 MSTORE SWAP1 PUSH1 0x1 ADD SWAP1 PUSH1 0x20 ADD DUP1 DUP4 GT PUSH2 0x452 JUMPI DUP3 SWAP1 SUB PUSH1 0x1F AND DUP3 ADD SWAP2 JUMPDEST POP POP POP POP POP SWAP1 POP PUSH1 0x0 DUP6 MLOAD GT ISZERO PUSH2 0x4A3 JUMPI DUP1 PUSH1 0x40 MLOAD PUSH1 0x20 ADD PUSH2 0x491 SWAP2 SWAP1 PUSH2 0x193E JUMP JUMPDEST PUSH1 0x40 MLOAD PUSH1 0x20 DUP2 DUP4 SUB SUB DUP2 MSTORE SWAP1 PUSH1 0x40 MSTORE SWAP1 POP JUMPDEST PUSH1 0x0 JUMPDEST DUP6 MLOAD DUP2 LT ISZERO PUSH2 0x4F5 JUMPI DUP2 DUP7 DUP3 DUP2 MLOAD DUP2 LT PUSH2 0x4C2 JUMPI PUSH2 0x4C2 PUSH2 0x1928 JUMP JUMPDEST PUSH1 0x20 MUL PUSH1 0x20 ADD ADD MLOAD PUSH1 0x40 MLOAD PUSH1 0x20 ADD PUSH2 0x4DB SWAP3 SWAP2 SWAP1 PUSH2 0x1976 JUMP JUMPDEST PUSH1 0x40 DUP1 MLOAD PUSH1 0x1F NOT DUP2 DUP5 SUB ADD DUP2 MSTORE SWAP2 SWAP1 MSTORE SWAP2 POP PUSH1 0x1 ADD PUSH2 0x4A6 JUMP JUMPDEST POP PUSH1 0x1 DUP3 ADD PUSH2 0x504 DUP3 DUP3 PUSH2 0x17C3 JUMP JUMPDEST POP PUSH2 0x527 PUSH1 0x40 MLOAD DUP1 PUSH1 0x60 ADD PUSH1 0x40 MSTORE DUP1 PUSH1 0x2C DUP2 MSTORE PUSH1 0x20 ADD PUSH2 0x1B90 PUSH1 0x2C SWAP2 CODECOPY DUP8 PUSH2 0x1238 JUMP JUMPDEST PUSH1 0x3 SLOAD PUSH1 0x40 MLOAD PUSH4 0x6C4E8991 PUSH1 0xE1 SHL DUP2 MSTORE PUSH1 0x4 DUP2 ADD DUP9 SWAP1 MSTORE PUSH1 0x1 PUSH1 0x1 PUSH1 0xA0 SHL SUB SWAP1 SWAP2 AND SWAP1 PUSH4 0xD89D1322 SWAP1 PUSH1 0x24 ADD PUSH1 0x20 PUSH1 0x40 MLOAD DUP1 DUP4 SUB DUP2 PUSH1 0x0 DUP8 GAS CALL ISZERO DUP1 ISZERO PUSH2 0x572 JUMPI RETURNDATASIZE PUSH1 0x0 DUP1 RETURNDATACOPY RETURNDATASIZE PUSH1 0x0 REVERT JUMPDEST POP POP POP POP PUSH1 0x40 MLOAD RETURNDATASIZE PUSH1 0x1F NOT PUSH1 0x1F DUP3 ADD AND DUP3 ADD DUP1 PUSH1 0x40 MSTORE POP DUP2 ADD SWAP1 PUSH2 0x596 SWAP2 SWAP1 PUSH2 0x19B1 JUMP JUMPDEST POP POP POP POP POP POP POP JUMP JUMPDEST PUSH1 0x0 PUSH2 0x5E0 PUSH1 0x40 MLOAD DUP1 PUSH1 0x40 ADD PUSH1 0x40 MSTORE DUP1 PUSH1 0x1E DUP2 MSTORE PUSH1 0x20 ADD PUSH32 0x7374617274436861742063616C6C65642077697468206D6573736167653A0000 DUP2 MSTORE POP DUP4 PUSH2 0x1281 JUMP JUMPDEST PUSH1 0x1 DUP1 SLOAD PUSH1 0x0 SWAP1 DUP2 MSTORE PUSH1 0x20 DUP2 DUP2 MSTORE PUSH1 0x40 DUP1 DUP4 KECCAK256 DUP1 SLOAD PUSH1 0x1 PUSH1 0x1 PUSH1 0xA0 SHL SUB NOT AND CALLER OR DUP2 SSTORE DUP2 MLOAD DUP1 DUP4 ADD DUP4 MSTORE PUSH1 0x60 DUP2 MSTORE DUP1 DUP5 ADD DUP9 SWAP1 MSTORE DUP3 MLOAD DUP1 DUP5 ADD SWAP1 SWAP4 MSTORE PUSH1 0x4 DUP4 MSTORE PUSH4 0x3AB9B2B9 PUSH1 0xE1 SHL DUP4 DUP6 ADD MSTORE SWAP2 DUP3 MSTORE DUP1 DUP6 ADD DUP1 SLOAD SWAP6 DUP7 ADD DUP2 SSTORE DUP5 MSTORE SWAP2 SWAP1 SWAP3 KECCAK256 DUP3 MLOAD SWAP2 SWAP4 DUP4 SWAP3 PUSH1 0x2 SWAP1 SWAP2 MUL SWAP1 SWAP2 ADD SWAP1 DUP2 SWAP1 PUSH2 0x65A SWAP1 DUP3 PUSH2 0x17C3 JUMP JUMPDEST POP PUSH1 0x20 DUP3 ADD MLOAD PUSH1 0x1 DUP3 ADD SWAP1 PUSH2 0x66F SWAP1 DUP3 PUSH2 0x17C3 JUMP JUMPDEST POP POP PUSH1 0x1 PUSH1 0x2 DUP5 ADD DUP2 SWAP1 SSTORE DUP1 SLOAD SWAP2 POP PUSH2 0x689 SWAP1 DUP3 SWAP1 PUSH2 0x19CA JUMP JUMPDEST PUSH1 0x1 SSTORE PUSH1 0x40 DUP1 MLOAD DUP1 DUP3 ADD SWAP1 SWAP2 MSTORE PUSH1 0x1D DUP2 MSTORE PUSH32 0x4E657720636861742072756E206372656174656420776974682049443A000000 PUSH1 0x20 DUP3 ADD MSTORE PUSH2 0x6CA SWAP1 DUP3 PUSH2 0x1238 JUMP JUMPDEST PUSH1 0x0 PUSH1 0x4 DUP1 SLOAD PUSH2 0x6D9 SWAP1 PUSH2 0x1738 JUMP JUMPDEST SWAP1 POP GT ISZERO PUSH2 0x79D JUMPI PUSH2 0x71F PUSH1 0x40 MLOAD DUP1 PUSH1 0x40 ADD PUSH1 0x40 MSTORE DUP1 PUSH1 0x1D DUP2 MSTORE PUSH1 0x20 ADD PUSH32 0x4372656174696E67206B6E6F776C656467652062617365207175657279000000 DUP2 MSTORE POP PUSH2 0x12C6 JUMP JUMPDEST PUSH1 0x3 DUP1 SLOAD PUSH1 0x40 MLOAD PUSH4 0xA252A951 PUSH1 0xE0 SHL DUP2 MSTORE PUSH1 0x1 PUSH1 0x1 PUSH1 0xA0 SHL SUB SWAP1 SWAP2 AND SWAP2 PUSH4 0xA252A951 SWAP2 PUSH2 0x754 SWAP2 DUP6 SWAP2 PUSH1 0x4 SWAP2 DUP12 SWAP2 DUP4 ADD PUSH2 0x19DD JUMP JUMPDEST PUSH1 0x20 PUSH1 0x40 MLOAD DUP1 DUP4 SUB DUP2 PUSH1 0x0 DUP8 GAS CALL ISZERO DUP1 ISZERO PUSH2 0x773 JUMPI RETURNDATASIZE PUSH1 0x0 DUP1 RETURNDATACOPY RETURNDATASIZE PUSH1 0x0 REVERT JUMPDEST POP POP POP POP PUSH1 0x40 MLOAD RETURNDATASIZE PUSH1 0x1F NOT PUSH1 0x1F DUP3 ADD AND DUP3 ADD DUP1 PUSH1 0x40 MSTORE POP DUP2 ADD SWAP1 PUSH2 0x797 SWAP2 SWAP1 PUSH2 0x19B1 JUMP JUMPDEST POP PUSH2 0x840 JUMP JUMPDEST PUSH2 0x7CF PUSH1 0x40 MLOAD DUP1 PUSH1 0x40 ADD PUSH1 0x40 MSTORE DUP1 PUSH1 0x11 DUP2 MSTORE PUSH1 0x20 ADD PUSH17 0x10DC99585D1A5B99C81313134818D85B1B PUSH1 0x7A SHL DUP2 MSTORE POP PUSH2 0x12C6 JUMP JUMPDEST PUSH1 0x3 SLOAD PUSH1 0x40 MLOAD PUSH4 0x6C4E8991 PUSH1 0xE1 SHL DUP2 MSTORE PUSH1 0x4 DUP2 ADD DUP4 SWAP1 MSTORE PUSH1 0x1 PUSH1 0x1 PUSH1 0xA0 SHL SUB SWAP1 SWAP2 AND SWAP1 PUSH4 0xD89D1322 SWAP1 PUSH1 0x24 ADD PUSH1 0x20 PUSH1 0x40 MLOAD DUP1 DUP4 SUB DUP2 PUSH1 0x0 DUP8 GAS CALL ISZERO DUP1 ISZERO PUSH2 0x81A JUMPI RETURNDATASIZE PUSH1 0x0 DUP1 RETURNDATACOPY RETURNDATASIZE PUSH1 0x0 REVERT JUMPDEST POP POP POP POP PUSH1 0x40 MLOAD RETURNDATASIZE PUSH1 0x1F NOT PUSH1 0x1F DUP3 ADD AND DUP3 ADD DUP1 PUSH1 0x40 MSTORE POP DUP2 ADD SWAP1 PUSH2 0x83E SWAP2 SWAP1 PUSH2 0x19B1 JUMP JUMPDEST POP JUMPDEST PUSH1 0x40 MLOAD DUP2 SWAP1 CALLER SWAP1 PUSH32 0xD1DE2C4DE50323207202F3DF0BB1DEC1A42E233AEC245F25519D674C10BD72CA SWAP1 PUSH1 0x0 SWAP1 LOG3 PUSH2 0x88F PUSH1 0x40 MLOAD DUP1 PUSH1 0x60 ADD PUSH1 0x40 MSTORE DUP1 PUSH1 0x26 DUP2 MSTORE PUSH1 0x20 ADD PUSH2 0x1B48 PUSH1 0x26 SWAP2 CODECOPY DUP3 PUSH2 0x1238 JUMP JUMPDEST SWAP5 SWAP4 POP POP POP POP JUMP JUMPDEST PUSH1 0x2 SLOAD PUSH1 0x1 PUSH1 0x1 PUSH1 0xA0 SHL SUB AND CALLER EQ PUSH2 0x8C1 JUMPI PUSH1 0x40 MLOAD PUSH3 0x461BCD PUSH1 0xE5 SHL DUP2 MSTORE PUSH1 0x4 ADD PUSH2 0x224 SWAP1 PUSH2 0x170B JUMP JUMPDEST PUSH1 0x3 DUP1 SLOAD PUSH1 0x1 PUSH1 0x1 PUSH1 0xA0 SHL SUB NOT AND PUSH1 0x1 PUSH1 0x1 PUSH1 0xA0 SHL SUB DUP4 AND SWAP1 DUP2 OR SWAP1 SWAP2 SSTORE PUSH1 0x40 MLOAD PUSH32 0x107A9FAFFFB7AC890F780879E423760C9FFEA8DCEE8045681F40F542AEDE2CB8 SWAP1 PUSH1 0x0 SWAP1 LOG2 POP JUMP JUMPDEST PUSH2 0x96E PUSH1 0x40 MLOAD DUP1 PUSH1 0x40 ADD PUSH1 0x40 MSTORE DUP1 PUSH1 0x1F DUP2 MSTORE PUSH1 0x20 ADD PUSH32 0x6164644D6573736167652063616C6C65642077697468206D6573736167653A00 DUP2 MSTORE POP DUP4 PUSH1 0x40 MLOAD DUP1 PUSH1 0x40 ADD PUSH1 0x40 MSTORE DUP1 PUSH1 0xA DUP2 MSTORE PUSH1 0x20 ADD PUSH10 0x3337B910393AB724B21D PUSH1 0xB1 SHL DUP2 MSTORE POP DUP5 PUSH2 0x130C JUMP JUMPDEST PUSH1 0x0 DUP2 DUP2 MSTORE PUSH1 0x20 DUP2 DUP2 MSTORE PUSH1 0x40 SWAP2 DUP3 SWAP1 KECCAK256 SWAP2 MLOAD PUSH2 0x99A SWAP2 ADD PUSH9 0x185CDCDA5CDD185B9D PUSH1 0xBA SHL DUP2 MSTORE PUSH1 0x9 ADD SWAP1 JUMP JUMPDEST PUSH1 0x40 MLOAD PUSH1 0x20 DUP2 DUP4 SUB SUB DUP2 MSTORE SWAP1 PUSH1 0x40 MSTORE DUP1 MLOAD SWAP1 PUSH1 0x20 ADD KECCAK256 DUP2 PUSH1 0x1 ADD PUSH1 0x1 DUP4 PUSH1 0x2 ADD SLOAD PUSH2 0x9C5 SWAP2 SWAP1 PUSH2 0x190F JUMP JUMPDEST DUP2 SLOAD DUP2 LT PUSH2 0x9D5 JUMPI PUSH2 0x9D5 PUSH2 0x1928 JUMP JUMPDEST SWAP1 PUSH1 0x0 MSTORE PUSH1 0x20 PUSH1 0x0 KECCAK256 SWAP1 PUSH1 0x2 MUL ADD PUSH1 0x0 ADD PUSH1 0x40 MLOAD PUSH1 0x20 ADD PUSH2 0x9F6 SWAP2 SWAP1 PUSH2 0x1883 JUMP JUMPDEST PUSH1 0x40 MLOAD PUSH1 0x20 DUP2 DUP4 SUB SUB DUP2 MSTORE SWAP1 PUSH1 0x40 MSTORE DUP1 MLOAD SWAP1 PUSH1 0x20 ADD KECCAK256 EQ PUSH2 0xA59 JUMPI PUSH1 0x40 MLOAD PUSH3 0x461BCD PUSH1 0xE5 SHL DUP2 MSTORE PUSH1 0x20 PUSH1 0x4 DUP3 ADD MSTORE PUSH1 0x1F PUSH1 0x24 DUP3 ADD MSTORE PUSH32 0x4E6F20726573706F6E736520746F2070726576696F7573206D65737361676500 PUSH1 0x44 DUP3 ADD MSTORE PUSH1 0x64 ADD PUSH2 0x224 JUMP JUMPDEST DUP1 SLOAD PUSH1 0x1 PUSH1 0x1 PUSH1 0xA0 SHL SUB AND CALLER EQ PUSH2 0xAB2 JUMPI PUSH1 0x40 MLOAD PUSH3 0x461BCD PUSH1 0xE5 SHL DUP2 MSTORE PUSH1 0x20 PUSH1 0x4 DUP3 ADD DUP2 SWAP1 MSTORE PUSH1 0x24 DUP3 ADD MSTORE PUSH32 0x4F6E6C792063686174206F776E65722063616E20616464206D65737361676573 PUSH1 0x44 DUP3 ADD MSTORE PUSH1 0x64 ADD PUSH2 0x224 JUMP JUMPDEST PUSH1 0x40 DUP1 MLOAD DUP1 DUP3 ADD DUP3 MSTORE PUSH1 0x60 DUP2 MSTORE PUSH1 0x20 DUP1 DUP3 ADD DUP7 SWAP1 MSTORE DUP3 MLOAD DUP1 DUP5 ADD SWAP1 SWAP4 MSTORE PUSH1 0x4 DUP4 MSTORE PUSH4 0x3AB9B2B9 PUSH1 0xE1 SHL DUP4 DUP3 ADD MSTORE SWAP2 DUP2 MSTORE PUSH1 0x1 DUP4 DUP2 ADD DUP1 SLOAD SWAP2 DUP3 ADD DUP2 SSTORE PUSH1 0x0 SWAP1 DUP2 MSTORE SWAP3 SWAP1 SWAP3 KECCAK256 DUP2 MLOAD SWAP2 SWAP3 DUP4 SWAP3 PUSH1 0x2 SWAP1 SWAP2 MUL SWAP1 SWAP2 ADD SWAP1 DUP2 SWAP1 PUSH2 0xB12 SWAP1 DUP3 PUSH2 0x17C3 JUMP JUMPDEST POP PUSH1 0x20 DUP3 ADD MLOAD PUSH1 0x1 DUP3 ADD SWAP1 PUSH2 0xB27 SWAP1 DUP3 PUSH2 0x17C3 JUMP JUMPDEST POP POP POP PUSH1 0x2 DUP3 ADD DUP1 SLOAD SWAP1 PUSH1 0x0 PUSH2 0xB3C DUP4 PUSH2 0x1A9C JUMP JUMPDEST SWAP2 SWAP1 POP SSTORE POP PUSH2 0xB80 PUSH1 0x40 MLOAD DUP1 PUSH1 0x40 ADD PUSH1 0x40 MSTORE DUP1 PUSH1 0x20 DUP2 MSTORE PUSH1 0x20 ADD PUSH32 0x4E65772075736572206D65737361676520616464656420746F2072756E49643A DUP2 MSTORE POP DUP5 PUSH2 0x1238 JUMP JUMPDEST PUSH1 0x0 PUSH1 0x4 DUP1 SLOAD PUSH2 0xB8F SWAP1 PUSH2 0x1738 JUMP JUMPDEST SWAP1 POP GT ISZERO PUSH2 0xC37 JUMPI PUSH2 0xBB9 PUSH1 0x40 MLOAD DUP1 PUSH1 0x60 ADD PUSH1 0x40 MSTORE DUP1 PUSH1 0x3C DUP2 MSTORE PUSH1 0x20 ADD PUSH2 0x1C45 PUSH1 0x3C SWAP2 CODECOPY DUP5 PUSH2 0x1238 JUMP JUMPDEST PUSH1 0x3 DUP1 SLOAD PUSH1 0x40 MLOAD PUSH4 0xA252A951 PUSH1 0xE0 SHL DUP2 MSTORE PUSH1 0x1 PUSH1 0x1 PUSH1 0xA0 SHL SUB SWAP1 SWAP2 AND SWAP2 PUSH4 0xA252A951 SWAP2 PUSH2 0xBEE SWAP2 DUP8 SWAP2 PUSH1 0x4 SWAP2 DUP11 SWAP2 DUP4 ADD PUSH2 0x19DD JUMP JUMPDEST PUSH1 0x20 PUSH1 0x40 MLOAD DUP1 DUP4 SUB DUP2 PUSH1 0x0 DUP8 GAS CALL ISZERO DUP1 ISZERO PUSH2 0xC0D JUMPI RETURNDATASIZE PUSH1 0x0 DUP1 RETURNDATACOPY RETURNDATASIZE PUSH1 0x0 REVERT JUMPDEST POP POP POP POP PUSH1 0x40 MLOAD RETURNDATASIZE PUSH1 0x1F NOT PUSH1 0x1F DUP3 ADD AND DUP3 ADD DUP1 PUSH1 0x40 MSTORE POP DUP2 ADD SWAP1 PUSH2 0xC31 SWAP2 SWAP1 PUSH2 0x19B1 JUMP JUMPDEST POP PUSH2 0xCCA JUMP JUMPDEST PUSH2 0xC59 PUSH1 0x40 MLOAD DUP1 PUSH1 0x60 ADD PUSH1 0x40 MSTORE DUP1 PUSH1 0x30 DUP2 MSTORE PUSH1 0x20 ADD PUSH2 0x1BBC PUSH1 0x30 SWAP2 CODECOPY DUP5 PUSH2 0x1238 JUMP JUMPDEST PUSH1 0x3 SLOAD PUSH1 0x40 MLOAD PUSH4 0x6C4E8991 PUSH1 0xE1 SHL DUP2 MSTORE PUSH1 0x4 DUP2 ADD DUP6 SWAP1 MSTORE PUSH1 0x1 PUSH1 0x1 PUSH1 0xA0 SHL SUB SWAP1 SWAP2 AND SWAP1 PUSH4 0xD89D1322 SWAP1 PUSH1 0x24 ADD PUSH1 0x20 PUSH1 0x40 MLOAD DUP1 DUP4 SUB DUP2 PUSH1 0x0 DUP8 GAS CALL ISZERO DUP1 ISZERO PUSH2 0xCA4 JUMPI RETURNDATASIZE PUSH1 0x0 DUP1 RETURNDATACOPY RETURNDATASIZE PUSH1 0x0 REVERT JUMPDEST POP POP POP POP PUSH1 0x40 MLOAD RETURNDATASIZE PUSH1 0x1F NOT PUSH1 0x1F DUP3 ADD AND DUP3 ADD DUP1 PUSH1 0x40 MSTORE POP DUP2 ADD SWAP1 PUSH2 0xCC8 SWAP2 SWAP1 PUSH2 0x19B1 JUMP JUMPDEST POP JUMPDEST POP POP POP POP JUMP JUMPDEST PUSH1 0x3 SLOAD PUSH1 0x1 PUSH1 0x1 PUSH1 0xA0 SHL SUB AND CALLER EQ PUSH2 0xD21 JUMPI PUSH1 0x40 MLOAD PUSH3 0x461BCD PUSH1 0xE5 SHL DUP2 MSTORE PUSH1 0x20 PUSH1 0x4 DUP3 ADD MSTORE PUSH1 0x14 PUSH1 0x24 DUP3 ADD MSTORE PUSH20 0x43616C6C6572206973206E6F74206F7261636C65 PUSH1 0x60 SHL PUSH1 0x44 DUP3 ADD MSTORE PUSH1 0x64 ADD PUSH2 0x224 JUMP JUMPDEST PUSH2 0xD43 PUSH1 0x40 MLOAD DUP1 PUSH1 0x60 ADD PUSH1 0x40 MSTORE DUP1 PUSH1 0x25 DUP2 MSTORE PUSH1 0x20 ADD PUSH2 0x1BEC PUSH1 0x25 SWAP2 CODECOPY DUP5 PUSH2 0x1238 JUMP JUMPDEST PUSH1 0x0 DUP4 DUP2 MSTORE PUSH1 0x20 DUP2 DUP2 MSTORE PUSH1 0x40 SWAP2 DUP3 SWAP1 KECCAK256 SWAP2 MLOAD PUSH2 0xD6A SWAP2 ADD PUSH4 0x3AB9B2B9 PUSH1 0xE1 SHL DUP2 MSTORE PUSH1 0x4 ADD SWAP1 JUMP JUMPDEST PUSH1 0x40 MLOAD PUSH1 0x20 DUP2 DUP4 SUB SUB DUP2 MSTORE SWAP1 PUSH1 0x40 MSTORE DUP1 MLOAD SWAP1 PUSH1 0x20 ADD KECCAK256 DUP2 PUSH1 0x1 ADD PUSH1 0x1 DUP4 PUSH1 0x2 ADD SLOAD PUSH2 0xD95 SWAP2 SWAP1 PUSH2 0x190F JUMP JUMPDEST DUP2 SLOAD DUP2 LT PUSH2 0xDA5 JUMPI PUSH2 0xDA5 PUSH2 0x1928 JUMP JUMPDEST SWAP1 PUSH1 0x0 MSTORE PUSH1 0x20 PUSH1 0x0 KECCAK256 SWAP1 PUSH1 0x2 MUL ADD PUSH1 0x0 ADD PUSH1 0x40 MLOAD PUSH1 0x20 ADD PUSH2 0xDC6 SWAP2 SWAP1 PUSH2 0x1883 JUMP JUMPDEST PUSH1 0x40 MLOAD PUSH1 0x20 DUP2 DUP4 SUB SUB DUP2 MSTORE SWAP1 PUSH1 0x40 MSTORE DUP1 MLOAD SWAP1 PUSH1 0x20 ADD KECCAK256 EQ PUSH2 0xE29 JUMPI PUSH1 0x40 MLOAD PUSH3 0x461BCD PUSH1 0xE5 SHL DUP2 MSTORE PUSH1 0x20 PUSH1 0x4 DUP3 ADD MSTORE PUSH1 0x18 PUSH1 0x24 DUP3 ADD MSTORE PUSH32 0x4E6F206D65737361676520746F20726573706F6E6420746F0000000000000000 PUSH1 0x44 DUP3 ADD MSTORE PUSH1 0x64 ADD PUSH2 0x224 JUMP JUMPDEST PUSH1 0x40 DUP1 MLOAD DUP1 DUP3 ADD DUP3 MSTORE PUSH1 0x60 DUP2 MSTORE PUSH1 0x20 DUP1 DUP3 ADD DUP7 SWAP1 MSTORE DUP3 MLOAD DUP1 DUP5 ADD SWAP1 SWAP4 MSTORE PUSH1 0x9 DUP4 MSTORE PUSH9 0x185CDCDA5CDD185B9D PUSH1 0xBA SHL DUP4 DUP3 ADD MSTORE SWAP2 DUP2 MSTORE PUSH1 0x1 DUP4 DUP2 ADD DUP1 SLOAD SWAP2 DUP3 ADD DUP2 SSTORE PUSH1 0x0 SWAP1 DUP2 MSTORE SWAP3 SWAP1 SWAP3 KECCAK256 DUP2 MLOAD SWAP2 SWAP3 DUP4 SWAP3 PUSH1 0x2 SWAP1 SWAP2 MUL SWAP1 SWAP2 ADD SWAP1 DUP2 SWAP1 PUSH2 0xE8E SWAP1 DUP3 PUSH2 0x17C3 JUMP JUMPDEST POP PUSH1 0x20 DUP3 ADD MLOAD PUSH1 0x1 DUP3 ADD SWAP1 PUSH2 0xEA3 SWAP1 DUP3 PUSH2 0x17C3 JUMP JUMPDEST POP POP POP PUSH1 0x2 DUP3 ADD DUP1 SLOAD SWAP1 PUSH1 0x0 PUSH2 0xEB8 DUP4 PUSH2 0x1A9C JUMP JUMPDEST SWAP2 SWAP1 POP SSTORE POP PUSH2 0xCC8 PUSH1 0x40 MLOAD DUP1 PUSH1 0x60 ADD PUSH1 0x40 MSTORE DUP1 PUSH1 0x22 DUP2 MSTORE PUSH1 0x20 ADD PUSH2 0x1B6E PUSH1 0x22 SWAP2 CODECOPY DUP7 PUSH2 0x1238 JUMP JUMPDEST PUSH1 0x0 DUP2 DUP2 MSTORE PUSH1 0x20 DUP2 SWAP1 MSTORE PUSH1 0x40 DUP2 KECCAK256 PUSH1 0x1 ADD SLOAD PUSH1 0x60 SWAP2 SWAP1 PUSH8 0xFFFFFFFFFFFFFFFF DUP2 GT ISZERO PUSH2 0xF0D JUMPI PUSH2 0xF0D PUSH2 0x1376 JUMP JUMPDEST PUSH1 0x40 MLOAD SWAP1 DUP1 DUP3 MSTORE DUP1 PUSH1 0x20 MUL PUSH1 0x20 ADD DUP3 ADD PUSH1 0x40 MSTORE DUP1 ISZERO PUSH2 0xF40 JUMPI DUP2 PUSH1 0x20 ADD JUMPDEST PUSH1 0x60 DUP2 MSTORE PUSH1 0x20 ADD SWAP1 PUSH1 0x1 SWAP1 SUB SWAP1 DUP2 PUSH2 0xF2B JUMPI SWAP1 POP JUMPDEST POP SWAP1 POP PUSH1 0x0 JUMPDEST PUSH1 0x0 DUP5 DUP2 MSTORE PUSH1 0x20 DUP2 SWAP1 MSTORE PUSH1 0x40 SWAP1 KECCAK256 PUSH1 0x1 ADD SLOAD DUP2 LT ISZERO PUSH2 0x1041 JUMPI PUSH1 0x0 DUP5 DUP2 MSTORE PUSH1 0x20 DUP2 SWAP1 MSTORE PUSH1 0x40 SWAP1 KECCAK256 PUSH1 0x1 ADD DUP1 SLOAD DUP3 SWAP1 DUP2 LT PUSH2 0xF82 JUMPI PUSH2 0xF82 PUSH2 0x1928 JUMP JUMPDEST SWAP1 PUSH1 0x0 MSTORE PUSH1 0x20 PUSH1 0x0 KECCAK256 SWAP1 PUSH1 0x2 MUL ADD PUSH1 0x1 ADD DUP1 SLOAD PUSH2 0xF9E SWAP1 PUSH2 0x1738 JUMP JUMPDEST DUP1 PUSH1 0x1F ADD PUSH1 0x20 DUP1 SWAP2 DIV MUL PUSH1 0x20 ADD PUSH1 0x40 MLOAD SWAP1 DUP2 ADD PUSH1 0x40 MSTORE DUP1 SWAP3 SWAP2 SWAP1 DUP2 DUP2 MSTORE PUSH1 0x20 ADD DUP3 DUP1 SLOAD PUSH2 0xFCA SWAP1 PUSH2 0x1738 JUMP JUMPDEST DUP1 ISZERO PUSH2 0x1017 JUMPI DUP1 PUSH1 0x1F LT PUSH2 0xFEC JUMPI PUSH2 0x100 DUP1 DUP4 SLOAD DIV MUL DUP4 MSTORE SWAP2 PUSH1 0x20 ADD SWAP2 PUSH2 0x1017 JUMP JUMPDEST DUP3 ADD SWAP2 SWAP1 PUSH1 0x0 MSTORE PUSH1 0x20 PUSH1 0x0 KECCAK256 SWAP1 JUMPDEST DUP2 SLOAD DUP2 MSTORE SWAP1 PUSH1 0x1 ADD SWAP1 PUSH1 0x20 ADD DUP1 DUP4 GT PUSH2 0xFFA JUMPI DUP3 SWAP1 SUB PUSH1 0x1F AND DUP3 ADD SWAP2 JUMPDEST POP POP POP POP POP DUP3 DUP3 DUP2 MLOAD DUP2 LT PUSH2 0x102E JUMPI PUSH2 0x102E PUSH2 0x1928 JUMP JUMPDEST PUSH1 0x20 SWAP1 DUP2 MUL SWAP2 SWAP1 SWAP2 ADD ADD MSTORE PUSH1 0x1 ADD PUSH2 0xF46 JUMP JUMPDEST POP SWAP3 SWAP2 POP POP JUMP JUMPDEST PUSH1 0x0 DUP2 DUP2 MSTORE PUSH1 0x20 DUP2 SWAP1 MSTORE PUSH1 0x40 DUP2 KECCAK256 PUSH1 0x1 ADD SLOAD PUSH1 0x60 SWAP2 SWAP1 PUSH8 0xFFFFFFFFFFFFFFFF DUP2 GT ISZERO PUSH2 0x1076 JUMPI PUSH2 0x1076 PUSH2 0x1376 JUMP JUMPDEST PUSH1 0x40 MLOAD SWAP1 DUP1 DUP3 MSTORE DUP1 PUSH1 0x20 MUL PUSH1 0x20 ADD DUP3 ADD PUSH1 0x40 MSTORE DUP1 ISZERO PUSH2 0x10A9 JUMPI DUP2 PUSH1 0x20 ADD JUMPDEST PUSH1 0x60 DUP2 MSTORE PUSH1 0x20 ADD SWAP1 PUSH1 0x1 SWAP1 SUB SWAP1 DUP2 PUSH2 0x1094 JUMPI SWAP1 POP JUMPDEST POP SWAP1 POP PUSH1 0x0 JUMPDEST PUSH1 0x0 DUP5 DUP2 MSTORE PUSH1 0x20 DUP2 SWAP1 MSTORE PUSH1 0x40 SWAP1 KECCAK256 PUSH1 0x1 ADD SLOAD DUP2 LT ISZERO PUSH2 0x1041 JUMPI PUSH1 0x0 DUP5 DUP2 MSTORE PUSH1 0x20 DUP2 SWAP1 MSTORE PUSH1 0x40 SWAP1 KECCAK256 PUSH1 0x1 ADD DUP1 SLOAD DUP3 SWAP1 DUP2 LT PUSH2 0x10EB JUMPI PUSH2 0x10EB PUSH2 0x1928 JUMP JUMPDEST SWAP1 PUSH1 0x0 MSTORE PUSH1 0x20 PUSH1 0x0 KECCAK256 SWAP1 PUSH1 0x2 MUL ADD PUSH1 0x0 ADD DUP1 SLOAD PUSH2 0x1107 SWAP1 PUSH2 0x1738 JUMP JUMPDEST DUP1 PUSH1 0x1F ADD PUSH1 0x20 DUP1 SWAP2 DIV MUL PUSH1 0x20 ADD PUSH1 0x40 MLOAD SWAP1 DUP2 ADD PUSH1 0x40 MSTORE DUP1 SWAP3 SWAP2 SWAP1 DUP2 DUP2 MSTORE PUSH1 0x20 ADD DUP3 DUP1 SLOAD PUSH2 0x1133 SWAP1 PUSH2 0x1738 JUMP JUMPDEST DUP1 ISZERO PUSH2 0x1180 JUMPI DUP1 PUSH1 0x1F LT PUSH2 0x1155 JUMPI PUSH2 0x100 DUP1 DUP4 SLOAD DIV MUL DUP4 MSTORE SWAP2 PUSH1 0x20 ADD SWAP2 PUSH2 0x1180 JUMP JUMPDEST DUP3 ADD SWAP2 SWAP1 PUSH1 0x0 MSTORE PUSH1 0x20 PUSH1 0x0 KECCAK256 SWAP1 JUMPDEST DUP2 SLOAD DUP2 MSTORE SWAP1 PUSH1 0x1 ADD SWAP1 PUSH1 0x20 ADD DUP1 DUP4 GT PUSH2 0x1163 JUMPI DUP3 SWAP1 SUB PUSH1 0x1F AND DUP3 ADD SWAP2 JUMPDEST POP POP POP POP POP DUP3 DUP3 DUP2 MLOAD DUP2 LT PUSH2 0x1197 JUMPI PUSH2 0x1197 PUSH2 0x1928 JUMP JUMPDEST PUSH1 0x20 SWAP1 DUP2 MUL SWAP2 SWAP1 SWAP2 ADD ADD MSTORE PUSH1 0x1 ADD PUSH2 0x10AF JUMP JUMPDEST PUSH1 0x4 DUP1 SLOAD PUSH2 0x11B7 SWAP1 PUSH2 0x1738 JUMP JUMPDEST DUP1 PUSH1 0x1F ADD PUSH1 0x20 DUP1 SWAP2 DIV MUL PUSH1 0x20 ADD PUSH1 0x40 MLOAD SWAP1 DUP2 ADD PUSH1 0x40 MSTORE DUP1 SWAP3 SWAP2 SWAP1 DUP2 DUP2 MSTORE PUSH1 0x20 ADD DUP3 DUP1 SLOAD PUSH2 0x11E3 SWAP1 PUSH2 0x1738 JUMP JUMPDEST DUP1 ISZERO PUSH2 0x1230 JUMPI DUP1 PUSH1 0x1F LT PUSH2 0x1205 JUMPI PUSH2 0x100 DUP1 DUP4 SLOAD DIV MUL DUP4 MSTORE SWAP2 PUSH1 0x20 ADD SWAP2 PUSH2 0x1230 JUMP JUMPDEST DUP3 ADD SWAP2 SWAP1 PUSH1 0x0 MSTORE PUSH1 0x20 PUSH1 0x0 KECCAK256 SWAP1 JUMPDEST DUP2 SLOAD DUP2 MSTORE SWAP1 PUSH1 0x1 ADD SWAP1 PUSH1 0x20 ADD DUP1 DUP4 GT PUSH2 0x1213 JUMPI DUP3 SWAP1 SUB PUSH1 0x1F AND DUP3 ADD SWAP2 JUMPDEST POP POP POP POP POP DUP2 JUMP JUMPDEST PUSH2 0x127D DUP3 DUP3 PUSH1 0x40 MLOAD PUSH1 0x24 ADD PUSH2 0x124E SWAP3 SWAP2 SWAP1 PUSH2 0x1AB5 JUMP JUMPDEST PUSH1 0x40 DUP1 MLOAD PUSH1 0x1F NOT DUP2 DUP5 SUB ADD DUP2 MSTORE SWAP2 SWAP1 MSTORE PUSH1 0x20 DUP2 ADD DUP1 MLOAD PUSH1 0x1 PUSH1 0x1 PUSH1 0xE0 SHL SUB AND PUSH4 0x2D839CB3 PUSH1 0xE2 SHL OR SWAP1 MSTORE PUSH2 0x1351 JUMP JUMPDEST POP POP JUMP JUMPDEST PUSH2 0x127D DUP3 DUP3 PUSH1 0x40 MLOAD PUSH1 0x24 ADD PUSH2 0x1297 SWAP3 SWAP2 SWAP1 PUSH2 0x1AD7 JUMP JUMPDEST PUSH1 0x40 DUP1 MLOAD PUSH1 0x1F NOT DUP2 DUP5 SUB ADD DUP2 MSTORE SWAP2 SWAP1 MSTORE PUSH1 0x20 DUP2 ADD DUP1 MLOAD PUSH1 0x1 PUSH1 0x1 PUSH1 0xE0 SHL SUB AND PUSH4 0x4B5C4277 PUSH1 0xE0 SHL OR SWAP1 MSTORE PUSH2 0x1351 JUMP JUMPDEST PUSH2 0x1309 DUP2 PUSH1 0x40 MLOAD PUSH1 0x24 ADD PUSH2 0x12DA SWAP2 SWAP1 PUSH2 0x16F8 JUMP JUMPDEST PUSH1 0x40 DUP1 MLOAD PUSH1 0x1F NOT DUP2 DUP5 SUB ADD DUP2 MSTORE SWAP2 SWAP1 MSTORE PUSH1 0x20 DUP2 ADD DUP1 MLOAD PUSH1 0x1 PUSH1 0x1 PUSH1 0xE0 SHL SUB AND PUSH4 0x104C13EB PUSH1 0xE2 SHL OR SWAP1 MSTORE PUSH2 0x1351 JUMP JUMPDEST POP JUMP JUMPDEST PUSH2 0xCCA DUP5 DUP5 DUP5 DUP5 PUSH1 0x40 MLOAD PUSH1 0x24 ADD PUSH2 0x1326 SWAP5 SWAP4 SWAP3 SWAP2 SWAP1 PUSH2 0x1AFC JUMP JUMPDEST PUSH1 0x40 DUP1 MLOAD PUSH1 0x1F NOT DUP2 DUP5 SUB ADD DUP2 MSTORE SWAP2 SWAP1 MSTORE PUSH1 0x20 DUP2 ADD DUP1 MLOAD PUSH1 0x1 PUSH1 0x1 PUSH1 0xE0 SHL SUB AND PUSH4 0x8EAFB02B PUSH1 0xE0 SHL OR SWAP1 MSTORE JUMPDEST PUSH2 0x1309 DUP2 PUSH1 0x0 PUSH11 0x636F6E736F6C652E6C6F67 SWAP1 POP PUSH1 0x0 DUP1 DUP4 MLOAD PUSH1 0x20 DUP6 ADD DUP5 GAS STATICCALL POP POP POP JUMP JUMPDEST PUSH4 0x4E487B71 PUSH1 0xE0 SHL PUSH1 0x0 MSTORE PUSH1 0x41 PUSH1 0x4 MSTORE PUSH1 0x24 PUSH1 0x0 REVERT JUMPDEST PUSH1 0x40 MLOAD PUSH1 0x1F DUP3 ADD PUSH1 0x1F NOT AND DUP2 ADD PUSH8 0xFFFFFFFFFFFFFFFF DUP2 GT DUP3 DUP3 LT OR ISZERO PUSH2 0x13B5 JUMPI PUSH2 0x13B5 PUSH2 0x1376 JUMP JUMPDEST PUSH1 0x40 MSTORE SWAP2 SWAP1 POP JUMP JUMPDEST PUSH1 0x0 DUP3 PUSH1 0x1F DUP4 ADD SLT PUSH2 0x13CE JUMPI PUSH1 0x0 DUP1 REVERT JUMPDEST DUP2 CALLDATALOAD PUSH8 0xFFFFFFFFFFFFFFFF DUP2 GT ISZERO PUSH2 0x13E8 JUMPI PUSH2 0x13E8 PUSH2 0x1376 JUMP JUMPDEST PUSH2 0x13FB PUSH1 0x1F DUP3 ADD PUSH1 0x1F NOT AND PUSH1 0x20 ADD PUSH2 0x138C JUMP JUMPDEST DUP2 DUP2 MSTORE DUP5 PUSH1 0x20 DUP4 DUP7 ADD ADD GT ISZERO PUSH2 0x1410 JUMPI PUSH1 0x0 DUP1 REVERT JUMPDEST DUP2 PUSH1 0x20 DUP6 ADD PUSH1 0x20 DUP4 ADD CALLDATACOPY PUSH1 0x0 SWAP2 DUP2 ADD PUSH1 0x20 ADD SWAP2 SWAP1 SWAP2 MSTORE SWAP4 SWAP3 POP POP POP JUMP JUMPDEST PUSH1 0x0 PUSH1 0x20 DUP3 DUP5 SUB SLT ISZERO PUSH2 0x143F JUMPI PUSH1 0x0 DUP1 REVERT JUMPDEST DUP2 CALLDATALOAD PUSH8 0xFFFFFFFFFFFFFFFF DUP2 GT ISZERO PUSH2 0x1456 JUMPI PUSH1 0x0 DUP1 REVERT JUMPDEST PUSH2 0x88F DUP5 DUP3 DUP6 ADD PUSH2 0x13BD JUMP JUMPDEST PUSH1 0x0 DUP1 PUSH1 0x0 PUSH1 0x60 DUP5 DUP7 SUB SLT ISZERO PUSH2 0x1477 JUMPI PUSH1 0x0 DUP1 REVERT JUMPDEST DUP4 CALLDATALOAD SWAP3 POP PUSH1 0x20 DUP1 DUP6 ADD CALLDATALOAD PUSH8 0xFFFFFFFFFFFFFFFF DUP1 DUP3 GT ISZERO PUSH2 0x1497 JUMPI PUSH1 0x0 DUP1 REVERT JUMPDEST DUP2 DUP8 ADD SWAP2 POP DUP8 PUSH1 0x1F DUP4 ADD SLT PUSH2 0x14AB JUMPI PUSH1 0x0 DUP1 REVERT JUMPDEST DUP2 CALLDATALOAD DUP2 DUP2 GT ISZERO PUSH2 0x14BD JUMPI PUSH2 0x14BD PUSH2 0x1376 JUMP JUMPDEST DUP1 PUSH1 0x5 SHL PUSH2 0x14CC DUP6 DUP3 ADD PUSH2 0x138C JUMP JUMPDEST SWAP2 DUP3 MSTORE DUP4 DUP2 ADD DUP6 ADD SWAP2 DUP6 DUP2 ADD SWAP1 DUP12 DUP5 GT ISZERO PUSH2 0x14E6 JUMPI PUSH1 0x0 DUP1 REVERT JUMPDEST DUP7 DUP7 ADD SWAP3 POP JUMPDEST DUP4 DUP4 LT ISZERO PUSH2 0x1522 JUMPI DUP3 CALLDATALOAD DUP6 DUP2 GT ISZERO PUSH2 0x1504 JUMPI PUSH1 0x0 DUP1 DUP2 REVERT JUMPDEST PUSH2 0x1512 DUP14 DUP10 DUP4 DUP11 ADD ADD PUSH2 0x13BD JUMP JUMPDEST DUP4 MSTORE POP SWAP2 DUP7 ADD SWAP2 SWAP1 DUP7 ADD SWAP1 PUSH2 0x14EC JUMP JUMPDEST SWAP8 POP POP POP POP PUSH1 0x40 DUP8 ADD CALLDATALOAD SWAP3 POP DUP1 DUP4 GT ISZERO PUSH2 0x153B JUMPI PUSH1 0x0 DUP1 REVERT JUMPDEST POP POP PUSH2 0x1549 DUP7 DUP3 DUP8 ADD PUSH2 0x13BD JUMP JUMPDEST SWAP2 POP POP SWAP3 POP SWAP3 POP SWAP3 JUMP JUMPDEST PUSH1 0x0 PUSH1 0x20 DUP3 DUP5 SUB SLT ISZERO PUSH2 0x1565 JUMPI PUSH1 0x0 DUP1 REVERT JUMPDEST DUP2 CALLDATALOAD PUSH1 0x1 PUSH1 0x1 PUSH1 0xA0 SHL SUB DUP2 AND DUP2 EQ PUSH2 0x157C JUMPI PUSH1 0x0 DUP1 REVERT JUMPDEST SWAP4 SWAP3 POP POP POP JUMP JUMPDEST PUSH1 0x0 PUSH1 0x20 DUP3 DUP5 SUB SLT ISZERO PUSH2 0x1595 JUMPI PUSH1 0x0 DUP1 REVERT JUMPDEST POP CALLDATALOAD SWAP2 SWAP1 POP JUMP JUMPDEST PUSH1 0x0 DUP1 PUSH1 0x40 DUP4 DUP6 SUB SLT ISZERO PUSH2 0x15AF JUMPI PUSH1 0x0 DUP1 REVERT JUMPDEST DUP3 CALLDATALOAD PUSH8 0xFFFFFFFFFFFFFFFF DUP2 GT ISZERO PUSH2 0x15C6 JUMPI PUSH1 0x0 DUP1 REVERT JUMPDEST PUSH2 0x15D2 DUP6 DUP3 DUP7 ADD PUSH2 0x13BD JUMP JUMPDEST SWAP6 PUSH1 0x20 SWAP5 SWAP1 SWAP5 ADD CALLDATALOAD SWAP5 POP POP POP POP JUMP JUMPDEST PUSH1 0x0 DUP1 PUSH1 0x0 PUSH1 0x60 DUP5 DUP7 SUB SLT ISZERO PUSH2 0x15F6 JUMPI PUSH1 0x0 DUP1 REVERT JUMPDEST DUP4 CALLDATALOAD SWAP3 POP PUSH1 0x20 DUP5 ADD CALLDATALOAD PUSH8 0xFFFFFFFFFFFFFFFF DUP1 DUP3 GT ISZERO PUSH2 0x1615 JUMPI PUSH1 0x0 DUP1 REVERT JUMPDEST PUSH2 0x1621 DUP8 DUP4 DUP9 ADD PUSH2 0x13BD JUMP JUMPDEST SWAP4 POP PUSH1 0x40 DUP7 ADD CALLDATALOAD SWAP2 POP DUP1 DUP3 GT ISZERO PUSH2 0x1637 JUMPI PUSH1 0x0 DUP1 REVERT JUMPDEST POP PUSH2 0x1549 DUP7 DUP3 DUP8 ADD PUSH2 0x13BD JUMP JUMPDEST PUSH1 0x0 JUMPDEST DUP4 DUP2 LT ISZERO PUSH2 0x165F JUMPI DUP2 DUP2 ADD MLOAD DUP4 DUP3 ADD MSTORE PUSH1 0x20 ADD PUSH2 0x1647 JUMP JUMPDEST POP POP PUSH1 0x0 SWAP2 ADD MSTORE JUMP JUMPDEST PUSH1 0x0 DUP2 MLOAD DUP1 DUP5 MSTORE PUSH2 0x1680 DUP2 PUSH1 0x20 DUP7 ADD PUSH1 0x20 DUP7 ADD PUSH2 0x1644 JUMP JUMPDEST PUSH1 0x1F ADD PUSH1 0x1F NOT AND SWAP3 SWAP1 SWAP3 ADD PUSH1 0x20 ADD SWAP3 SWAP2 POP POP JUMP JUMPDEST PUSH1 0x0 PUSH1 0x20 DUP1 DUP4 ADD PUSH1 0x20 DUP5 MSTORE DUP1 DUP6 MLOAD DUP1 DUP4 MSTORE PUSH1 0x40 DUP7 ADD SWAP2 POP PUSH1 0x40 DUP2 PUSH1 0x5 SHL DUP8 ADD ADD SWAP3 POP PUSH1 0x20 DUP8 ADD PUSH1 0x0 JUMPDEST DUP3 DUP2 LT ISZERO PUSH2 0x16EB JUMPI PUSH1 0x3F NOT DUP9 DUP7 SUB ADD DUP5 MSTORE PUSH2 0x16D9 DUP6 DUP4 MLOAD PUSH2 0x1668 JUMP JUMPDEST SWAP5 POP SWAP3 DUP6 ADD SWAP3 SWAP1 DUP6 ADD SWAP1 PUSH1 0x1 ADD PUSH2 0x16BD JUMP JUMPDEST POP SWAP3 SWAP8 SWAP7 POP POP POP POP POP POP POP JUMP JUMPDEST PUSH1 0x20 DUP2 MSTORE PUSH1 0x0 PUSH2 0x157C PUSH1 0x20 DUP4 ADD DUP5 PUSH2 0x1668 JUMP JUMPDEST PUSH1 0x20 DUP1 DUP3 MSTORE PUSH1 0x13 SWAP1 DUP3 ADD MSTORE PUSH19 0x21B0B63632B91034B9903737BA1037BBB732B9 PUSH1 0x69 SHL PUSH1 0x40 DUP3 ADD MSTORE PUSH1 0x60 ADD SWAP1 JUMP JUMPDEST PUSH1 0x1 DUP2 DUP2 SHR SWAP1 DUP3 AND DUP1 PUSH2 0x174C JUMPI PUSH1 0x7F DUP3 AND SWAP2 POP JUMPDEST PUSH1 0x20 DUP3 LT DUP2 SUB PUSH2 0x176C JUMPI PUSH4 0x4E487B71 PUSH1 0xE0 SHL PUSH1 0x0 MSTORE PUSH1 0x22 PUSH1 0x4 MSTORE PUSH1 0x24 PUSH1 0x0 REVERT JUMPDEST POP SWAP2 SWAP1 POP JUMP JUMPDEST PUSH1 0x1F DUP3 GT ISZERO PUSH2 0x17BE JUMPI PUSH1 0x0 DUP2 PUSH1 0x0 MSTORE PUSH1 0x20 PUSH1 0x0 KECCAK256 PUSH1 0x1F DUP6 ADD PUSH1 0x5 SHR DUP2 ADD PUSH1 0x20 DUP7 LT ISZERO PUSH2 0x179B JUMPI POP DUP1 JUMPDEST PUSH1 0x1F DUP6 ADD PUSH1 0x5 SHR DUP3 ADD SWAP2 POP JUMPDEST DUP2 DUP2 LT ISZERO PUSH2 0x17BA JUMPI DUP3 DUP2 SSTORE PUSH1 0x1 ADD PUSH2 0x17A7 JUMP JUMPDEST POP POP POP JUMPDEST POP POP POP JUMP JUMPDEST DUP2 MLOAD PUSH8 0xFFFFFFFFFFFFFFFF DUP2 GT ISZERO PUSH2 0x17DD JUMPI PUSH2 0x17DD PUSH2 0x1376 JUMP JUMPDEST PUSH2 0x17F1 DUP2 PUSH2 0x17EB DUP5 SLOAD PUSH2 0x1738 JUMP JUMPDEST DUP5 PUSH2 0x1772 JUMP JUMPDEST PUSH1 0x20 DUP1 PUSH1 0x1F DUP4 GT PUSH1 0x1 DUP2 EQ PUSH2 0x1826 JUMPI PUSH1 0x0 DUP5 ISZERO PUSH2 0x180E JUMPI POP DUP6 DUP4 ADD MLOAD JUMPDEST PUSH1 0x0 NOT PUSH1 0x3 DUP7 SWAP1 SHL SHR NOT AND PUSH1 0x1 DUP6 SWAP1 SHL OR DUP6 SSTORE PUSH2 0x17BA JUMP JUMPDEST PUSH1 0x0 DUP6 DUP2 MSTORE PUSH1 0x20 DUP2 KECCAK256 PUSH1 0x1F NOT DUP7 AND SWAP2 JUMPDEST DUP3 DUP2 LT ISZERO PUSH2 0x1855 JUMPI DUP9 DUP7 ADD MLOAD DUP3 SSTORE SWAP5 DUP5 ADD SWAP5 PUSH1 0x1 SWAP1 SWAP2 ADD SWAP1 DUP5 ADD PUSH2 0x1836 JUMP JUMPDEST POP DUP6 DUP3 LT ISZERO PUSH2 0x1873 JUMPI DUP8 DUP6 ADD MLOAD PUSH1 0x0 NOT PUSH1 0x3 DUP9 SWAP1 SHL PUSH1 0xF8 AND SHR NOT AND DUP2 SSTORE JUMPDEST POP POP POP POP POP PUSH1 0x1 SWAP1 DUP2 SHL ADD SWAP1 SSTORE POP JUMP JUMPDEST PUSH1 0x0 DUP1 DUP4 SLOAD PUSH2 0x1891 DUP2 PUSH2 0x1738 JUMP JUMPDEST PUSH1 0x1 DUP3 DUP2 AND DUP1 ISZERO PUSH2 0x18A9 JUMPI PUSH1 0x1 DUP2 EQ PUSH2 0x18BE JUMPI PUSH2 0x18ED JUMP JUMPDEST PUSH1 0xFF NOT DUP5 AND DUP8 MSTORE DUP3 ISZERO ISZERO DUP4 MUL DUP8 ADD SWAP5 POP PUSH2 0x18ED JUMP JUMPDEST DUP8 PUSH1 0x0 MSTORE PUSH1 0x20 DUP1 PUSH1 0x0 KECCAK256 PUSH1 0x0 JUMPDEST DUP6 DUP2 LT ISZERO PUSH2 0x18E4 JUMPI DUP2 SLOAD DUP11 DUP3 ADD MSTORE SWAP1 DUP5 ADD SWAP1 DUP3 ADD PUSH2 0x18CB JUMP JUMPDEST POP POP POP DUP3 DUP8 ADD SWAP5 POP JUMPDEST POP SWAP3 SWAP7 SWAP6 POP POP POP POP POP POP JUMP JUMPDEST PUSH4 0x4E487B71 PUSH1 0xE0 SHL PUSH1 0x0 MSTORE PUSH1 0x11 PUSH1 0x4 MSTORE PUSH1 0x24 PUSH1 0x0 REVERT JUMPDEST DUP2 DUP2 SUB DUP2 DUP2 GT ISZERO PUSH2 0x1922 JUMPI PUSH2 0x1922 PUSH2 0x18F9 JUMP JUMPDEST SWAP3 SWAP2 POP POP JUMP JUMPDEST PUSH4 0x4E487B71 PUSH1 0xE0 SHL PUSH1 0x0 MSTORE PUSH1 0x32 PUSH1 0x4 MSTORE PUSH1 0x24 PUSH1 0x0 REVERT JUMPDEST PUSH1 0x0 DUP3 MLOAD PUSH2 0x1950 DUP2 DUP5 PUSH1 0x20 DUP8 ADD PUSH2 0x1644 JUMP JUMPDEST PUSH20 0x5052932B632BB30B73A1031B7B73A32BC3A1D05 PUSH1 0x61 SHL SWAP3 ADD SWAP2 DUP3 MSTORE POP PUSH1 0x14 ADD SWAP2 SWAP1 POP JUMP JUMPDEST PUSH1 0x0 DUP4 MLOAD PUSH2 0x1988 DUP2 DUP5 PUSH1 0x20 DUP9 ADD PUSH2 0x1644 JUMP JUMPDEST DUP4 MLOAD SWAP1 DUP4 ADD SWAP1 PUSH2 0x199C DUP2 DUP4 PUSH1 0x20 DUP9 ADD PUSH2 0x1644 JUMP JUMPDEST PUSH1 0x5 PUSH1 0xF9 SHL SWAP2 ADD SWAP1 DUP2 MSTORE PUSH1 0x1 ADD SWAP5 SWAP4 POP POP POP POP JUMP JUMPDEST PUSH1 0x0 PUSH1 0x20 DUP3 DUP5 SUB SLT ISZERO PUSH2 0x19C3 JUMPI PUSH1 0x0 DUP1 REVERT JUMPDEST POP MLOAD SWAP2 SWAP1 POP JUMP JUMPDEST DUP1 DUP3 ADD DUP1 DUP3 GT ISZERO PUSH2 0x1922 JUMPI PUSH2 0x1922 PUSH2 0x18F9 JUMP JUMPDEST DUP5 DUP2 MSTORE PUSH1 0x0 PUSH1 0x20 PUSH1 0x80 PUSH1 0x20 DUP5 ADD MSTORE PUSH1 0x0 DUP7 SLOAD PUSH2 0x19F8 DUP2 PUSH2 0x1738 JUMP JUMPDEST DUP1 PUSH1 0x80 DUP8 ADD MSTORE PUSH1 0xA0 PUSH1 0x1 DUP1 DUP5 AND PUSH1 0x0 DUP2 EQ PUSH2 0x1A1A JUMPI PUSH1 0x1 DUP2 EQ PUSH2 0x1A36 JUMPI PUSH2 0x1A66 JUMP JUMPDEST PUSH1 0xFF NOT DUP6 AND PUSH1 0xA0 DUP11 ADD MSTORE PUSH1 0xA0 DUP5 ISZERO ISZERO PUSH1 0x5 SHL DUP11 ADD ADD SWAP6 POP PUSH2 0x1A66 JUMP JUMPDEST DUP12 PUSH1 0x0 MSTORE PUSH1 0x20 PUSH1 0x0 KECCAK256 PUSH1 0x0 JUMPDEST DUP6 DUP2 LT ISZERO PUSH2 0x1A5D JUMPI DUP2 SLOAD DUP12 DUP3 ADD DUP7 ADD MSTORE SWAP1 DUP4 ADD SWAP1 DUP9 ADD PUSH2 0x1A42 JUMP JUMPDEST DUP11 ADD PUSH1 0xA0 ADD SWAP7 POP POP JUMPDEST POP POP POP POP POP DUP4 DUP2 SUB PUSH1 0x40 DUP6 ADD MSTORE PUSH2 0x1A7D DUP2 DUP8 PUSH2 0x1668 JUMP JUMPDEST SWAP3 POP POP POP PUSH2 0x1A93 PUSH1 0x60 DUP4 ADD DUP5 PUSH4 0xFFFFFFFF AND SWAP1 MSTORE JUMP JUMPDEST SWAP6 SWAP5 POP POP POP POP POP JUMP JUMPDEST PUSH1 0x0 PUSH1 0x1 DUP3 ADD PUSH2 0x1AAE JUMPI PUSH2 0x1AAE PUSH2 0x18F9 JUMP JUMPDEST POP PUSH1 0x1 ADD SWAP1 JUMP JUMPDEST PUSH1 0x40 DUP2 MSTORE PUSH1 0x0 PUSH2 0x1AC8 PUSH1 0x40 DUP4 ADD DUP6 PUSH2 0x1668 JUMP JUMPDEST SWAP1 POP DUP3 PUSH1 0x20 DUP4 ADD MSTORE SWAP4 SWAP3 POP POP POP JUMP JUMPDEST PUSH1 0x40 DUP2 MSTORE PUSH1 0x0 PUSH2 0x1AEA PUSH1 0x40 DUP4 ADD DUP6 PUSH2 0x1668 JUMP JUMPDEST DUP3 DUP2 SUB PUSH1 0x20 DUP5 ADD MSTORE PUSH2 0x1A93 DUP2 DUP6 PUSH2 0x1668 JUMP JUMPDEST PUSH1 0x80 DUP2 MSTORE PUSH1 0x0 PUSH2 0x1B0F PUSH1 0x80 DUP4 ADD DUP8 PUSH2 0x1668 JUMP JUMPDEST DUP3 DUP2 SUB PUSH1 0x20 DUP5 ADD MSTORE PUSH2 0x1B21 DUP2 DUP8 PUSH2 0x1668 JUMP JUMPDEST SWAP1 POP DUP3 DUP2 SUB PUSH1 0x40 DUP5 ADD MSTORE PUSH2 0x1B35 DUP2 DUP7 PUSH2 0x1668 JUMP JUMPDEST SWAP2 POP POP DUP3 PUSH1 0x60 DUP4 ADD MSTORE SWAP6 SWAP5 POP POP POP POP POP JUMP INVALID NUMBER PUSH9 0x617443726561746564 KECCAK256 PUSH6 0x76656E742065 PUSH14 0x697474656420666F722063686174 KECCAK256 BLOBHASH PREVRANDAO GASPRICE COINBASE PUSH20 0x73697374616E7420726573706F6E736520616464 PUSH6 0x6420746F2072 PUSH22 0x6E49643A436F6E7465787420616464656420746F2074 PUSH9 0x65206C617374206D65 PUSH20 0x7361676520666F722072756E49643A4372656174 PUSH10 0x6E67204C4C4D2063616C PUSH13 0x20666F72206E65772075736572 KECCAK256 PUSH14 0x65737361676520696E2072756E49 PUSH5 0x3A6F6E4F72 PUSH2 0x636C PUSH6 0x4C6C6D526573 PUSH17 0x6F6E73652063616C6C656420666F722072 PUSH22 0x6E49643A6F6E4F7261636C654B6E6F776C6564676542 PUSH2 0x7365 MLOAD PUSH22 0x657279526573706F6E73652063616C6C656420666F72 KECCAK256 PUSH19 0x756E49643A4372656174696E67206B6E6F776C PUSH6 0x646765206261 PUSH20 0x6520717565727920666F72206E65772075736572 KECCAK256 PUSH14 0x65737361676520696E2072756E49 PUSH5 0x3AA2646970 PUSH7 0x7358221220F7F1 ADDRESS PUSH30 0x2609D71BFE9A327838E6EC9E364F41AEAF3B0E329620E8956BD0B6B86473 PUSH16 0x6C634300081800330000000000000000 "},"methodIdentifiers":{"addMessage(string,uint256)":"941fac37","chatRuns(uint256)":"632cc98b","getMessageHistoryContents(uint256)":"eb17429a","getMessageHistoryRoles(uint256)":"ed6e39e5","knowledgeBase()":"f997cc25","onOracleKnowledgeBaseQueryResponse(uint256,string[],string)":"2843d135","onOracleLlmResponse(uint256,string,string)":"a1b67ed1","oracleAddress()":"a89ae4ba","setKnowledgeCid(string)":"14a74148","setOracleAddress(address)":"4c69c00f","startChat(string)":"2d08d82a"}}}}}