{
  "_format": "hh-sol-artifact-1",
  "contractName": "ResumeCraftAgent",
  "sourceName": "contracts/ResumeCraftAgent.sol",
  "abi": [
    {
      "inputs": [
        {
          "internalType": "address",
          "name": "initialOracleAddress",
          "type": "address"
        },
        {
          "internalType": "string",
          "name": "systemPrompt",
          "type": "string"
        }
      ],
      "stateMutability": "nonpayable",
      "type": "constructor"
    },
    {
      "anonymous": false,
      "inputs": [
        {
          "indexed": true,
          "internalType": "address",
          "name": "owner",
          "type": "address"
        },
        {
          "indexed": true,
          "internalType": "uint256",
          "name": "runId",
          "type": "uint256"
        }
      ],
      "name": "AgentRunCreated",
      "type": "event"
    },
    {
      "anonymous": false,
      "inputs": [
        {
          "indexed": true,
          "internalType": "string",
          "name": "newKnowledgeBaseCID",
          "type": "string"
        }
      ],
      "name": "KnowledgeBaseUpdated",
      "type": "event"
    },
    {
      "anonymous": false,
      "inputs": [
        {
          "indexed": true,
          "internalType": "address",
          "name": "newOracleAddress",
          "type": "address"
        }
      ],
      "name": "OracleAddressUpdated",
      "type": "event"
    },
    {
      "inputs": [
        {
          "internalType": "uint256",
          "name": "",
          "type": "uint256"
        }
      ],
      "name": "agentRuns",
      "outputs": [
        {
          "internalType": "address",
          "name": "owner",
          "type": "address"
        },
        {
          "internalType": "uint256",
          "name": "responsesCount",
          "type": "uint256"
        },
        {
          "internalType": "uint8",
          "name": "max_iterations",
          "type": "uint8"
        },
        {
          "internalType": "bool",
          "name": "is_finished",
          "type": "bool"
        },
        {
          "internalType": "uint256",
          "name": "messagesCount",
          "type": "uint256"
        }
      ],
      "stateMutability": "view",
      "type": "function"
    },
    {
      "inputs": [
        {
          "internalType": "uint256",
          "name": "agentId",
          "type": "uint256"
        }
      ],
      "name": "getMessageHistoryContents",
      "outputs": [
        {
          "internalType": "string[]",
          "name": "",
          "type": "string[]"
        }
      ],
      "stateMutability": "view",
      "type": "function"
    },
    {
      "inputs": [
        {
          "internalType": "uint256",
          "name": "agentId",
          "type": "uint256"
        }
      ],
      "name": "getMessageHistoryRoles",
      "outputs": [
        {
          "internalType": "string[]",
          "name": "",
          "type": "string[]"
        }
      ],
      "stateMutability": "view",
      "type": "function"
    },
    {
      "inputs": [
        {
          "internalType": "uint256",
          "name": "runId",
          "type": "uint256"
        }
      ],
      "name": "isRunFinished",
      "outputs": [
        {
          "internalType": "bool",
          "name": "",
          "type": "bool"
        }
      ],
      "stateMutability": "view",
      "type": "function"
    },
    {
      "inputs": [],
      "name": "knowledgeBase",
      "outputs": [
        {
          "internalType": "string",
          "name": "",
          "type": "string"
        }
      ],
      "stateMutability": "view",
      "type": "function"
    },
    {
      "inputs": [
        {
          "internalType": "uint256",
          "name": "runId",
          "type": "uint256"
        },
        {
          "internalType": "string",
          "name": "response",
          "type": "string"
        },
        {
          "internalType": "string",
          "name": "errorMessage",
          "type": "string"
        }
      ],
      "name": "onOracleFunctionResponse",
      "outputs": [],
      "stateMutability": "nonpayable",
      "type": "function"
    },
    {
      "inputs": [
        {
          "internalType": "uint256",
          "name": "runId",
          "type": "uint256"
        },
        {
          "internalType": "string[]",
          "name": "documents",
          "type": "string[]"
        },
        {
          "internalType": "string",
          "name": "",
          "type": "string"
        }
      ],
      "name": "onOracleKnowledgeBaseQueryResponse",
      "outputs": [],
      "stateMutability": "nonpayable",
      "type": "function"
    },
    {
      "inputs": [
        {
          "internalType": "uint256",
          "name": "runId",
          "type": "uint256"
        },
        {
          "components": [
            {
              "internalType": "string",
              "name": "id",
              "type": "string"
            },
            {
              "internalType": "string",
              "name": "content",
              "type": "string"
            },
            {
              "internalType": "string",
              "name": "functionName",
              "type": "string"
            },
            {
              "internalType": "string",
              "name": "functionArguments",
              "type": "string"
            },
            {
              "internalType": "uint64",
              "name": "created",
              "type": "uint64"
            },
            {
              "internalType": "string",
              "name": "model",
              "type": "string"
            },
            {
              "internalType": "string",
              "name": "systemFingerprint",
              "type": "string"
            },
            {
              "internalType": "string",
              "name": "object",
              "type": "string"
            },
            {
              "internalType": "uint32",
              "name": "completionTokens",
              "type": "uint32"
            },
            {
              "internalType": "uint32",
              "name": "promptTokens",
              "type": "uint32"
            },
            {
              "internalType": "uint32",
              "name": "totalTokens",
              "type": "uint32"
            }
          ],
          "internalType": "struct IOracle.OpenAiResponse",
          "name": "response",
          "type": "tuple"
        },
        {
          "internalType": "string",
          "name": "errorMessage",
          "type": "string"
        }
      ],
      "name": "onOracleOpenAiLlmResponse",
      "outputs": [],
      "stateMutability": "nonpayable",
      "type": "function"
    },
    {
      "inputs": [],
      "name": "oracleAddress",
      "outputs": [
        {
          "internalType": "address",
          "name": "",
          "type": "address"
        }
      ],
      "stateMutability": "view",
      "type": "function"
    },
    {
      "inputs": [],
      "name": "prompt",
      "outputs": [
        {
          "internalType": "string",
          "name": "",
          "type": "string"
        }
      ],
      "stateMutability": "view",
      "type": "function"
    },
    {
      "inputs": [
        {
          "internalType": "string",
          "name": "query",
          "type": "string"
        },
        {
          "internalType": "uint8",
          "name": "max_iterations",
          "type": "uint8"
        }
      ],
      "name": "runAgent",
      "outputs": [
        {
          "internalType": "uint256",
          "name": "i",
          "type": "uint256"
        }
      ],
      "stateMutability": "nonpayable",
      "type": "function"
    },
    {
      "inputs": [
        {
          "internalType": "string",
          "name": "cid",
          "type": "string"
        }
      ],
      "name": "setKnowledgeBaseCid",
      "outputs": [],
      "stateMutability": "nonpayable",
      "type": "function"
    },
    {
      "inputs": [
        {
          "internalType": "address",
          "name": "newOracleAddress",
          "type": "address"
        }
      ],
      "name": "setOracleAddress",
      "outputs": [],
      "stateMutability": "nonpayable",
      "type": "function"
    }
  ],
  "bytecode": "0x60806040523480156200001157600080fd5b50604051620029c8380380620029c88339810160408190526200003491620002c5565b60048054336001600160a01b031991821617909155600580549091166001600160a01b03841617905560006200006b82826200044c565b50604051806101a001604052806040518060400160405280601381526020017f6770742d342d747572626f2d70726576696577000000000000000000000000008152508152602001601560000b81526020016040518060200160405280600081525081526020016103e863ffffffff168152602001601560000b81526020016040518060400160405280600f81526020016e7b2274797065223a2274657874227d60881b815250815260200160008152602001604051806020016040528060008152508152602001600a8152602001606581526020016040518061020001604052806101d38152602001620027f56101d39139815260408051808201825260048152636175746f60e01b60208281019190915280840191909152815190810182526000815291015280516006908190620001a690826200044c565b50602082015160018201805460ff191660ff90921691909117905560408201516002820190620001d790826200044c565b506060820151600382018054608085015160ff166401000000000264ffffffffff1990911663ffffffff9093169290921791909117905560a082015160048201906200022490826200044c565b5060c0820151600582015560e082015160068201906200024590826200044c565b506101008201516007820155610120820151600882015561014082015160098201906200027390826200044c565b50610160820151600a8201906200028b90826200044c565b50610180820151600b820190620002a390826200044c565b50905050505062000518565b634e487b7160e01b600052604160045260246000fd5b60008060408385031215620002d957600080fd5b82516001600160a01b0381168114620002f157600080fd5b602084810151919350906001600160401b03808211156200031157600080fd5b818601915086601f8301126200032657600080fd5b8151818111156200033b576200033b620002af565b604051601f8201601f19908116603f01168101908382118183101715620003665762000366620002af565b8160405282815289868487010111156200037f57600080fd5b600093505b82841015620003a3578484018601518185018701529285019262000384565b60008684830101528096505050505050509250929050565b600181811c90821680620003d057607f821691505b602082108103620003f157634e487b7160e01b600052602260045260246000fd5b50919050565b601f82111562000447576000816000526020600020601f850160051c81016020861015620004225750805b601f850160051c820191505b8181101562000443578281556001016200042e565b5050505b505050565b81516001600160401b03811115620004685762000468620002af565b6200048081620004798454620003bb565b84620003f7565b602080601f831160018114620004b857600084156200049f5750858301515b600019600386901b1c1916600185901b17855562000443565b600085815260208120601f198616915b82811015620004e957888601518255948401946001909101908401620004c8565b5085821015620005085787850151600019600388901b60f8161c191681555b5050505050600190811b01905550565b6122cd80620005286000396000f3fe608060405234801561001057600080fd5b50600436106100cf5760003560e01c8063a89ae4ba1161008c578063daec051f11610066578063daec051f1461023e578063eb17429a1461025f578063ed6e39e51461027f578063f997cc251461029257600080fd5b8063a89ae4ba14610177578063c63b0295146101a2578063ccac7a911461022b57600080fd5b80632843d135146100d45780632eab9c81146100e95780634c69c00f146101295780634cecd88e1461013c5780637397454d1461014f5780637c65d71114610162575b600080fd5b6100e76100e23660046115a1565b61029a565b005b6101146100f7366004611692565b600090815260026020526040902060030154610100900460ff1690565b60405190151581526020015b60405180910390f35b6100e76101373660046116ab565b6105c2565b6100e761014a36600461170c565b6106b6565b6100e761015d3660046118bd565b610b1f565b61016a610c8e565b6040516101209190611963565b60055461018a906001600160a01b031681565b6040516001600160a01b039091168152602001610120565b6101f16101b0366004611692565b600260208190526000918252604090912080549181015460038201546004909201546001600160a01b0390931692909160ff80821692610100909204169085565b604080516001600160a01b039096168652602086019490945260ff909216928401929092529015156060830152608082015260a001610120565b6100e7610239366004611976565b610d1c565b61025161024c3660046119b3565b610e01565b604051908152602001610120565b61027261026d366004611692565b61118f565b6040516101209190611a0b565b61027261028d366004611692565b6112f8565b61016a61145a565b6005546001600160a01b031633146102cd5760405162461bcd60e51b81526004016102c490611a6f565b60405180910390fd5b60008381526002602090815260409182902091516102f69101633ab9b2b960e11b815260040190565b6040516020818303038152906040528051906020012081600101600183600401546103219190611ab3565b8154811061033157610331611ac6565b90600052602060002090600202016000016040516020016103529190611b16565b60405160208183030381529060405280519060200120146103b55760405162461bcd60e51b815260206004820152601c60248201527f4e6f206d65737361676520746f2061646420636f6e7465787420746f0000000060448201526064016102c4565b600081600101600183600401546103cc9190611ab3565b815481106103dc576103dc611ac6565b9060005260206000209060020201905060008160010180546103fd90611adc565b80601f016020809104026020016040519081016040528092919081815260200182805461042990611adc565b80156104765780601f1061044b57610100808354040283529160200191610476565b820191906000526020600020905b81548152906001019060200180831161045957829003601f168201915b505050505090506000855111156104aa57806040516020016104989190611b8c565b60405160208183030381529060405290505b60005b85518110156104fc57818682815181106104c9576104c9611ac6565b60200260200101516040516020016104e2929190611bc4565b60408051601f1981840301815291905291506001016104ad565b506001820161050b8282611c4f565b50600554604051633c38a5f560e01b81526001600160a01b0390911690633c38a5f59061053f908990600690600401611d8c565b6020604051808303816000875af115801561055e573d6000803e3d6000fd5b505050506040513d601f19601f820116820180604052508101906105829190611e9d565b50825460405187916001600160a01b0316907f9697c88a6be3b3ed5062f2dcbd719a10914832320686f14e24f7756210a6685e90600090a3505050505050565b6004546001600160a01b031633146106125760405162461bcd60e51b815260206004820152601360248201527221b0b63632b91034b9903737ba1037bbb732b960691b60448201526064016102c4565b6004546001600160a01b0316331461066c5760405162461bcd60e51b815260206004820152601760248201527f43616c6c6572206973206e6f7420746865206f776e657200000000000000000060448201526064016102c4565b600580546001600160a01b0319166001600160a01b0383169081179091556040517f107a9fafffb7ac890f780879e423760c9ffea8dcee8045681f40f542aede2cb890600090a250565b6005546001600160a01b031633146106e05760405162461bcd60e51b81526004016102c490611a6f565b60008381526002602090815260408083208151928301909152918152610707908390611467565b6107b9576040805180820182526060808252602080830191825283518085019094526009845268185cdcda5cdd185b9d60ba1b8482015292825284905260018381018054918201815560009081529290922081519192839260029091029091019081906107749082611c4f565b50602082015160018201906107899082611c4f565b50505060028201805490600061079e83611eb6565b909155505050600301805461ff001916610100179055505050565b6003810154600282015460ff909116116107e257600301805461ff001916610100179055505050565b6107ff836020015160405180602001604052806000815250611467565b610a6157604080518082019091526060808252602082015260208085015182820152604080518082019091526009815268185cdcda5cdd185b9d60ba1b8183015282526001808401805491820181556000908152919091208251839260020290910190819061086e9082611c4f565b50602082015160018201906108839082611c4f565b50505060028201805490600061089883611eb6565b919050555081600201546001036109c15760408051808201909152606080825260208201526040518061020001604052806101c481526020016120d46101c491396020808301919091526040805180820190915260048152633ab9b2b960e11b8183015282526001808501805491820181556000908152919091208251839260020290910190819061092a9082611c4f565b506020820151600182019061093f9082611c4f565b5050600554604051633c38a5f560e01b81526001600160a01b039091169150633c38a5f590610975908990600690600401611d8c565b6020604051808303816000875af1158015610994573d6000803e3d6000fd5b505050506040513d601f19601f820116820180604052508101906109b89190611e9d565b50505050505050565b8160020154600203610a4e57604080518082019091526060808252602082015260405180610180016040528061015d8152602001611f7761015d91396020808301919091526040805180820190915260048152633ab9b2b960e11b8183015282526001808501805491820181556000908152919091208251839260020290910190819061092a9082611c4f565b5060038101805461ff0019166101001790555b610a7e836040015160405180602001604052806000815250611467565b610b095760055460408085015160608601519151634b04236b60e01b81526001600160a01b0390931692634b04236b92610abf928992909190600401611ecf565b6020604051808303816000875af1158015610ade573d6000803e3d6000fd5b505050506040513d601f19601f82011682018060405250810190610b029190611e9d565b5050505050565b600301805461ff0019166101001790555b505050565b6005546001600160a01b03163314610b495760405162461bcd60e51b81526004016102c490611a6f565b60008381526002602052604090206003810154610100900460ff1615610ba35760405162461bcd60e51b815260206004820152600f60248201526e149d5b881a5cc8199a5b9a5cda1959608a1b60448201526064016102c4565b6000839050610bc18360405180602001604052806000815250611467565b610bc85750815b60408051808201825260608082526020808301918252835180850190945260048452633ab9b2b960e11b848201529282528390526001848101805491820181556000908152929092208151919283926002909102909101908190610c2c9082611c4f565b5060208201516001820190610c419082611c4f565b505050600283018054906000610c5683611eb6565b9091555050600554604051633c38a5f560e01b81526001600160a01b0390911690633c38a5f590610975908990600690600401611d8c565b60008054610c9b90611adc565b80601f0160208091040260200160405190810160405280929190818152602001828054610cc790611adc565b8015610d145780601f10610ce957610100808354040283529160200191610d14565b820191906000526020600020905b815481529060010190602001808311610cf757829003601f168201915b505050505081565b6004546001600160a01b03163314610d6c5760405162461bcd60e51b815260206004820152601360248201527221b0b63632b91034b9903737ba1037bbb732b960691b60448201526064016102c4565b6000815111610db35760405162461bcd60e51b81526020600482015260136024820152724349442063616e6e6f7420626520656d70747960681b60448201526064016102c4565b6001610dbf8282611c4f565b5080604051610dce9190611f04565b604051908190038120907f25f99356a5ff3d29e95df0906ba17b40b7bb5c86a372ca12d27fcf3ce537f1ab90600090a250565b6003805460009081526002602081815260408084208054336001600160a01b0319909116178155948501805493860185905561ffff1990931660ff871617909255815180830190925260608083529082015290919060008054610e6390611adc565b80601f0160208091040260200160405190810160405280929190818152602001828054610e8f90611adc565b8015610edc5780601f10610eb157610100808354040283529160200191610edc565b820191906000526020600020905b815481529060010190602001808311610ebf57829003601f168201915b505050506020808401929092525060408051808201909152600681526573797374656d60d01b81830152825260018084018054918201815560009081529190912082518392600202909101908190610f349082611c4f565b5060208201516001820190610f499082611c4f565b505050600482018054906000610f5e83611eb6565b9091555050604080518082018252606081526020808201889052825180840190935260048352633ab9b2b960e11b838201529181526001848101805491820181556000908152929092208151919283926002909102909101908190610fc39082611c4f565b5060208201516001820190610fd89082611c4f565b505050600483018054906000610fed83611eb6565b9091555050600354611000816001611f20565b600355600180546000919061101490611adc565b905011156110d45760055460405163a252a95160e01b81526001600160a01b039091169063a252a951906110549084906001908c90600290600401611f33565b6020604051808303816000875af1158015611073573d6000803e3d6000fd5b505050506040513d601f19601f820116820180604052508101906110979190611e9d565b50835460405182916001600160a01b0316907f9697c88a6be3b3ed5062f2dcbd719a10914832320686f14e24f7756210a6685e90600090a3611183565b600554604051633c38a5f560e01b81526001600160a01b0390911690633c38a5f590611107908490600690600401611d8c565b6020604051808303816000875af1158015611126573d6000803e3d6000fd5b505050506040513d601f19601f8201168201806040525081019061114a9190611e9d565b50835460405182916001600160a01b0316907f9697c88a6be3b3ed5062f2dcbd719a10914832320686f14e24f7756210a6685e90600090a35b93505050505b92915050565b6000818152600260205260408120600101546060919067ffffffffffffffff8111156111bd576111bd6114c0565b6040519080825280602002602001820160405280156111f057816020015b60608152602001906001900390816111db5790505b50905060005b6000848152600260205260409020600101548110156112f157600084815260026020526040902060010180548290811061123257611232611ac6565b9060005260206000209060020201600101805461124e90611adc565b80601f016020809104026020016040519081016040528092919081815260200182805461127a90611adc565b80156112c75780601f1061129c576101008083540402835291602001916112c7565b820191906000526020600020905b8154815290600101906020018083116112aa57829003601f168201915b50505050508282815181106112de576112de611ac6565b60209081029190910101526001016111f6565b5092915050565b6000818152600260205260408120600101546060919067ffffffffffffffff811115611326576113266114c0565b60405190808252806020026020018201604052801561135957816020015b60608152602001906001900390816113445790505b50905060005b6000848152600260205260409020600101548110156112f157600084815260026020526040902060010180548290811061139b5761139b611ac6565b906000526020600020906002020160000180546113b790611adc565b80601f01602080910402602001604051908101604052809291908181526020018280546113e390611adc565b80156114305780601f1061140557610100808354040283529160200191611430565b820191906000526020600020905b81548152906001019060200180831161141357829003601f168201915b505050505082828151811061144757611447611ac6565b602090810291909101015260010161135f565b60018054610c9b90611adc565b60008160405160200161147a9190611f04565b60405160208183030381529060405280519060200120836040516020016114a19190611f04565b6040516020818303038152906040528051906020012014905092915050565b634e487b7160e01b600052604160045260246000fd5b604051610160810167ffffffffffffffff811182821017156114fa576114fa6114c0565b60405290565b604051601f8201601f1916810167ffffffffffffffff81118282101715611529576115296114c0565b604052919050565b600082601f83011261154257600080fd5b813567ffffffffffffffff81111561155c5761155c6114c0565b61156f601f8201601f1916602001611500565b81815284602083860101111561158457600080fd5b816020850160208301376000918101602001919091529392505050565b6000806000606084860312156115b657600080fd5b8335925060208085013567ffffffffffffffff808211156115d657600080fd5b818701915087601f8301126115ea57600080fd5b8135818111156115fc576115fc6114c0565b8060051b61160b858201611500565b918252838101850191858101908b84111561162557600080fd5b86860192505b83831015611661578235858111156116435760008081fd5b6116518d89838a0101611531565b835250918601919086019061162b565b9750505050604087013592508083111561167a57600080fd5b505061168886828701611531565b9150509250925092565b6000602082840312156116a457600080fd5b5035919050565b6000602082840312156116bd57600080fd5b81356001600160a01b03811681146116d457600080fd5b9392505050565b803567ffffffffffffffff811681146116f357600080fd5b919050565b803563ffffffff811681146116f357600080fd5b60008060006060848603121561172157600080fd5b83359250602084013567ffffffffffffffff8082111561174057600080fd5b90850190610160828803121561175557600080fd5b61175d6114d6565b82358281111561176c57600080fd5b61177889828601611531565b82525060208301358281111561178d57600080fd5b61179989828601611531565b6020830152506040830135828111156117b157600080fd5b6117bd89828601611531565b6040830152506060830135828111156117d557600080fd5b6117e189828601611531565b6060830152506117f3608084016116db565b608082015260a08301358281111561180a57600080fd5b61181689828601611531565b60a08301525060c08301358281111561182e57600080fd5b61183a89828601611531565b60c08301525060e08301358281111561185257600080fd5b61185e89828601611531565b60e0830152506101006118728185016116f8565b908201526101206118848482016116f8565b908201526101406118968482016116f8565b90820152935060408601359150808211156118b057600080fd5b5061168886828701611531565b6000806000606084860312156118d257600080fd5b83359250602084013567ffffffffffffffff808211156118f157600080fd5b6118fd87838801611531565b935060408601359150808211156118b057600080fd5b60005b8381101561192e578181015183820152602001611916565b50506000910152565b6000815180845261194f816020860160208601611913565b601f01601f19169290920160200192915050565b6020815260006116d46020830184611937565b60006020828403121561198857600080fd5b813567ffffffffffffffff81111561199f57600080fd5b6119ab84828501611531565b949350505050565b600080604083850312156119c657600080fd5b823567ffffffffffffffff8111156119dd57600080fd5b6119e985828601611531565b925050602083013560ff81168114611a0057600080fd5b809150509250929050565b600060208083016020845280855180835260408601915060408160051b87010192506020870160005b82811015611a6257603f19888603018452611a50858351611937565b94509285019290850190600101611a34565b5092979650505050505050565b60208082526014908201527343616c6c6572206973206e6f74206f7261636c6560601b604082015260600190565b634e487b7160e01b600052601160045260246000fd5b8181038181111561118957611189611a9d565b634e487b7160e01b600052603260045260246000fd5b600181811c90821680611af057607f821691505b602082108103611b1057634e487b7160e01b600052602260045260246000fd5b50919050565b6000808354611b2481611adc565b60018281168015611b3c5760018114611b5157611b80565b60ff1984168752821515830287019450611b80565b8760005260208060002060005b85811015611b775781548a820152908401908201611b5e565b50505082870194505b50929695505050505050565b60008251611b9e818460208701611913565b7305052932b632bb30b73a1031b7b73a32bc3a1d0560611b920191825250601401919050565b60008351611bd6818460208801611913565b835190830190611bea818360208801611913565b600560f91b9101908152600101949350505050565b601f821115610b1a576000816000526020600020601f850160051c81016020861015611c285750805b601f850160051c820191505b81811015611c4757828155600101611c34565b505050505050565b815167ffffffffffffffff811115611c6957611c696114c0565b611c7d81611c778454611adc565b84611bff565b602080601f831160018114611cb25760008415611c9a5750858301515b600019600386901b1c1916600185901b178555611c47565b600085815260208120601f198616915b82811015611ce157888601518255948401946001909101908401611cc2565b5085821015611cff5787850151600019600388901b60f8161c191681555b5050505050600190811b01905550565b60008154611d1c81611adc565b808552602060018381168015611d395760018114611d5357611d81565b60ff1985168884015283151560051b880183019550611d81565b866000528260002060005b85811015611d795781548a8201860152908301908401611d5e565b890184019650505b505050505092915050565b8281526040602082015260006101a0806040840152611daf6101e0840185611d0f565b600185015460000b6060850152603f1984820381016080860152611dd68260028801611d0f565b600387015463ffffffff811660a088015260201c60000b60c0870152858103820160e08701529150611e0b8260048801611d0f565b915060058601546101008601528085830301610120860152611e308260068801611d0f565b9150600786015461014086015260088601546101608601528085830301610180860152611e608260098801611d0f565b9150808583030183860152611e7882600a8801611d0f565b925080858403016101c08601525050611e9481600b8601611d0f565b95945050505050565b600060208284031215611eaf57600080fd5b5051919050565b600060018201611ec857611ec8611a9d565b5060010190565b838152606060208201526000611ee86060830185611937565b8281036040840152611efa8185611937565b9695505050505050565b60008251611f16818460208701611913565b9190910192915050565b8082018082111561118957611189611a9d565b848152608060208201526000611f4c6080830186611d0f565b8281036040840152611f5e8186611937565b91505063ffffffff831660608301529594505050505056fe506c6561736520616e616c797a652074686520646966666572656e636573206265747765656e2074686520696e697469616c20726573756d6520616e6420746865206e65776c792067656e657261746564207461696c6f72656420726573756d652e2050726f7669646520612070657263656e7461676520696e6469636174696e6720686f772077656c6c20746865206e657720726573756d65206d61746368657320746865206a6f62206465736372697074696f6e2c20686967686c69676874696e67207370656369666963206368616e67657320616e6420696d70726f76656d656e74732e20496e636c756465206e6563657373617279207461677320696e2061206c697374656420666f726d617420746f20656e7375726520746865206f7574707574206973207375697461626c6520666f722070726f66657373696f6e616c20504446206f7220444f43582070726573656e746174696f6e2e506c656173652067656e6572617465206120636f766572206c6574746572206261736564206f6e207468652070726f7669646564206a6f62206465736372697074696f6e2e2054686520636f766572206c65747465722073686f756c6420686967686c69676874206d7920737569746162696c69747920666f722074686520706f736974696f6e2c20656d70686173697a696e67206d792072656c6576616e7420736b696c6c7320616e6420657870657269656e6365732e20496e636c756465206120636f6d70656c6c696e6720696e74726f64756374696f6e2c2064657461696c656420626f64792070617261677261706873207468617420616c69676e206d79207175616c696669636174696f6e73207769746820746865206a6f6220726571756972656d656e74732c20616e642061207374726f6e6720636f6e636c7573696f6e2077697468206120636c6561722063616c6c20746f20616374696f6e2e2049742073686f756c6420696e636c756465206e6563657373617279207461677320746f206d616b652074686520646973706c61792061707065616c696e6720617320612070726f66657373696f6e616c20504446206f7220444f43582066696c652ea26469706673582212200ca77db8b7597fcec1b51466501caccb055ab6a1c09171c43abdff59b05ea5fc64736f6c634300081800335b7b2274797065223a2266756e6374696f6e222c2266756e6374696f6e223a7b226e616d65223a227765625f736561726368222c226465736372697074696f6e223a225365617263682074686520696e7465726e6574222c22706172616d6574657273223a7b2274797065223a226f626a656374222c2270726f70657274696573223a7b227175657279223a7b2274797065223a22737472696e67222c226465736372697074696f6e223a22536561726368207175657279227d7d2c227265717569726564223a5b227175657279225d7d7d7d2c7b2274797065223a2266756e6374696f6e222c2266756e6374696f6e223a7b226e616d65223a22696d6167655f67656e65726174696f6e222c226465736372697074696f6e223a2247656e65726174657320616e20696d616765207573696e672044616c6c652d32222c22706172616d6574657273223a7b2274797065223a226f626a656374222c2270726f70657274696573223a7b2270726f6d7074223a7b2274797065223a22737472696e67222c226465736372697074696f6e223a2244616c6c652d322070726f6d707420746f2067656e657261746520616e20696d616765227d7d2c227265717569726564223a5b2270726f6d7074225d7d7d7d5d",
  "linkReferences": {},
  "deployedLinkReferences": {}
}